{
  "contracts/PredictionMarket.sol": {
    "PredictionMarket": {
      "abi": [
        {
          "inputs": [],
          "stateMutability": "nonpayable",
          "type": "constructor"
        },
        {
          "anonymous": false,
          "inputs": [
            {
              "indexed": true,
              "internalType": "uint256",
              "name": "marketId",
              "type": "uint256"
            },
            {
              "indexed": true,
              "internalType": "address",
              "name": "bettor",
              "type": "address"
            },
            {
              "indexed": false,
              "internalType": "bool",
              "name": "position",
              "type": "bool"
            },
            {
              "indexed": false,
              "internalType": "uint256",
              "name": "amount",
              "type": "uint256"
            }
          ],
          "name": "BetPlaced",
          "type": "event"
        },
        {
          "anonymous": false,
          "inputs": [
            {
              "indexed": true,
              "internalType": "address",
              "name": "to",
              "type": "address"
            },
            {
              "indexed": false,
              "internalType": "uint256",
              "name": "amount",
              "type": "uint256"
            }
          ],
          "name": "FeesWithdrawn",
          "type": "event"
        },
        {
          "anonymous": false,
          "inputs": [
            {
              "indexed": true,
              "internalType": "uint256",
              "name": "marketId",
              "type": "uint256"
            },
            {
              "indexed": false,
              "internalType": "string",
              "name": "question",
              "type": "string"
            },
            {
              "indexed": false,
              "internalType": "string",
              "name": "category",
              "type": "string"
            },
            {
              "indexed": false,
              "internalType": "uint256",
              "name": "endTime",
              "type": "uint256"
            },
            {
              "indexed": true,
              "internalType": "address",
              "name": "creator",
              "type": "address"
            }
          ],
          "name": "MarketCreated",
          "type": "event"
        },
        {
          "anonymous": false,
          "inputs": [
            {
              "indexed": true,
              "internalType": "uint256",
              "name": "marketId",
              "type": "uint256"
            },
            {
              "indexed": false,
              "internalType": "bool",
              "name": "outcome",
              "type": "bool"
            },
            {
              "indexed": false,
              "internalType": "uint256",
              "name": "totalPool",
              "type": "uint256"
            }
          ],
          "name": "MarketResolved",
          "type": "event"
        },
        {
          "anonymous": false,
          "inputs": [
            {
              "indexed": true,
              "internalType": "uint256",
              "name": "marketId",
              "type": "uint256"
            },
            {
              "indexed": true,
              "internalType": "address",
              "name": "bettor",
              "type": "address"
            },
            {
              "indexed": false,
              "internalType": "uint256",
              "name": "amount",
              "type": "uint256"
            }
          ],
          "name": "WinningsClaimed",
          "type": "event"
        },
        {
          "inputs": [],
          "name": "MAX_FEE",
          "outputs": [
            {
              "internalType": "uint256",
              "name": "",
              "type": "uint256"
            }
          ],
          "stateMutability": "view",
          "type": "function"
        },
        {
          "inputs": [
            {
              "internalType": "uint256",
              "name": "",
              "type": "uint256"
            },
            {
              "internalType": "address",
              "name": "",
              "type": "address"
            }
          ],
          "name": "bets",
          "outputs": [
            {
              "internalType": "uint256",
              "name": "amount",
              "type": "uint256"
            },
            {
              "internalType": "bool",
              "name": "position",
              "type": "bool"
            },
            {
              "internalType": "bool",
              "name": "claimed",
              "type": "bool"
            }
          ],
          "stateMutability": "view",
          "type": "function"
        },
        {
          "inputs": [
            {
              "internalType": "uint256",
              "name": "_marketId",
              "type": "uint256"
            }
          ],
          "name": "claimWinnings",
          "outputs": [],
          "stateMutability": "nonpayable",
          "type": "function"
        },
        {
          "inputs": [
            {
              "internalType": "string",
              "name": "_question",
              "type": "string"
            },
            {
              "internalType": "string",
              "name": "_imageURI",
              "type": "string"
            },
            {
              "internalType": "string",
              "name": "_category",
              "type": "string"
            },
            {
              "internalType": "uint256",
              "name": "_endTime",
              "type": "uint256"
            }
          ],
          "name": "createMarket",
          "outputs": [
            {
              "internalType": "uint256",
              "name": "",
              "type": "uint256"
            }
          ],
          "stateMutability": "nonpayable",
          "type": "function"
        },
        {
          "inputs": [
            {
              "internalType": "uint256",
              "name": "_marketId",
              "type": "uint256"
            },
            {
              "internalType": "address",
              "name": "_bettor",
              "type": "address"
            }
          ],
          "name": "getBet",
          "outputs": [
            {
              "components": [
                {
                  "internalType": "uint256",
                  "name": "amount",
                  "type": "uint256"
                },
                {
                  "internalType": "bool",
                  "name": "position",
                  "type": "bool"
                },
                {
                  "internalType": "bool",
                  "name": "claimed",
                  "type": "bool"
                }
              ],
              "internalType": "struct PredictionMarket.Bet",
              "name": "",
              "type": "tuple"
            }
          ],
          "stateMutability": "view",
          "type": "function"
        },
        {
          "inputs": [
            {
              "internalType": "uint256",
              "name": "_marketId",
              "type": "uint256"
            }
          ],
          "name": "getMarket",
          "outputs": [
            {
              "components": [
                {
                  "internalType": "uint256",
                  "name": "id",
                  "type": "uint256"
                },
                {
                  "internalType": "string",
                  "name": "question",
                  "type": "string"
                },
                {
                  "internalType": "string",
                  "name": "imageURI",
                  "type": "string"
                },
                {
                  "internalType": "string",
                  "name": "category",
                  "type": "string"
                },
                {
                  "internalType": "uint256",
                  "name": "endTime",
                  "type": "uint256"
                },
                {
                  "internalType": "uint256",
                  "name": "totalYesAmount",
                  "type": "uint256"
                },
                {
                  "internalType": "uint256",
                  "name": "totalNoAmount",
                  "type": "uint256"
                },
                {
                  "internalType": "bool",
                  "name": "resolved",
                  "type": "bool"
                },
                {
                  "internalType": "bool",
                  "name": "outcome",
                  "type": "bool"
                },
                {
                  "internalType": "address",
                  "name": "creator",
                  "type": "address"
                },
                {
                  "internalType": "uint256",
                  "name": "createdAt",
                  "type": "uint256"
                }
              ],
              "internalType": "struct PredictionMarket.Market",
              "name": "",
              "type": "tuple"
            }
          ],
          "stateMutability": "view",
          "type": "function"
        },
        {
          "inputs": [
            {
              "internalType": "uint256",
              "name": "_marketId",
              "type": "uint256"
            }
          ],
          "name": "getMarketBettors",
          "outputs": [
            {
              "internalType": "address[]",
              "name": "",
              "type": "address[]"
            }
          ],
          "stateMutability": "view",
          "type": "function"
        },
        {
          "inputs": [
            {
              "internalType": "uint256",
              "name": "_marketId",
              "type": "uint256"
            }
          ],
          "name": "getMarketOdds",
          "outputs": [
            {
              "internalType": "uint256",
              "name": "yesPercent",
              "type": "uint256"
            },
            {
              "internalType": "uint256",
              "name": "noPercent",
              "type": "uint256"
            }
          ],
          "stateMutability": "view",
          "type": "function"
        },
        {
          "inputs": [
            {
              "internalType": "uint256",
              "name": "_marketId",
              "type": "uint256"
            }
          ],
          "name": "getTotalPool",
          "outputs": [
            {
              "internalType": "uint256",
              "name": "",
              "type": "uint256"
            }
          ],
          "stateMutability": "view",
          "type": "function"
        },
        {
          "inputs": [
            {
              "internalType": "address",
              "name": "_user",
              "type": "address"
            }
          ],
          "name": "getUserMarkets",
          "outputs": [
            {
              "internalType": "uint256[]",
              "name": "",
              "type": "uint256[]"
            }
          ],
          "stateMutability": "view",
          "type": "function"
        },
        {
          "inputs": [
            {
              "internalType": "uint256",
              "name": "",
              "type": "uint256"
            },
            {
              "internalType": "uint256",
              "name": "",
              "type": "uint256"
            }
          ],
          "name": "marketBettors",
          "outputs": [
            {
              "internalType": "address",
              "name": "",
              "type": "address"
            }
          ],
          "stateMutability": "view",
          "type": "function"
        },
        {
          "inputs": [],
          "name": "marketCount",
          "outputs": [
            {
              "internalType": "uint256",
              "name": "",
              "type": "uint256"
            }
          ],
          "stateMutability": "view",
          "type": "function"
        },
        {
          "inputs": [
            {
              "internalType": "uint256",
              "name": "",
              "type": "uint256"
            }
          ],
          "name": "markets",
          "outputs": [
            {
              "internalType": "uint256",
              "name": "id",
              "type": "uint256"
            },
            {
              "internalType": "string",
              "name": "question",
              "type": "string"
            },
            {
              "internalType": "string",
              "name": "imageURI",
              "type": "string"
            },
            {
              "internalType": "string",
              "name": "category",
              "type": "string"
            },
            {
              "internalType": "uint256",
              "name": "endTime",
              "type": "uint256"
            },
            {
              "internalType": "uint256",
              "name": "totalYesAmount",
              "type": "uint256"
            },
            {
              "internalType": "uint256",
              "name": "totalNoAmount",
              "type": "uint256"
            },
            {
              "internalType": "bool",
              "name": "resolved",
              "type": "bool"
            },
            {
              "internalType": "bool",
              "name": "outcome",
              "type": "bool"
            },
            {
              "internalType": "address",
              "name": "creator",
              "type": "address"
            },
            {
              "internalType": "uint256",
              "name": "createdAt",
              "type": "uint256"
            }
          ],
          "stateMutability": "view",
          "type": "function"
        },
        {
          "inputs": [],
          "name": "owner",
          "outputs": [
            {
              "internalType": "address",
              "name": "",
              "type": "address"
            }
          ],
          "stateMutability": "view",
          "type": "function"
        },
        {
          "inputs": [
            {
              "internalType": "uint256",
              "name": "_marketId",
              "type": "uint256"
            },
            {
              "internalType": "bool",
              "name": "_position",
              "type": "bool"
            }
          ],
          "name": "placeBet",
          "outputs": [],
          "stateMutability": "payable",
          "type": "function"
        },
        {
          "inputs": [],
          "name": "platformFeePercent",
          "outputs": [
            {
              "internalType": "uint256",
              "name": "",
              "type": "uint256"
            }
          ],
          "stateMutability": "view",
          "type": "function"
        },
        {
          "inputs": [
            {
              "internalType": "uint256",
              "name": "_marketId",
              "type": "uint256"
            },
            {
              "internalType": "bool",
              "name": "_outcome",
              "type": "bool"
            }
          ],
          "name": "resolveMarket",
          "outputs": [],
          "stateMutability": "nonpayable",
          "type": "function"
        },
        {
          "inputs": [],
          "name": "resolver",
          "outputs": [
            {
              "internalType": "address",
              "name": "",
              "type": "address"
            }
          ],
          "stateMutability": "view",
          "type": "function"
        },
        {
          "inputs": [
            {
              "internalType": "uint256",
              "name": "_feePercent",
              "type": "uint256"
            }
          ],
          "name": "setFeePercent",
          "outputs": [],
          "stateMutability": "nonpayable",
          "type": "function"
        },
        {
          "inputs": [
            {
              "internalType": "address",
              "name": "_resolver",
              "type": "address"
            }
          ],
          "name": "setResolver",
          "outputs": [],
          "stateMutability": "nonpayable",
          "type": "function"
        },
        {
          "inputs": [],
          "name": "totalFeesCollected",
          "outputs": [
            {
              "internalType": "uint256",
              "name": "",
              "type": "uint256"
            }
          ],
          "stateMutability": "view",
          "type": "function"
        },
        {
          "inputs": [
            {
              "internalType": "address",
              "name": "_newOwner",
              "type": "address"
            }
          ],
          "name": "transferOwnership",
          "outputs": [],
          "stateMutability": "nonpayable",
          "type": "function"
        },
        {
          "inputs": [
            {
              "internalType": "address",
              "name": "",
              "type": "address"
            },
            {
              "internalType": "uint256",
              "name": "",
              "type": "uint256"
            }
          ],
          "name": "userMarkets",
          "outputs": [
            {
              "internalType": "uint256",
              "name": "",
              "type": "uint256"
            }
          ],
          "stateMutability": "view",
          "type": "function"
        },
        {
          "inputs": [
            {
              "internalType": "address",
              "name": "",
              "type": "address"
            }
          ],
          "name": "userTotalBets",
          "outputs": [
            {
              "internalType": "uint256",
              "name": "",
              "type": "uint256"
            }
          ],
          "stateMutability": "view",
          "type": "function"
        },
        {
          "inputs": [
            {
              "internalType": "address",
              "name": "",
              "type": "address"
            }
          ],
          "name": "userTotalWinnings",
          "outputs": [
            {
              "internalType": "uint256",
              "name": "",
              "type": "uint256"
            }
          ],
          "stateMutability": "view",
          "type": "function"
        },
        {
          "inputs": [
            {
              "internalType": "address",
              "name": "_to",
              "type": "address"
            }
          ],
          "name": "withdrawFees",
          "outputs": [],
          "stateMutability": "nonpayable",
          "type": "function"
        },
        {
          "stateMutability": "payable",
          "type": "receive"
        }
      ],
      "evm": {
        "bytecode": {
          "linkReferences": {},
          "object": "608080604052346100375760c860035560018060a01b03193381600054161760005533906001541617600155611c33908161003d8239f35b600080fdfe608080604052600436101561001d575b50361561001b57600080fd5b005b60003560e01c90816304f3bcec1461178e5750806308857442146117545780630b501ab81461169c578063164e68de146115dc57806326e12752146115b25780633a35b9bd146115745780634e543b261461152357806357bde4461461137857806360c6d8ae1461135a578063677bd9ff1461113457806376e0040614610afd5780637b6e1f9a14610ac35780637ce3489b14610a585780638c639a8514610a3a5780638da5cb5b14610a115780639ed9c74d14610723578063b1283e7714610636578063bc063e1a14610619578063da4473d814610565578063db0f871d1461050d578063e053bcec146104bb578063e0950ddf14610419578063eb44fdd314610252578063ec97908214610234578063f2fde38b146101b25763f644b3bb14610148573861000f565b346101ad5760403660031901126101ad576101616117c8565b600435600052600660205260406000209060018060a01b03166000526020526060604060002060ff600182549201546040519283528181161515602084015260081c1615156040820152f35b600080fd5b346101ad5760203660031901126101ad576101cb6117b2565b600054906001600160a01b03906101e533838516146119d3565b169081156101fd576001600160a01b03191617600055005b60405162461bcd60e51b815260206004820152600f60248201526e496e76616c6964206164647265737360881b6044820152606490fd5b346101ad5760003660031901126101ad576020600254604051908152f35b346101ad5760203660031901126101ad57600061014060405161027481611865565b82815260606020820152606060408201526060808201528260808201528260a08201528260c08201528260e082015282610100820152826101208201520152600435600052600560205260406000206008604051916102d283611865565b805483526102e2600182016118c0565b60208401526102f3600282016118c0565b6040840152610304600382016118c0565b606084015260048101546080840152600581015460a0840152600681015460c0840152600781015460ff8116151560e085015260ff81841c16151561010085015260018060a01b039060101c166101208401520154610140820152604051809160208252805160208301526101406103c161039060208401516101606040870152610180860190611965565b6103ac604085015191601f199283888303016060890152611965565b90606085015190868303016080870152611965565b91608081015160a085015260a081015160c085015260c081015160e085015260e08101511515610100850152610100810151151561012085015260018060a01b03610120820151168285015201516101608301520390f35b346101ad5760403660031901126101ad576104326117c8565b60006040805161044181611882565b8281528260208201520152600435600052600660205260406000209060018060a01b03166000526020526060604060002060405161047e81611882565b600182549283835201549060ff6040602083019282851615158452019260081c161515825260405192835251151560208301525115156040820152f35b346101ad5760403660031901126101ad576024356004356000526007602052604060002080548210156101ad576020916104f4916119a5565b905460405160039290921b1c6001600160a01b03168152f35b346101ad5760403660031901126101ad576105266117b2565b6001600160a01b03166000908152600860205260409020805460243591908210156101ad57602091610557916119a5565b90546040519160031b1c8152f35b346101ad576020806003193601126101ad576001600160a01b036105876117b2565b1660005260088152604060002060405190818382549182815201908192600052846000209060005b868282106106055786866105c58288038361189e565b604051928392818401908285525180915260408401929160005b8281106105ee57505050500390f35b8351855286955093810193928101926001016105df565b8354855290930192600192830192016105af565b346101ad5760003660031901126101ad5760206040516103e88152f35b346101ad5760203660031901126101ad57600435600052600560205260406000208054610665600183016118c0565b91610672600282016118c0565b61067e600383016118c0565b9160048101549260058201546106db6006840154926106cd60086007870154960154966106bf6040519b8c809c6020610160928392815201528c0190611965565b908a820360408c0152611965565b9088820360608a0152611965565b608087019590955260a086015260c085015260ff818116151560e0860152600882901c16151561010085015260101c6001600160a01b03166101208401526101408301520390f35b61072c366117de565b9061073a6002548210611b61565b80600052602060058152604060002060048101544210156109d95760ff6007820154166109945734156109565782600052600682526040600020336000528252604060002054610911576107f760405161079381611882565b3481528381019086151582526107e06001604083019260008452886000526006885260406000203360005288526040600020905181550192511515839060ff801983541691151516179055565b51815461ff00191690151560081b61ff0016179055565b83156108fc5760050161080b348254611a95565b90555b81600052600781526040600020908154916801000000000000000092838110156108e657610841916001820181556119a5565b81549060031b9033821b9160018060a01b03901b1916179055336000526008815260406000208054928310156108e65782610883916001600a950181556119a5565b81549060031b9085821b91600019901b1916179055336000525260406000206108ad348254611a95565b905560408051921515835234602084015233927f4af71b021e799c62c158bd54636ca8da2fa26115a21a2dc6efe486ec104fd15f9190a3005b634e487b7160e01b600052604160045260246000fd5b60060161090a348254611a95565b905561080e565b60405162461bcd60e51b815260048101839052601a60248201527f416c726561647920626574206f6e2074686973206d61726b65740000000000006044820152606490fd5b60405162461bcd60e51b8152600481018390526016602482015275042657420616d6f756e74206d757374206265203e20360541b6044820152606490fd5b60405162461bcd60e51b815260048101839052601760248201527f4d61726b657420616c7265616479207265736f6c7665640000000000000000006044820152606490fd5b60405162461bcd60e51b815260048101839052601060248201526f13585c9ad95d081a185cc8195b99195960821b6044820152606490fd5b346101ad5760003660031901126101ad576000546040516001600160a01b039091168152602090f35b346101ad5760003660031901126101ad576020600354604051908152f35b346101ad5760203660031901126101ad57600435610a8160018060a01b036000541633146119d3565b6103e88111610a8f57600355005b60405162461bcd60e51b815260206004820152600c60248201526b08ccaca40e8dede40d0d2ced60a31b6044820152606490fd5b346101ad5760203660031901126101ad576001600160a01b03610ae46117b2565b16600052600a6020526020604060002054604051908152f35b346101ad5760803660031901126101ad5760043567ffffffffffffffff81116101ad57610b2e9036906004016117fd565b9060243567ffffffffffffffff81116101ad57610b4f9036906004016117fd565b92909160443567ffffffffffffffff81116101ad57610b729036906004016117fd565b9190944260643511156110ef5783156110aa57610bb36002549560405192610b9984611865565b878452610ba7368887611ba5565b60208501523691611ba5565b6040820152610bc3368488611ba5565b60608201526064356080820152600060a0820152600060c0820152600060e08201526000610100820152336101208201524261014082015284600052600560205260406000209080518255602081015180519067ffffffffffffffff82116108e6578190610c34600186015461182b565b601f8111611057575b50602090601f8311600114610fe557600092610fda575b50508160011b916000199060031b1c19161760018301555b604081015180519067ffffffffffffffff82116108e6578190610c92600286015461182b565b601f8111610f87575b50602090601f8311600114610f1557600092610f0a575b50508160011b916000199060031b1c19161760028301555b606081015180519067ffffffffffffffff82116108e657610cee600385015461182b565b601f8111610ec3575b50602090601f8311600114610e4d5791806008949261014094600092610e42575b50508160011b916000199060031b1c19161760038501555b6080810151600485015560a0810151600585015560c0810151600685015560078401610d6e60e08301511515829060ff801983541691151516179055565b610100820151815461ff00191690151560081b61ff0016178155610120820151815462010000600160b01b03191660109190911b62010000600160b01b03161790550151910155600254906000198214610e2c576020958593610e08610e159360017f52105760953315619bb79834bd5f30e171e178d6354e6ced3fc3ba13a79c6f50960160025560405197606089526060890191611bdc565b9186830389880152611bdc565b9260643560408201528033940390a3604051908152f35b634e487b7160e01b600052601160045260246000fd5b015190508b80610d18565b906003850160005260206000209160005b601f1985168110610eab575092600894926001926101409583601f19811610610e92575b505050811b016003850155610d30565b015160001960f88460031b161c191690558b8080610e82565b91926020600181928685015181550194019201610e5e565b600385016000526020600020601f840160051c810160208510610f03575b601f830160051c82018110610ef7575050610cf7565b60008155600101610ee1565b5080610ee1565b015190508980610cb2565b9250600285016000526020600020906000935b601f1984168510610f6c576001945083601f19811610610f53575b505050811b016002830155610cca565b015160001960f88460031b161c19169055898080610f43565b81810151835560209485019460019093019290910190610f28565b909150600285016000526020600020601f840160051c810160208510610fd3575b90849392915b601f830160051c82018110610fc4575050610c9b565b60008155859450600101610fae565b5080610fa8565b015190508980610c54565b9250600185016000526020600020906000935b601f198416851061103c576001945083601f19811610611023575b505050811b016001830155610c6c565b015160001960f88460031b161c19169055898080611013565b81810151835560209485019460019093019290910190610ff8565b909150600185016000526020600020601f840160051c8101602085106110a3575b90849392915b601f830160051c82018110611094575050610c3d565b6000815585945060010161107e565b5080611078565b60405162461bcd60e51b815260206004820152601860248201527f5175657374696f6e2063616e6e6f7420626520656d70747900000000000000006044820152606490fd5b60405162461bcd60e51b815260206004820152601e60248201527f456e642074696d65206d75737420626520696e207468652066757475726500006044820152606490fd5b346101ad576020806003193601126101ad576004356111566002548210611b61565b8060005260058252604060002060078101805460ff81161561131f578360005260068552604060002033600052855260406000209081549182156112ea576001019081549060ff8260081c166112b35760ff9060081c16151560ff8216151503611280576101009061ff00191617905560066005840154930154916111db8385611a95565b6127106111ea60035483611aa2565b048103908111610e2c577f5380cf6fe903b40c6d5a9e0dfbca2f3a423f0a21520b4d5947ed5169bdba946d946112389460ff611233945460081c16600014611278575092611aa2565b611ab5565b9233600052600981526040600020611251858254611a95565b905561126d600080808088335af1611267611a27565b50611a57565b6040519384523393a3005b905092611aa2565b60405162461bcd60e51b815260048101889052600b60248201526a2234b2103737ba103bb4b760a91b6044820152606490fd5b60405162461bcd60e51b815260048101899052600f60248201526e105b1c9958591e4818db185a5b5959608a1b6044820152606490fd5b60405162461bcd60e51b815260048101889052600d60248201526c139bc818995d081c1b1858d959609a1b6044820152606490fd5b60405162461bcd60e51b815260048101869052601360248201527213585c9ad95d081b9bdd081c995cdbdb1d9959606a1b6044820152606490fd5b346101ad5760003660031901126101ad576020600454604051908152f35b346101ad57611386366117de565b600154336001600160a01b0391821614908115611515575b50156114d0576113b16002548310611b61565b816000526005602052604060002090600782019182549060ff8216611498576004810154421061145c5761ffff1990911682151560081b61ff0016176001179092557f6d4d544f5a6dcf38d77a232d3ef7358625c74877a1ad954fcb507872e7a05eaf91611429906006600582015491015490611a95565b9061144561271061143c60035485611aa2565b04600454611a95565b6004556040805191151582526020820192909252a2005b60405162461bcd60e51b815260206004820152601460248201527313585c9ad95d081b9bdd08195b991959081e595d60621b6044820152606490fd5b60405162461bcd60e51b815260206004820152601060248201526f105b1c9958591e481c995cdbdb1d995960821b6044820152606490fd5b60405162461bcd60e51b815260206004820152601960248201527f4e6f7420617574686f72697a656420746f207265736f6c7665000000000000006044820152606490fd5b90506000541633148361139e565b346101ad5760203660031901126101ad5761153c6117b2565b6000546001600160a01b03919061155690831633146119d3565b166bffffffffffffffffffffffff60a01b6001541617600155600080f35b346101ad5760203660031901126101ad57600435600052600560205260206115aa60406000206006600582015491015490611a95565b604051908152f35b346101ad5760203660031901126101ad5760406115d0600435611ad5565b82519182526020820152f35b346101ad5760203660031901126101ad576115f56117b2565b6000546001600160a01b039061160e90821633146119d3565b600454918215611661577fc0819c13be868895eb93e40eaceb96de976442fa1d404e5c55f14bb65a8c489a9160209160006004551692611658600080808085895af1611267611a27565b604051908152a2005b60405162461bcd60e51b81526020600482015260136024820152724e6f206665657320746f20776974686472617760681b6044820152606490fd5b346101ad576020806003193601126101ad5760043560005260078152604060002060405190818382549182815201908192600052846000209060005b868282106117375786866116ee8288038361189e565b604051928392818401908285525180915260408401929160005b82811061171757505050500390f35b83516001600160a01b031685528695509381019392810192600101611708565b83546001600160a01b0316855290930192600192830192016116d8565b346101ad5760203660031901126101ad576001600160a01b036117756117b2565b1660005260096020526020604060002054604051908152f35b346101ad5760003660031901126101ad576001546001600160a01b03168152602090f35b600435906001600160a01b03821682036101ad57565b602435906001600160a01b03821682036101ad57565b60409060031901126101ad576004359060243580151581036101ad5790565b9181601f840112156101ad5782359167ffffffffffffffff83116101ad57602083818601950101116101ad57565b90600182811c9216801561185b575b602083101461184557565b634e487b7160e01b600052602260045260246000fd5b91607f169161183a565b610160810190811067ffffffffffffffff8211176108e657604052565b6060810190811067ffffffffffffffff8211176108e657604052565b90601f8019910116810190811067ffffffffffffffff8211176108e657604052565b906040519182600082546118d38161182b565b908184526020946001916001811690816000146119435750600114611904575b5050506119029250038361189e565b565b600090815285812095935091905b81831061192b57505061190293508201013880806118f3565b85548884018501529485019487945091830191611912565b9250505061190294925060ff191682840152151560051b8201013880806118f3565b919082519283825260005b848110611991575050826000602080949584010152601f8019910116010190565b602081830181015184830182015201611970565b80548210156119bd5760005260206000200190600090565b634e487b7160e01b600052603260045260246000fd5b156119da57565b60405162461bcd60e51b81526020600482015260096024820152682737ba1037bbb732b960b91b6044820152606490fd5b67ffffffffffffffff81116108e657601f01601f191660200190565b3d15611a52573d90611a3882611a0b565b91611a46604051938461189e565b82523d6000602084013e565b606090565b15611a5e57565b60405162461bcd60e51b815260206004820152600f60248201526e151c985b9cd9995c8819985a5b1959608a1b6044820152606490fd5b91908201809211610e2c57565b81810292918115918404141715610e2c57565b8115611abf570490565b634e487b7160e01b600052601260045260246000fd5b906000918252600560205260408220611af76006600583015492015482611a95565b908115611b5557606481029080820460641490151715611b415790611b1b91611ab5565b91826064039060648211611b2d575090565b634e487b7160e01b81526011600452602490fd5b634e487b7160e01b84526011600452602484fd5b50509050603290603290565b15611b6857565b60405162461bcd60e51b815260206004820152601560248201527413585c9ad95d08191bd95cc81b9bdd08195e1a5cdd605a1b6044820152606490fd5b929192611bb182611a0b565b91611bbf604051938461189e565b8294818452818301116101ad578281602093846000960137010152565b908060209392818452848401376000828201840152601f01601f191601019056fea2646970667358221220f00e2119771986fc93cabdba60d18aa0978a0db10a8c7e6d7debac8ac65879fd64736f6c63430008180033",
          "opcodes": "PUSH1 0x80 DUP1 PUSH1 0x40 MSTORE CALLVALUE PUSH2 0x37 JUMPI PUSH1 0xC8 PUSH1 0x3 SSTORE PUSH1 0x1 DUP1 PUSH1 0xA0 SHL SUB NOT CALLER DUP2 PUSH1 0x0 SLOAD AND OR PUSH1 0x0 SSTORE CALLER SWAP1 PUSH1 0x1 SLOAD AND OR PUSH1 0x1 SSTORE PUSH2 0x1C33 SWAP1 DUP2 PUSH2 0x3D DUP3 CODECOPY RETURN JUMPDEST PUSH1 0x0 DUP1 REVERT INVALID PUSH1 0x80 DUP1 PUSH1 0x40 MSTORE PUSH1 0x4 CALLDATASIZE LT ISZERO PUSH2 0x1D JUMPI JUMPDEST POP CALLDATASIZE ISZERO PUSH2 0x1B JUMPI PUSH1 0x0 DUP1 REVERT JUMPDEST STOP JUMPDEST PUSH1 0x0 CALLDATALOAD PUSH1 0xE0 SHR SWAP1 DUP2 PUSH4 0x4F3BCEC EQ PUSH2 0x178E JUMPI POP DUP1 PUSH4 0x8857442 EQ PUSH2 0x1754 JUMPI DUP1 PUSH4 0xB501AB8 EQ PUSH2 0x169C JUMPI DUP1 PUSH4 0x164E68DE EQ PUSH2 0x15DC JUMPI DUP1 PUSH4 0x26E12752 EQ PUSH2 0x15B2 JUMPI DUP1 PUSH4 0x3A35B9BD EQ PUSH2 0x1574 JUMPI DUP1 PUSH4 0x4E543B26 EQ PUSH2 0x1523 JUMPI DUP1 PUSH4 0x57BDE446 EQ PUSH2 0x1378 JUMPI DUP1 PUSH4 0x60C6D8AE EQ PUSH2 0x135A JUMPI DUP1 PUSH4 0x677BD9FF EQ PUSH2 0x1134 JUMPI DUP1 PUSH4 0x76E00406 EQ PUSH2 0xAFD JUMPI DUP1 PUSH4 0x7B6E1F9A EQ PUSH2 0xAC3 JUMPI DUP1 PUSH4 0x7CE3489B EQ PUSH2 0xA58 JUMPI DUP1 PUSH4 0x8C639A85 EQ PUSH2 0xA3A JUMPI DUP1 PUSH4 0x8DA5CB5B EQ PUSH2 0xA11 JUMPI DUP1 PUSH4 0x9ED9C74D EQ PUSH2 0x723 JUMPI DUP1 PUSH4 0xB1283E77 EQ PUSH2 0x636 JUMPI DUP1 PUSH4 0xBC063E1A EQ PUSH2 0x619 JUMPI DUP1 PUSH4 0xDA4473D8 EQ PUSH2 0x565 JUMPI DUP1 PUSH4 0xDB0F871D EQ PUSH2 0x50D JUMPI DUP1 PUSH4 0xE053BCEC EQ PUSH2 0x4BB JUMPI DUP1 PUSH4 0xE0950DDF EQ PUSH2 0x419 JUMPI DUP1 PUSH4 0xEB44FDD3 EQ PUSH2 0x252 JUMPI DUP1 PUSH4 0xEC979082 EQ PUSH2 0x234 JUMPI DUP1 PUSH4 0xF2FDE38B EQ PUSH2 0x1B2 JUMPI PUSH4 0xF644B3BB EQ PUSH2 0x148 JUMPI CODESIZE PUSH2 0xF JUMP JUMPDEST CALLVALUE PUSH2 0x1AD JUMPI PUSH1 0x40 CALLDATASIZE PUSH1 0x3 NOT ADD SLT PUSH2 0x1AD JUMPI PUSH2 0x161 PUSH2 0x17C8 JUMP JUMPDEST PUSH1 0x4 CALLDATALOAD PUSH1 0x0 MSTORE PUSH1 0x6 PUSH1 0x20 MSTORE PUSH1 0x40 PUSH1 0x0 KECCAK256 SWAP1 PUSH1 0x1 DUP1 PUSH1 0xA0 SHL SUB AND PUSH1 0x0 MSTORE PUSH1 0x20 MSTORE PUSH1 0x60 PUSH1 0x40 PUSH1 0x0 KECCAK256 PUSH1 0xFF PUSH1 0x1 DUP3 SLOAD SWAP3 ADD SLOAD PUSH1 0x40 MLOAD SWAP3 DUP4 MSTORE DUP2 DUP2 AND ISZERO ISZERO PUSH1 0x20 DUP5 ADD MSTORE PUSH1 0x8 SHR AND ISZERO ISZERO PUSH1 0x40 DUP3 ADD MSTORE RETURN JUMPDEST PUSH1 0x0 DUP1 REVERT JUMPDEST CALLVALUE PUSH2 0x1AD JUMPI PUSH1 0x20 CALLDATASIZE PUSH1 0x3 NOT ADD SLT PUSH2 0x1AD JUMPI PUSH2 0x1CB PUSH2 0x17B2 JUMP JUMPDEST PUSH1 0x0 SLOAD SWAP1 PUSH1 0x1 PUSH1 0x1 PUSH1 0xA0 SHL SUB SWAP1 PUSH2 0x1E5 CALLER DUP4 DUP6 AND EQ PUSH2 0x19D3 JUMP JUMPDEST AND SWAP1 DUP2 ISZERO PUSH2 0x1FD JUMPI PUSH1 0x1 PUSH1 0x1 PUSH1 0xA0 SHL SUB NOT AND OR PUSH1 0x0 SSTORE STOP JUMPDEST PUSH1 0x40 MLOAD PUSH3 0x461BCD PUSH1 0xE5 SHL DUP2 MSTORE PUSH1 0x20 PUSH1 0x4 DUP3 ADD MSTORE PUSH1 0xF PUSH1 0x24 DUP3 ADD MSTORE PUSH15 0x496E76616C69642061646472657373 PUSH1 0x88 SHL PUSH1 0x44 DUP3 ADD MSTORE PUSH1 0x64 SWAP1 REVERT JUMPDEST CALLVALUE PUSH2 0x1AD JUMPI PUSH1 0x0 CALLDATASIZE PUSH1 0x3 NOT ADD SLT PUSH2 0x1AD JUMPI PUSH1 0x20 PUSH1 0x2 SLOAD PUSH1 0x40 MLOAD SWAP1 DUP2 MSTORE RETURN JUMPDEST CALLVALUE PUSH2 0x1AD JUMPI PUSH1 0x20 CALLDATASIZE PUSH1 0x3 NOT ADD SLT PUSH2 0x1AD JUMPI PUSH1 0x0 PUSH2 0x140 PUSH1 0x40 MLOAD PUSH2 0x274 DUP2 PUSH2 0x1865 JUMP JUMPDEST DUP3 DUP2 MSTORE PUSH1 0x60 PUSH1 0x20 DUP3 ADD MSTORE PUSH1 0x60 PUSH1 0x40 DUP3 ADD MSTORE PUSH1 0x60 DUP1 DUP3 ADD MSTORE DUP3 PUSH1 0x80 DUP3 ADD MSTORE DUP3 PUSH1 0xA0 DUP3 ADD MSTORE DUP3 PUSH1 0xC0 DUP3 ADD MSTORE DUP3 PUSH1 0xE0 DUP3 ADD MSTORE DUP3 PUSH2 0x100 DUP3 ADD MSTORE DUP3 PUSH2 0x120 DUP3 ADD MSTORE ADD MSTORE PUSH1 0x4 CALLDATALOAD PUSH1 0x0 MSTORE PUSH1 0x5 PUSH1 0x20 MSTORE PUSH1 0x40 PUSH1 0x0 KECCAK256 PUSH1 0x8 PUSH1 0x40 MLOAD SWAP2 PUSH2 0x2D2 DUP4 PUSH2 0x1865 JUMP JUMPDEST DUP1 SLOAD DUP4 MSTORE PUSH2 0x2E2 PUSH1 0x1 DUP3 ADD PUSH2 0x18C0 JUMP JUMPDEST PUSH1 0x20 DUP5 ADD MSTORE PUSH2 0x2F3 PUSH1 0x2 DUP3 ADD PUSH2 0x18C0 JUMP JUMPDEST PUSH1 0x40 DUP5 ADD MSTORE PUSH2 0x304 PUSH1 0x3 DUP3 ADD PUSH2 0x18C0 JUMP JUMPDEST PUSH1 0x60 DUP5 ADD MSTORE PUSH1 0x4 DUP2 ADD SLOAD PUSH1 0x80 DUP5 ADD MSTORE PUSH1 0x5 DUP2 ADD SLOAD PUSH1 0xA0 DUP5 ADD MSTORE PUSH1 0x6 DUP2 ADD SLOAD PUSH1 0xC0 DUP5 ADD MSTORE PUSH1 0x7 DUP2 ADD SLOAD PUSH1 0xFF DUP2 AND ISZERO ISZERO PUSH1 0xE0 DUP6 ADD MSTORE PUSH1 0xFF DUP2 DUP5 SHR AND ISZERO ISZERO PUSH2 0x100 DUP6 ADD MSTORE PUSH1 0x1 DUP1 PUSH1 0xA0 SHL SUB SWAP1 PUSH1 0x10 SHR AND PUSH2 0x120 DUP5 ADD MSTORE ADD SLOAD PUSH2 0x140 DUP3 ADD MSTORE PUSH1 0x40 MLOAD DUP1 SWAP2 PUSH1 0x20 DUP3 MSTORE DUP1 MLOAD PUSH1 0x20 DUP4 ADD MSTORE PUSH2 0x140 PUSH2 0x3C1 PUSH2 0x390 PUSH1 0x20 DUP5 ADD MLOAD PUSH2 0x160 PUSH1 0x40 DUP8 ADD MSTORE PUSH2 0x180 DUP7 ADD SWAP1 PUSH2 0x1965 JUMP JUMPDEST PUSH2 0x3AC PUSH1 0x40 DUP6 ADD MLOAD SWAP2 PUSH1 0x1F NOT SWAP3 DUP4 DUP9 DUP4 SUB ADD PUSH1 0x60 DUP10 ADD MSTORE PUSH2 0x1965 JUMP JUMPDEST SWAP1 PUSH1 0x60 DUP6 ADD MLOAD SWAP1 DUP7 DUP4 SUB ADD PUSH1 0x80 DUP8 ADD MSTORE PUSH2 0x1965 JUMP JUMPDEST SWAP2 PUSH1 0x80 DUP2 ADD MLOAD PUSH1 0xA0 DUP6 ADD MSTORE PUSH1 0xA0 DUP2 ADD MLOAD PUSH1 0xC0 DUP6 ADD MSTORE PUSH1 0xC0 DUP2 ADD MLOAD PUSH1 0xE0 DUP6 ADD MSTORE PUSH1 0xE0 DUP2 ADD MLOAD ISZERO ISZERO PUSH2 0x100 DUP6 ADD MSTORE PUSH2 0x100 DUP2 ADD MLOAD ISZERO ISZERO PUSH2 0x120 DUP6 ADD MSTORE PUSH1 0x1 DUP1 PUSH1 0xA0 SHL SUB PUSH2 0x120 DUP3 ADD MLOAD AND DUP3 DUP6 ADD MSTORE ADD MLOAD PUSH2 0x160 DUP4 ADD MSTORE SUB SWAP1 RETURN JUMPDEST CALLVALUE PUSH2 0x1AD JUMPI PUSH1 0x40 CALLDATASIZE PUSH1 0x3 NOT ADD SLT PUSH2 0x1AD JUMPI PUSH2 0x432 PUSH2 0x17C8 JUMP JUMPDEST PUSH1 0x0 PUSH1 0x40 DUP1 MLOAD PUSH2 0x441 DUP2 PUSH2 0x1882 JUMP JUMPDEST DUP3 DUP2 MSTORE DUP3 PUSH1 0x20 DUP3 ADD MSTORE ADD MSTORE PUSH1 0x4 CALLDATALOAD PUSH1 0x0 MSTORE PUSH1 0x6 PUSH1 0x20 MSTORE PUSH1 0x40 PUSH1 0x0 KECCAK256 SWAP1 PUSH1 0x1 DUP1 PUSH1 0xA0 SHL SUB AND PUSH1 0x0 MSTORE PUSH1 0x20 MSTORE PUSH1 0x60 PUSH1 0x40 PUSH1 0x0 KECCAK256 PUSH1 0x40 MLOAD PUSH2 0x47E DUP2 PUSH2 0x1882 JUMP JUMPDEST PUSH1 0x1 DUP3 SLOAD SWAP3 DUP4 DUP4 MSTORE ADD SLOAD SWAP1 PUSH1 0xFF PUSH1 0x40 PUSH1 0x20 DUP4 ADD SWAP3 DUP3 DUP6 AND ISZERO ISZERO DUP5 MSTORE ADD SWAP3 PUSH1 0x8 SHR AND ISZERO ISZERO DUP3 MSTORE PUSH1 0x40 MLOAD SWAP3 DUP4 MSTORE MLOAD ISZERO ISZERO PUSH1 0x20 DUP4 ADD MSTORE MLOAD ISZERO ISZERO PUSH1 0x40 DUP3 ADD MSTORE RETURN JUMPDEST CALLVALUE PUSH2 0x1AD JUMPI PUSH1 0x40 CALLDATASIZE PUSH1 0x3 NOT ADD SLT PUSH2 0x1AD JUMPI PUSH1 0x24 CALLDATALOAD PUSH1 0x4 CALLDATALOAD PUSH1 0x0 MSTORE PUSH1 0x7 PUSH1 0x20 MSTORE PUSH1 0x40 PUSH1 0x0 KECCAK256 DUP1 SLOAD DUP3 LT ISZERO PUSH2 0x1AD JUMPI PUSH1 0x20 SWAP2 PUSH2 0x4F4 SWAP2 PUSH2 0x19A5 JUMP JUMPDEST SWAP1 SLOAD PUSH1 0x40 MLOAD PUSH1 0x3 SWAP3 SWAP1 SWAP3 SHL SHR PUSH1 0x1 PUSH1 0x1 PUSH1 0xA0 SHL SUB AND DUP2 MSTORE RETURN JUMPDEST CALLVALUE PUSH2 0x1AD JUMPI PUSH1 0x40 CALLDATASIZE PUSH1 0x3 NOT ADD SLT PUSH2 0x1AD JUMPI PUSH2 0x526 PUSH2 0x17B2 JUMP JUMPDEST PUSH1 0x1 PUSH1 0x1 PUSH1 0xA0 SHL SUB AND PUSH1 0x0 SWAP1 DUP2 MSTORE PUSH1 0x8 PUSH1 0x20 MSTORE PUSH1 0x40 SWAP1 KECCAK256 DUP1 SLOAD PUSH1 0x24 CALLDATALOAD SWAP2 SWAP1 DUP3 LT ISZERO PUSH2 0x1AD JUMPI PUSH1 0x20 SWAP2 PUSH2 0x557 SWAP2 PUSH2 0x19A5 JUMP JUMPDEST SWAP1 SLOAD PUSH1 0x40 MLOAD SWAP2 PUSH1 0x3 SHL SHR DUP2 MSTORE RETURN JUMPDEST CALLVALUE PUSH2 0x1AD JUMPI PUSH1 0x20 DUP1 PUSH1 0x3 NOT CALLDATASIZE ADD SLT PUSH2 0x1AD JUMPI PUSH1 0x1 PUSH1 0x1 PUSH1 0xA0 SHL SUB PUSH2 0x587 PUSH2 0x17B2 JUMP JUMPDEST AND PUSH1 0x0 MSTORE PUSH1 0x8 DUP2 MSTORE PUSH1 0x40 PUSH1 0x0 KECCAK256 PUSH1 0x40 MLOAD SWAP1 DUP2 DUP4 DUP3 SLOAD SWAP2 DUP3 DUP2 MSTORE ADD SWAP1 DUP2 SWAP3 PUSH1 0x0 MSTORE DUP5 PUSH1 0x0 KECCAK256 SWAP1 PUSH1 0x0 JUMPDEST DUP7 DUP3 DUP3 LT PUSH2 0x605 JUMPI DUP7 DUP7 PUSH2 0x5C5 DUP3 DUP9 SUB DUP4 PUSH2 0x189E JUMP JUMPDEST PUSH1 0x40 MLOAD SWAP3 DUP4 SWAP3 DUP2 DUP5 ADD SWAP1 DUP3 DUP6 MSTORE MLOAD DUP1 SWAP2 MSTORE PUSH1 0x40 DUP5 ADD SWAP3 SWAP2 PUSH1 0x0 JUMPDEST DUP3 DUP2 LT PUSH2 0x5EE JUMPI POP POP POP POP SUB SWAP1 RETURN JUMPDEST DUP4 MLOAD DUP6 MSTORE DUP7 SWAP6 POP SWAP4 DUP2 ADD SWAP4 SWAP3 DUP2 ADD SWAP3 PUSH1 0x1 ADD PUSH2 0x5DF JUMP JUMPDEST DUP4 SLOAD DUP6 MSTORE SWAP1 SWAP4 ADD SWAP3 PUSH1 0x1 SWAP3 DUP4 ADD SWAP3 ADD PUSH2 0x5AF JUMP JUMPDEST CALLVALUE PUSH2 0x1AD JUMPI PUSH1 0x0 CALLDATASIZE PUSH1 0x3 NOT ADD SLT PUSH2 0x1AD JUMPI PUSH1 0x20 PUSH1 0x40 MLOAD PUSH2 0x3E8 DUP2 MSTORE RETURN JUMPDEST CALLVALUE PUSH2 0x1AD JUMPI PUSH1 0x20 CALLDATASIZE PUSH1 0x3 NOT ADD SLT PUSH2 0x1AD JUMPI PUSH1 0x4 CALLDATALOAD PUSH1 0x0 MSTORE PUSH1 0x5 PUSH1 0x20 MSTORE PUSH1 0x40 PUSH1 0x0 KECCAK256 DUP1 SLOAD PUSH2 0x665 PUSH1 0x1 DUP4 ADD PUSH2 0x18C0 JUMP JUMPDEST SWAP2 PUSH2 0x672 PUSH1 0x2 DUP3 ADD PUSH2 0x18C0 JUMP JUMPDEST PUSH2 0x67E PUSH1 0x3 DUP4 ADD PUSH2 0x18C0 JUMP JUMPDEST SWAP2 PUSH1 0x4 DUP2 ADD SLOAD SWAP3 PUSH1 0x5 DUP3 ADD SLOAD PUSH2 0x6DB PUSH1 0x6 DUP5 ADD SLOAD SWAP3 PUSH2 0x6CD PUSH1 0x8 PUSH1 0x7 DUP8 ADD SLOAD SWAP7 ADD SLOAD SWAP7 PUSH2 0x6BF PUSH1 0x40 MLOAD SWAP12 DUP13 DUP1 SWAP13 PUSH1 0x20 PUSH2 0x160 SWAP3 DUP4 SWAP3 DUP2 MSTORE ADD MSTORE DUP13 ADD SWAP1 PUSH2 0x1965 JUMP JUMPDEST SWAP1 DUP11 DUP3 SUB PUSH1 0x40 DUP13 ADD MSTORE PUSH2 0x1965 JUMP JUMPDEST SWAP1 DUP9 DUP3 SUB PUSH1 0x60 DUP11 ADD MSTORE PUSH2 0x1965 JUMP JUMPDEST PUSH1 0x80 DUP8 ADD SWAP6 SWAP1 SWAP6 MSTORE PUSH1 0xA0 DUP7 ADD MSTORE PUSH1 0xC0 DUP6 ADD MSTORE PUSH1 0xFF DUP2 DUP2 AND ISZERO ISZERO PUSH1 0xE0 DUP7 ADD MSTORE PUSH1 0x8 DUP3 SWAP1 SHR AND ISZERO ISZERO PUSH2 0x100 DUP6 ADD MSTORE PUSH1 0x10 SHR PUSH1 0x1 PUSH1 0x1 PUSH1 0xA0 SHL SUB AND PUSH2 0x120 DUP5 ADD MSTORE PUSH2 0x140 DUP4 ADD MSTORE SUB SWAP1 RETURN JUMPDEST PUSH2 0x72C CALLDATASIZE PUSH2 0x17DE JUMP JUMPDEST SWAP1 PUSH2 0x73A PUSH1 0x2 SLOAD DUP3 LT PUSH2 0x1B61 JUMP JUMPDEST DUP1 PUSH1 0x0 MSTORE PUSH1 0x20 PUSH1 0x5 DUP2 MSTORE PUSH1 0x40 PUSH1 0x0 KECCAK256 PUSH1 0x4 DUP2 ADD SLOAD TIMESTAMP LT ISZERO PUSH2 0x9D9 JUMPI PUSH1 0xFF PUSH1 0x7 DUP3 ADD SLOAD AND PUSH2 0x994 JUMPI CALLVALUE ISZERO PUSH2 0x956 JUMPI DUP3 PUSH1 0x0 MSTORE PUSH1 0x6 DUP3 MSTORE PUSH1 0x40 PUSH1 0x0 KECCAK256 CALLER PUSH1 0x0 MSTORE DUP3 MSTORE PUSH1 0x40 PUSH1 0x0 KECCAK256 SLOAD PUSH2 0x911 JUMPI PUSH2 0x7F7 PUSH1 0x40 MLOAD PUSH2 0x793 DUP2 PUSH2 0x1882 JUMP JUMPDEST CALLVALUE DUP2 MSTORE DUP4 DUP2 ADD SWAP1 DUP7 ISZERO ISZERO DUP3 MSTORE PUSH2 0x7E0 PUSH1 0x1 PUSH1 0x40 DUP4 ADD SWAP3 PUSH1 0x0 DUP5 MSTORE DUP9 PUSH1 0x0 MSTORE PUSH1 0x6 DUP9 MSTORE PUSH1 0x40 PUSH1 0x0 KECCAK256 CALLER PUSH1 0x0 MSTORE DUP9 MSTORE PUSH1 0x40 PUSH1 0x0 KECCAK256 SWAP1 MLOAD DUP2 SSTORE ADD SWAP3 MLOAD ISZERO ISZERO DUP4 SWAP1 PUSH1 0xFF DUP1 NOT DUP4 SLOAD AND SWAP2 ISZERO ISZERO AND OR SWAP1 SSTORE JUMP JUMPDEST MLOAD DUP2 SLOAD PUSH2 0xFF00 NOT AND SWAP1 ISZERO ISZERO PUSH1 0x8 SHL PUSH2 0xFF00 AND OR SWAP1 SSTORE JUMP JUMPDEST DUP4 ISZERO PUSH2 0x8FC JUMPI PUSH1 0x5 ADD PUSH2 0x80B CALLVALUE DUP3 SLOAD PUSH2 0x1A95 JUMP JUMPDEST SWAP1 SSTORE JUMPDEST DUP2 PUSH1 0x0 MSTORE PUSH1 0x7 DUP2 MSTORE PUSH1 0x40 PUSH1 0x0 KECCAK256 SWAP1 DUP2 SLOAD SWAP2 PUSH9 0x10000000000000000 SWAP3 DUP4 DUP2 LT ISZERO PUSH2 0x8E6 JUMPI PUSH2 0x841 SWAP2 PUSH1 0x1 DUP3 ADD DUP2 SSTORE PUSH2 0x19A5 JUMP JUMPDEST DUP2 SLOAD SWAP1 PUSH1 0x3 SHL SWAP1 CALLER DUP3 SHL SWAP2 PUSH1 0x1 DUP1 PUSH1 0xA0 SHL SUB SWAP1 SHL NOT AND OR SWAP1 SSTORE CALLER PUSH1 0x0 MSTORE PUSH1 0x8 DUP2 MSTORE PUSH1 0x40 PUSH1 0x0 KECCAK256 DUP1 SLOAD SWAP3 DUP4 LT ISZERO PUSH2 0x8E6 JUMPI DUP3 PUSH2 0x883 SWAP2 PUSH1 0x1 PUSH1 0xA SWAP6 ADD DUP2 SSTORE PUSH2 0x19A5 JUMP JUMPDEST DUP2 SLOAD SWAP1 PUSH1 0x3 SHL SWAP1 DUP6 DUP3 SHL SWAP2 PUSH1 0x0 NOT SWAP1 SHL NOT AND OR SWAP1 SSTORE CALLER PUSH1 0x0 MSTORE MSTORE PUSH1 0x40 PUSH1 0x0 KECCAK256 PUSH2 0x8AD CALLVALUE DUP3 SLOAD PUSH2 0x1A95 JUMP JUMPDEST SWAP1 SSTORE PUSH1 0x40 DUP1 MLOAD SWAP3 ISZERO ISZERO DUP4 MSTORE CALLVALUE PUSH1 0x20 DUP5 ADD MSTORE CALLER SWAP3 PUSH32 0x4AF71B021E799C62C158BD54636CA8DA2FA26115A21A2DC6EFE486EC104FD15F SWAP2 SWAP1 LOG3 STOP JUMPDEST PUSH4 0x4E487B71 PUSH1 0xE0 SHL PUSH1 0x0 MSTORE PUSH1 0x41 PUSH1 0x4 MSTORE PUSH1 0x24 PUSH1 0x0 REVERT JUMPDEST PUSH1 0x6 ADD PUSH2 0x90A CALLVALUE DUP3 SLOAD PUSH2 0x1A95 JUMP JUMPDEST SWAP1 SSTORE PUSH2 0x80E JUMP JUMPDEST PUSH1 0x40 MLOAD PUSH3 0x461BCD PUSH1 0xE5 SHL DUP2 MSTORE PUSH1 0x4 DUP2 ADD DUP4 SWAP1 MSTORE PUSH1 0x1A PUSH1 0x24 DUP3 ADD MSTORE PUSH32 0x416C726561647920626574206F6E2074686973206D61726B6574000000000000 PUSH1 0x44 DUP3 ADD MSTORE PUSH1 0x64 SWAP1 REVERT JUMPDEST PUSH1 0x40 MLOAD PUSH3 0x461BCD PUSH1 0xE5 SHL DUP2 MSTORE PUSH1 0x4 DUP2 ADD DUP4 SWAP1 MSTORE PUSH1 0x16 PUSH1 0x24 DUP3 ADD MSTORE PUSH22 0x42657420616D6F756E74206D757374206265203E203 PUSH1 0x54 SHL PUSH1 0x44 DUP3 ADD MSTORE PUSH1 0x64 SWAP1 REVERT JUMPDEST PUSH1 0x40 MLOAD PUSH3 0x461BCD PUSH1 0xE5 SHL DUP2 MSTORE PUSH1 0x4 DUP2 ADD DUP4 SWAP1 MSTORE PUSH1 0x17 PUSH1 0x24 DUP3 ADD MSTORE PUSH32 0x4D61726B657420616C7265616479207265736F6C766564000000000000000000 PUSH1 0x44 DUP3 ADD MSTORE PUSH1 0x64 SWAP1 REVERT JUMPDEST PUSH1 0x40 MLOAD PUSH3 0x461BCD PUSH1 0xE5 SHL DUP2 MSTORE PUSH1 0x4 DUP2 ADD DUP4 SWAP1 MSTORE PUSH1 0x10 PUSH1 0x24 DUP3 ADD MSTORE PUSH16 0x13585C9AD95D081A185CC8195B991959 PUSH1 0x82 SHL PUSH1 0x44 DUP3 ADD MSTORE PUSH1 0x64 SWAP1 REVERT JUMPDEST CALLVALUE PUSH2 0x1AD JUMPI PUSH1 0x0 CALLDATASIZE PUSH1 0x3 NOT ADD SLT PUSH2 0x1AD JUMPI PUSH1 0x0 SLOAD PUSH1 0x40 MLOAD PUSH1 0x1 PUSH1 0x1 PUSH1 0xA0 SHL SUB SWAP1 SWAP2 AND DUP2 MSTORE PUSH1 0x20 SWAP1 RETURN JUMPDEST CALLVALUE PUSH2 0x1AD JUMPI PUSH1 0x0 CALLDATASIZE PUSH1 0x3 NOT ADD SLT PUSH2 0x1AD JUMPI PUSH1 0x20 PUSH1 0x3 SLOAD PUSH1 0x40 MLOAD SWAP1 DUP2 MSTORE RETURN JUMPDEST CALLVALUE PUSH2 0x1AD JUMPI PUSH1 0x20 CALLDATASIZE PUSH1 0x3 NOT ADD SLT PUSH2 0x1AD JUMPI PUSH1 0x4 CALLDATALOAD PUSH2 0xA81 PUSH1 0x1 DUP1 PUSH1 0xA0 SHL SUB PUSH1 0x0 SLOAD AND CALLER EQ PUSH2 0x19D3 JUMP JUMPDEST PUSH2 0x3E8 DUP2 GT PUSH2 0xA8F JUMPI PUSH1 0x3 SSTORE STOP JUMPDEST PUSH1 0x40 MLOAD PUSH3 0x461BCD PUSH1 0xE5 SHL DUP2 MSTORE PUSH1 0x20 PUSH1 0x4 DUP3 ADD MSTORE PUSH1 0xC PUSH1 0x24 DUP3 ADD MSTORE PUSH12 0x8CCACA40E8DEDE40D0D2CED PUSH1 0xA3 SHL PUSH1 0x44 DUP3 ADD MSTORE PUSH1 0x64 SWAP1 REVERT JUMPDEST CALLVALUE PUSH2 0x1AD JUMPI PUSH1 0x20 CALLDATASIZE PUSH1 0x3 NOT ADD SLT PUSH2 0x1AD JUMPI PUSH1 0x1 PUSH1 0x1 PUSH1 0xA0 SHL SUB PUSH2 0xAE4 PUSH2 0x17B2 JUMP JUMPDEST AND PUSH1 0x0 MSTORE PUSH1 0xA PUSH1 0x20 MSTORE PUSH1 0x20 PUSH1 0x40 PUSH1 0x0 KECCAK256 SLOAD PUSH1 0x40 MLOAD SWAP1 DUP2 MSTORE RETURN JUMPDEST CALLVALUE PUSH2 0x1AD JUMPI PUSH1 0x80 CALLDATASIZE PUSH1 0x3 NOT ADD SLT PUSH2 0x1AD JUMPI PUSH1 0x4 CALLDATALOAD PUSH8 0xFFFFFFFFFFFFFFFF DUP2 GT PUSH2 0x1AD JUMPI PUSH2 0xB2E SWAP1 CALLDATASIZE SWAP1 PUSH1 0x4 ADD PUSH2 0x17FD JUMP JUMPDEST SWAP1 PUSH1 0x24 CALLDATALOAD PUSH8 0xFFFFFFFFFFFFFFFF DUP2 GT PUSH2 0x1AD JUMPI PUSH2 0xB4F SWAP1 CALLDATASIZE SWAP1 PUSH1 0x4 ADD PUSH2 0x17FD JUMP JUMPDEST SWAP3 SWAP1 SWAP2 PUSH1 0x44 CALLDATALOAD PUSH8 0xFFFFFFFFFFFFFFFF DUP2 GT PUSH2 0x1AD JUMPI PUSH2 0xB72 SWAP1 CALLDATASIZE SWAP1 PUSH1 0x4 ADD PUSH2 0x17FD JUMP JUMPDEST SWAP2 SWAP1 SWAP5 TIMESTAMP PUSH1 0x64 CALLDATALOAD GT ISZERO PUSH2 0x10EF JUMPI DUP4 ISZERO PUSH2 0x10AA JUMPI PUSH2 0xBB3 PUSH1 0x2 SLOAD SWAP6 PUSH1 0x40 MLOAD SWAP3 PUSH2 0xB99 DUP5 PUSH2 0x1865 JUMP JUMPDEST DUP8 DUP5 MSTORE PUSH2 0xBA7 CALLDATASIZE DUP9 DUP8 PUSH2 0x1BA5 JUMP JUMPDEST PUSH1 0x20 DUP6 ADD MSTORE CALLDATASIZE SWAP2 PUSH2 0x1BA5 JUMP JUMPDEST PUSH1 0x40 DUP3 ADD MSTORE PUSH2 0xBC3 CALLDATASIZE DUP5 DUP9 PUSH2 0x1BA5 JUMP JUMPDEST PUSH1 0x60 DUP3 ADD MSTORE PUSH1 0x64 CALLDATALOAD PUSH1 0x80 DUP3 ADD MSTORE PUSH1 0x0 PUSH1 0xA0 DUP3 ADD MSTORE PUSH1 0x0 PUSH1 0xC0 DUP3 ADD MSTORE PUSH1 0x0 PUSH1 0xE0 DUP3 ADD MSTORE PUSH1 0x0 PUSH2 0x100 DUP3 ADD MSTORE CALLER PUSH2 0x120 DUP3 ADD MSTORE TIMESTAMP PUSH2 0x140 DUP3 ADD MSTORE DUP5 PUSH1 0x0 MSTORE PUSH1 0x5 PUSH1 0x20 MSTORE PUSH1 0x40 PUSH1 0x0 KECCAK256 SWAP1 DUP1 MLOAD DUP3 SSTORE PUSH1 0x20 DUP2 ADD MLOAD DUP1 MLOAD SWAP1 PUSH8 0xFFFFFFFFFFFFFFFF DUP3 GT PUSH2 0x8E6 JUMPI DUP2 SWAP1 PUSH2 0xC34 PUSH1 0x1 DUP7 ADD SLOAD PUSH2 0x182B JUMP JUMPDEST PUSH1 0x1F DUP2 GT PUSH2 0x1057 JUMPI JUMPDEST POP PUSH1 0x20 SWAP1 PUSH1 0x1F DUP4 GT PUSH1 0x1 EQ PUSH2 0xFE5 JUMPI PUSH1 0x0 SWAP3 PUSH2 0xFDA JUMPI JUMPDEST POP POP DUP2 PUSH1 0x1 SHL SWAP2 PUSH1 0x0 NOT SWAP1 PUSH1 0x3 SHL SHR NOT AND OR PUSH1 0x1 DUP4 ADD SSTORE JUMPDEST PUSH1 0x40 DUP2 ADD MLOAD DUP1 MLOAD SWAP1 PUSH8 0xFFFFFFFFFFFFFFFF DUP3 GT PUSH2 0x8E6 JUMPI DUP2 SWAP1 PUSH2 0xC92 PUSH1 0x2 DUP7 ADD SLOAD PUSH2 0x182B JUMP JUMPDEST PUSH1 0x1F DUP2 GT PUSH2 0xF87 JUMPI JUMPDEST POP PUSH1 0x20 SWAP1 PUSH1 0x1F DUP4 GT PUSH1 0x1 EQ PUSH2 0xF15 JUMPI PUSH1 0x0 SWAP3 PUSH2 0xF0A JUMPI JUMPDEST POP POP DUP2 PUSH1 0x1 SHL SWAP2 PUSH1 0x0 NOT SWAP1 PUSH1 0x3 SHL SHR NOT AND OR PUSH1 0x2 DUP4 ADD SSTORE JUMPDEST PUSH1 0x60 DUP2 ADD MLOAD DUP1 MLOAD SWAP1 PUSH8 0xFFFFFFFFFFFFFFFF DUP3 GT PUSH2 0x8E6 JUMPI PUSH2 0xCEE PUSH1 0x3 DUP6 ADD SLOAD PUSH2 0x182B JUMP JUMPDEST PUSH1 0x1F DUP2 GT PUSH2 0xEC3 JUMPI JUMPDEST POP PUSH1 0x20 SWAP1 PUSH1 0x1F DUP4 GT PUSH1 0x1 EQ PUSH2 0xE4D JUMPI SWAP2 DUP1 PUSH1 0x8 SWAP5 SWAP3 PUSH2 0x140 SWAP5 PUSH1 0x0 SWAP3 PUSH2 0xE42 JUMPI JUMPDEST POP POP DUP2 PUSH1 0x1 SHL SWAP2 PUSH1 0x0 NOT SWAP1 PUSH1 0x3 SHL SHR NOT AND OR PUSH1 0x3 DUP6 ADD SSTORE JUMPDEST PUSH1 0x80 DUP2 ADD MLOAD PUSH1 0x4 DUP6 ADD SSTORE PUSH1 0xA0 DUP2 ADD MLOAD PUSH1 0x5 DUP6 ADD SSTORE PUSH1 0xC0 DUP2 ADD MLOAD PUSH1 0x6 DUP6 ADD SSTORE PUSH1 0x7 DUP5 ADD PUSH2 0xD6E PUSH1 0xE0 DUP4 ADD MLOAD ISZERO ISZERO DUP3 SWAP1 PUSH1 0xFF DUP1 NOT DUP4 SLOAD AND SWAP2 ISZERO ISZERO AND OR SWAP1 SSTORE JUMP JUMPDEST PUSH2 0x100 DUP3 ADD MLOAD DUP2 SLOAD PUSH2 0xFF00 NOT AND SWAP1 ISZERO ISZERO PUSH1 0x8 SHL PUSH2 0xFF00 AND OR DUP2 SSTORE PUSH2 0x120 DUP3 ADD MLOAD DUP2 SLOAD PUSH3 0x10000 PUSH1 0x1 PUSH1 0xB0 SHL SUB NOT AND PUSH1 0x10 SWAP2 SWAP1 SWAP2 SHL PUSH3 0x10000 PUSH1 0x1 PUSH1 0xB0 SHL SUB AND OR SWAP1 SSTORE ADD MLOAD SWAP2 ADD SSTORE PUSH1 0x2 SLOAD SWAP1 PUSH1 0x0 NOT DUP3 EQ PUSH2 0xE2C JUMPI PUSH1 0x20 SWAP6 DUP6 SWAP4 PUSH2 0xE08 PUSH2 0xE15 SWAP4 PUSH1 0x1 PUSH32 0x52105760953315619BB79834BD5F30E171E178D6354E6CED3FC3BA13A79C6F50 SWAP7 ADD PUSH1 0x2 SSTORE PUSH1 0x40 MLOAD SWAP8 PUSH1 0x60 DUP10 MSTORE PUSH1 0x60 DUP10 ADD SWAP2 PUSH2 0x1BDC JUMP JUMPDEST SWAP2 DUP7 DUP4 SUB DUP10 DUP9 ADD MSTORE PUSH2 0x1BDC JUMP JUMPDEST SWAP3 PUSH1 0x64 CALLDATALOAD PUSH1 0x40 DUP3 ADD MSTORE DUP1 CALLER SWAP5 SUB SWAP1 LOG3 PUSH1 0x40 MLOAD SWAP1 DUP2 MSTORE RETURN JUMPDEST PUSH4 0x4E487B71 PUSH1 0xE0 SHL PUSH1 0x0 MSTORE PUSH1 0x11 PUSH1 0x4 MSTORE PUSH1 0x24 PUSH1 0x0 REVERT JUMPDEST ADD MLOAD SWAP1 POP DUP12 DUP1 PUSH2 0xD18 JUMP JUMPDEST SWAP1 PUSH1 0x3 DUP6 ADD PUSH1 0x0 MSTORE PUSH1 0x20 PUSH1 0x0 KECCAK256 SWAP2 PUSH1 0x0 JUMPDEST PUSH1 0x1F NOT DUP6 AND DUP2 LT PUSH2 0xEAB JUMPI POP SWAP3 PUSH1 0x8 SWAP5 SWAP3 PUSH1 0x1 SWAP3 PUSH2 0x140 SWAP6 DUP4 PUSH1 0x1F NOT DUP2 AND LT PUSH2 0xE92 JUMPI JUMPDEST POP POP POP DUP2 SHL ADD PUSH1 0x3 DUP6 ADD SSTORE PUSH2 0xD30 JUMP JUMPDEST ADD MLOAD PUSH1 0x0 NOT PUSH1 0xF8 DUP5 PUSH1 0x3 SHL AND SHR NOT AND SWAP1 SSTORE DUP12 DUP1 DUP1 PUSH2 0xE82 JUMP JUMPDEST SWAP2 SWAP3 PUSH1 0x20 PUSH1 0x1 DUP2 SWAP3 DUP7 DUP6 ADD MLOAD DUP2 SSTORE ADD SWAP5 ADD SWAP3 ADD PUSH2 0xE5E JUMP JUMPDEST PUSH1 0x3 DUP6 ADD PUSH1 0x0 MSTORE PUSH1 0x20 PUSH1 0x0 KECCAK256 PUSH1 0x1F DUP5 ADD PUSH1 0x5 SHR DUP2 ADD PUSH1 0x20 DUP6 LT PUSH2 0xF03 JUMPI JUMPDEST PUSH1 0x1F DUP4 ADD PUSH1 0x5 SHR DUP3 ADD DUP2 LT PUSH2 0xEF7 JUMPI POP POP PUSH2 0xCF7 JUMP JUMPDEST PUSH1 0x0 DUP2 SSTORE PUSH1 0x1 ADD PUSH2 0xEE1 JUMP JUMPDEST POP DUP1 PUSH2 0xEE1 JUMP JUMPDEST ADD MLOAD SWAP1 POP DUP10 DUP1 PUSH2 0xCB2 JUMP JUMPDEST SWAP3 POP PUSH1 0x2 DUP6 ADD PUSH1 0x0 MSTORE PUSH1 0x20 PUSH1 0x0 KECCAK256 SWAP1 PUSH1 0x0 SWAP4 JUMPDEST PUSH1 0x1F NOT DUP5 AND DUP6 LT PUSH2 0xF6C JUMPI PUSH1 0x1 SWAP5 POP DUP4 PUSH1 0x1F NOT DUP2 AND LT PUSH2 0xF53 JUMPI JUMPDEST POP POP POP DUP2 SHL ADD PUSH1 0x2 DUP4 ADD SSTORE PUSH2 0xCCA JUMP JUMPDEST ADD MLOAD PUSH1 0x0 NOT PUSH1 0xF8 DUP5 PUSH1 0x3 SHL AND SHR NOT AND SWAP1 SSTORE DUP10 DUP1 DUP1 PUSH2 0xF43 JUMP JUMPDEST DUP2 DUP2 ADD MLOAD DUP4 SSTORE PUSH1 0x20 SWAP5 DUP6 ADD SWAP5 PUSH1 0x1 SWAP1 SWAP4 ADD SWAP3 SWAP1 SWAP2 ADD SWAP1 PUSH2 0xF28 JUMP JUMPDEST SWAP1 SWAP2 POP PUSH1 0x2 DUP6 ADD PUSH1 0x0 MSTORE PUSH1 0x20 PUSH1 0x0 KECCAK256 PUSH1 0x1F DUP5 ADD PUSH1 0x5 SHR DUP2 ADD PUSH1 0x20 DUP6 LT PUSH2 0xFD3 JUMPI JUMPDEST SWAP1 DUP5 SWAP4 SWAP3 SWAP2 JUMPDEST PUSH1 0x1F DUP4 ADD PUSH1 0x5 SHR DUP3 ADD DUP2 LT PUSH2 0xFC4 JUMPI POP POP PUSH2 0xC9B JUMP JUMPDEST PUSH1 0x0 DUP2 SSTORE DUP6 SWAP5 POP PUSH1 0x1 ADD PUSH2 0xFAE JUMP JUMPDEST POP DUP1 PUSH2 0xFA8 JUMP JUMPDEST ADD MLOAD SWAP1 POP DUP10 DUP1 PUSH2 0xC54 JUMP JUMPDEST SWAP3 POP PUSH1 0x1 DUP6 ADD PUSH1 0x0 MSTORE PUSH1 0x20 PUSH1 0x0 KECCAK256 SWAP1 PUSH1 0x0 SWAP4 JUMPDEST PUSH1 0x1F NOT DUP5 AND DUP6 LT PUSH2 0x103C JUMPI PUSH1 0x1 SWAP5 POP DUP4 PUSH1 0x1F NOT DUP2 AND LT PUSH2 0x1023 JUMPI JUMPDEST POP POP POP DUP2 SHL ADD PUSH1 0x1 DUP4 ADD SSTORE PUSH2 0xC6C JUMP JUMPDEST ADD MLOAD PUSH1 0x0 NOT PUSH1 0xF8 DUP5 PUSH1 0x3 SHL AND SHR NOT AND SWAP1 SSTORE DUP10 DUP1 DUP1 PUSH2 0x1013 JUMP JUMPDEST DUP2 DUP2 ADD MLOAD DUP4 SSTORE PUSH1 0x20 SWAP5 DUP6 ADD SWAP5 PUSH1 0x1 SWAP1 SWAP4 ADD SWAP3 SWAP1 SWAP2 ADD SWAP1 PUSH2 0xFF8 JUMP JUMPDEST SWAP1 SWAP2 POP PUSH1 0x1 DUP6 ADD PUSH1 0x0 MSTORE PUSH1 0x20 PUSH1 0x0 KECCAK256 PUSH1 0x1F DUP5 ADD PUSH1 0x5 SHR DUP2 ADD PUSH1 0x20 DUP6 LT PUSH2 0x10A3 JUMPI JUMPDEST SWAP1 DUP5 SWAP4 SWAP3 SWAP2 JUMPDEST PUSH1 0x1F DUP4 ADD PUSH1 0x5 SHR DUP3 ADD DUP2 LT PUSH2 0x1094 JUMPI POP POP PUSH2 0xC3D JUMP JUMPDEST PUSH1 0x0 DUP2 SSTORE DUP6 SWAP5 POP PUSH1 0x1 ADD PUSH2 0x107E JUMP JUMPDEST POP DUP1 PUSH2 0x1078 JUMP JUMPDEST PUSH1 0x40 MLOAD PUSH3 0x461BCD PUSH1 0xE5 SHL DUP2 MSTORE PUSH1 0x20 PUSH1 0x4 DUP3 ADD MSTORE PUSH1 0x18 PUSH1 0x24 DUP3 ADD MSTORE PUSH32 0x5175657374696F6E2063616E6E6F7420626520656D7074790000000000000000 PUSH1 0x44 DUP3 ADD MSTORE PUSH1 0x64 SWAP1 REVERT JUMPDEST PUSH1 0x40 MLOAD PUSH3 0x461BCD PUSH1 0xE5 SHL DUP2 MSTORE PUSH1 0x20 PUSH1 0x4 DUP3 ADD MSTORE PUSH1 0x1E PUSH1 0x24 DUP3 ADD MSTORE PUSH32 0x456E642074696D65206D75737420626520696E20746865206675747572650000 PUSH1 0x44 DUP3 ADD MSTORE PUSH1 0x64 SWAP1 REVERT JUMPDEST CALLVALUE PUSH2 0x1AD JUMPI PUSH1 0x20 DUP1 PUSH1 0x3 NOT CALLDATASIZE ADD SLT PUSH2 0x1AD JUMPI PUSH1 0x4 CALLDATALOAD PUSH2 0x1156 PUSH1 0x2 SLOAD DUP3 LT PUSH2 0x1B61 JUMP JUMPDEST DUP1 PUSH1 0x0 MSTORE PUSH1 0x5 DUP3 MSTORE PUSH1 0x40 PUSH1 0x0 KECCAK256 PUSH1 0x7 DUP2 ADD DUP1 SLOAD PUSH1 0xFF DUP2 AND ISZERO PUSH2 0x131F JUMPI DUP4 PUSH1 0x0 MSTORE PUSH1 0x6 DUP6 MSTORE PUSH1 0x40 PUSH1 0x0 KECCAK256 CALLER PUSH1 0x0 MSTORE DUP6 MSTORE PUSH1 0x40 PUSH1 0x0 KECCAK256 SWAP1 DUP2 SLOAD SWAP2 DUP3 ISZERO PUSH2 0x12EA JUMPI PUSH1 0x1 ADD SWAP1 DUP2 SLOAD SWAP1 PUSH1 0xFF DUP3 PUSH1 0x8 SHR AND PUSH2 0x12B3 JUMPI PUSH1 0xFF SWAP1 PUSH1 0x8 SHR AND ISZERO ISZERO PUSH1 0xFF DUP3 AND ISZERO ISZERO SUB PUSH2 0x1280 JUMPI PUSH2 0x100 SWAP1 PUSH2 0xFF00 NOT AND OR SWAP1 SSTORE PUSH1 0x6 PUSH1 0x5 DUP5 ADD SLOAD SWAP4 ADD SLOAD SWAP2 PUSH2 0x11DB DUP4 DUP6 PUSH2 0x1A95 JUMP JUMPDEST PUSH2 0x2710 PUSH2 0x11EA PUSH1 0x3 SLOAD DUP4 PUSH2 0x1AA2 JUMP JUMPDEST DIV DUP2 SUB SWAP1 DUP2 GT PUSH2 0xE2C JUMPI PUSH32 0x5380CF6FE903B40C6D5A9E0DFBCA2F3A423F0A21520B4D5947ED5169BDBA946D SWAP5 PUSH2 0x1238 SWAP5 PUSH1 0xFF PUSH2 0x1233 SWAP5 SLOAD PUSH1 0x8 SHR AND PUSH1 0x0 EQ PUSH2 0x1278 JUMPI POP SWAP3 PUSH2 0x1AA2 JUMP JUMPDEST PUSH2 0x1AB5 JUMP JUMPDEST SWAP3 CALLER PUSH1 0x0 MSTORE PUSH1 0x9 DUP2 MSTORE PUSH1 0x40 PUSH1 0x0 KECCAK256 PUSH2 0x1251 DUP6 DUP3 SLOAD PUSH2 0x1A95 JUMP JUMPDEST SWAP1 SSTORE PUSH2 0x126D PUSH1 0x0 DUP1 DUP1 DUP1 DUP9 CALLER GAS CALL PUSH2 0x1267 PUSH2 0x1A27 JUMP JUMPDEST POP PUSH2 0x1A57 JUMP JUMPDEST PUSH1 0x40 MLOAD SWAP4 DUP5 MSTORE CALLER SWAP4 LOG3 STOP JUMPDEST SWAP1 POP SWAP3 PUSH2 0x1AA2 JUMP JUMPDEST PUSH1 0x40 MLOAD PUSH3 0x461BCD PUSH1 0xE5 SHL DUP2 MSTORE PUSH1 0x4 DUP2 ADD DUP9 SWAP1 MSTORE PUSH1 0xB PUSH1 0x24 DUP3 ADD MSTORE PUSH11 0x2234B2103737BA103BB4B7 PUSH1 0xA9 SHL PUSH1 0x44 DUP3 ADD MSTORE PUSH1 0x64 SWAP1 REVERT JUMPDEST PUSH1 0x40 MLOAD PUSH3 0x461BCD PUSH1 0xE5 SHL DUP2 MSTORE PUSH1 0x4 DUP2 ADD DUP10 SWAP1 MSTORE PUSH1 0xF PUSH1 0x24 DUP3 ADD MSTORE PUSH15 0x105B1C9958591E4818DB185A5B5959 PUSH1 0x8A SHL PUSH1 0x44 DUP3 ADD MSTORE PUSH1 0x64 SWAP1 REVERT JUMPDEST PUSH1 0x40 MLOAD PUSH3 0x461BCD PUSH1 0xE5 SHL DUP2 MSTORE PUSH1 0x4 DUP2 ADD DUP9 SWAP1 MSTORE PUSH1 0xD PUSH1 0x24 DUP3 ADD MSTORE PUSH13 0x139BC818995D081C1B1858D959 PUSH1 0x9A SHL PUSH1 0x44 DUP3 ADD MSTORE PUSH1 0x64 SWAP1 REVERT JUMPDEST PUSH1 0x40 MLOAD PUSH3 0x461BCD PUSH1 0xE5 SHL DUP2 MSTORE PUSH1 0x4 DUP2 ADD DUP7 SWAP1 MSTORE PUSH1 0x13 PUSH1 0x24 DUP3 ADD MSTORE PUSH19 0x13585C9AD95D081B9BDD081C995CDBDB1D9959 PUSH1 0x6A SHL PUSH1 0x44 DUP3 ADD MSTORE PUSH1 0x64 SWAP1 REVERT JUMPDEST CALLVALUE PUSH2 0x1AD JUMPI PUSH1 0x0 CALLDATASIZE PUSH1 0x3 NOT ADD SLT PUSH2 0x1AD JUMPI PUSH1 0x20 PUSH1 0x4 SLOAD PUSH1 0x40 MLOAD SWAP1 DUP2 MSTORE RETURN JUMPDEST CALLVALUE PUSH2 0x1AD JUMPI PUSH2 0x1386 CALLDATASIZE PUSH2 0x17DE JUMP JUMPDEST PUSH1 0x1 SLOAD CALLER PUSH1 0x1 PUSH1 0x1 PUSH1 0xA0 SHL SUB SWAP2 DUP3 AND EQ SWAP1 DUP2 ISZERO PUSH2 0x1515 JUMPI JUMPDEST POP ISZERO PUSH2 0x14D0 JUMPI PUSH2 0x13B1 PUSH1 0x2 SLOAD DUP4 LT PUSH2 0x1B61 JUMP JUMPDEST DUP2 PUSH1 0x0 MSTORE PUSH1 0x5 PUSH1 0x20 MSTORE PUSH1 0x40 PUSH1 0x0 KECCAK256 SWAP1 PUSH1 0x7 DUP3 ADD SWAP2 DUP3 SLOAD SWAP1 PUSH1 0xFF DUP3 AND PUSH2 0x1498 JUMPI PUSH1 0x4 DUP2 ADD SLOAD TIMESTAMP LT PUSH2 0x145C JUMPI PUSH2 0xFFFF NOT SWAP1 SWAP2 AND DUP3 ISZERO ISZERO PUSH1 0x8 SHL PUSH2 0xFF00 AND OR PUSH1 0x1 OR SWAP1 SWAP3 SSTORE PUSH32 0x6D4D544F5A6DCF38D77A232D3EF7358625C74877A1AD954FCB507872E7A05EAF SWAP2 PUSH2 0x1429 SWAP1 PUSH1 0x6 PUSH1 0x5 DUP3 ADD SLOAD SWAP2 ADD SLOAD SWAP1 PUSH2 0x1A95 JUMP JUMPDEST SWAP1 PUSH2 0x1445 PUSH2 0x2710 PUSH2 0x143C PUSH1 0x3 SLOAD DUP6 PUSH2 0x1AA2 JUMP JUMPDEST DIV PUSH1 0x4 SLOAD PUSH2 0x1A95 JUMP JUMPDEST PUSH1 0x4 SSTORE PUSH1 0x40 DUP1 MLOAD SWAP2 ISZERO ISZERO DUP3 MSTORE PUSH1 0x20 DUP3 ADD SWAP3 SWAP1 SWAP3 MSTORE LOG2 STOP JUMPDEST PUSH1 0x40 MLOAD PUSH3 0x461BCD PUSH1 0xE5 SHL DUP2 MSTORE PUSH1 0x20 PUSH1 0x4 DUP3 ADD MSTORE PUSH1 0x14 PUSH1 0x24 DUP3 ADD MSTORE PUSH20 0x13585C9AD95D081B9BDD08195B991959081E595D PUSH1 0x62 SHL PUSH1 0x44 DUP3 ADD MSTORE PUSH1 0x64 SWAP1 REVERT JUMPDEST PUSH1 0x40 MLOAD PUSH3 0x461BCD PUSH1 0xE5 SHL DUP2 MSTORE PUSH1 0x20 PUSH1 0x4 DUP3 ADD MSTORE PUSH1 0x10 PUSH1 0x24 DUP3 ADD MSTORE PUSH16 0x105B1C9958591E481C995CDBDB1D9959 PUSH1 0x82 SHL PUSH1 0x44 DUP3 ADD MSTORE PUSH1 0x64 SWAP1 REVERT JUMPDEST PUSH1 0x40 MLOAD PUSH3 0x461BCD PUSH1 0xE5 SHL DUP2 MSTORE PUSH1 0x20 PUSH1 0x4 DUP3 ADD MSTORE PUSH1 0x19 PUSH1 0x24 DUP3 ADD MSTORE PUSH32 0x4E6F7420617574686F72697A656420746F207265736F6C766500000000000000 PUSH1 0x44 DUP3 ADD MSTORE PUSH1 0x64 SWAP1 REVERT JUMPDEST SWAP1 POP PUSH1 0x0 SLOAD AND CALLER EQ DUP4 PUSH2 0x139E JUMP JUMPDEST CALLVALUE PUSH2 0x1AD JUMPI PUSH1 0x20 CALLDATASIZE PUSH1 0x3 NOT ADD SLT PUSH2 0x1AD JUMPI PUSH2 0x153C PUSH2 0x17B2 JUMP JUMPDEST PUSH1 0x0 SLOAD PUSH1 0x1 PUSH1 0x1 PUSH1 0xA0 SHL SUB SWAP2 SWAP1 PUSH2 0x1556 SWAP1 DUP4 AND CALLER EQ PUSH2 0x19D3 JUMP JUMPDEST AND PUSH12 0xFFFFFFFFFFFFFFFFFFFFFFFF PUSH1 0xA0 SHL PUSH1 0x1 SLOAD AND OR PUSH1 0x1 SSTORE PUSH1 0x0 DUP1 RETURN JUMPDEST CALLVALUE PUSH2 0x1AD JUMPI PUSH1 0x20 CALLDATASIZE PUSH1 0x3 NOT ADD SLT PUSH2 0x1AD JUMPI PUSH1 0x4 CALLDATALOAD PUSH1 0x0 MSTORE PUSH1 0x5 PUSH1 0x20 MSTORE PUSH1 0x20 PUSH2 0x15AA PUSH1 0x40 PUSH1 0x0 KECCAK256 PUSH1 0x6 PUSH1 0x5 DUP3 ADD SLOAD SWAP2 ADD SLOAD SWAP1 PUSH2 0x1A95 JUMP JUMPDEST PUSH1 0x40 MLOAD SWAP1 DUP2 MSTORE RETURN JUMPDEST CALLVALUE PUSH2 0x1AD JUMPI PUSH1 0x20 CALLDATASIZE PUSH1 0x3 NOT ADD SLT PUSH2 0x1AD JUMPI PUSH1 0x40 PUSH2 0x15D0 PUSH1 0x4 CALLDATALOAD PUSH2 0x1AD5 JUMP JUMPDEST DUP3 MLOAD SWAP2 DUP3 MSTORE PUSH1 0x20 DUP3 ADD MSTORE RETURN JUMPDEST CALLVALUE PUSH2 0x1AD JUMPI PUSH1 0x20 CALLDATASIZE PUSH1 0x3 NOT ADD SLT PUSH2 0x1AD JUMPI PUSH2 0x15F5 PUSH2 0x17B2 JUMP JUMPDEST PUSH1 0x0 SLOAD PUSH1 0x1 PUSH1 0x1 PUSH1 0xA0 SHL SUB SWAP1 PUSH2 0x160E SWAP1 DUP3 AND CALLER EQ PUSH2 0x19D3 JUMP JUMPDEST PUSH1 0x4 SLOAD SWAP2 DUP3 ISZERO PUSH2 0x1661 JUMPI PUSH32 0xC0819C13BE868895EB93E40EACEB96DE976442FA1D404E5C55F14BB65A8C489A SWAP2 PUSH1 0x20 SWAP2 PUSH1 0x0 PUSH1 0x4 SSTORE AND SWAP3 PUSH2 0x1658 PUSH1 0x0 DUP1 DUP1 DUP1 DUP6 DUP10 GAS CALL PUSH2 0x1267 PUSH2 0x1A27 JUMP JUMPDEST PUSH1 0x40 MLOAD SWAP1 DUP2 MSTORE LOG2 STOP JUMPDEST PUSH1 0x40 MLOAD PUSH3 0x461BCD PUSH1 0xE5 SHL DUP2 MSTORE PUSH1 0x20 PUSH1 0x4 DUP3 ADD MSTORE PUSH1 0x13 PUSH1 0x24 DUP3 ADD MSTORE PUSH19 0x4E6F206665657320746F207769746864726177 PUSH1 0x68 SHL PUSH1 0x44 DUP3 ADD MSTORE PUSH1 0x64 SWAP1 REVERT JUMPDEST CALLVALUE PUSH2 0x1AD JUMPI PUSH1 0x20 DUP1 PUSH1 0x3 NOT CALLDATASIZE ADD SLT PUSH2 0x1AD JUMPI PUSH1 0x4 CALLDATALOAD PUSH1 0x0 MSTORE PUSH1 0x7 DUP2 MSTORE PUSH1 0x40 PUSH1 0x0 KECCAK256 PUSH1 0x40 MLOAD SWAP1 DUP2 DUP4 DUP3 SLOAD SWAP2 DUP3 DUP2 MSTORE ADD SWAP1 DUP2 SWAP3 PUSH1 0x0 MSTORE DUP5 PUSH1 0x0 KECCAK256 SWAP1 PUSH1 0x0 JUMPDEST DUP7 DUP3 DUP3 LT PUSH2 0x1737 JUMPI DUP7 DUP7 PUSH2 0x16EE DUP3 DUP9 SUB DUP4 PUSH2 0x189E JUMP JUMPDEST PUSH1 0x40 MLOAD SWAP3 DUP4 SWAP3 DUP2 DUP5 ADD SWAP1 DUP3 DUP6 MSTORE MLOAD DUP1 SWAP2 MSTORE PUSH1 0x40 DUP5 ADD SWAP3 SWAP2 PUSH1 0x0 JUMPDEST DUP3 DUP2 LT PUSH2 0x1717 JUMPI POP POP POP POP SUB SWAP1 RETURN JUMPDEST DUP4 MLOAD PUSH1 0x1 PUSH1 0x1 PUSH1 0xA0 SHL SUB AND DUP6 MSTORE DUP7 SWAP6 POP SWAP4 DUP2 ADD SWAP4 SWAP3 DUP2 ADD SWAP3 PUSH1 0x1 ADD PUSH2 0x1708 JUMP JUMPDEST DUP4 SLOAD PUSH1 0x1 PUSH1 0x1 PUSH1 0xA0 SHL SUB AND DUP6 MSTORE SWAP1 SWAP4 ADD SWAP3 PUSH1 0x1 SWAP3 DUP4 ADD SWAP3 ADD PUSH2 0x16D8 JUMP JUMPDEST CALLVALUE PUSH2 0x1AD JUMPI PUSH1 0x20 CALLDATASIZE PUSH1 0x3 NOT ADD SLT PUSH2 0x1AD JUMPI PUSH1 0x1 PUSH1 0x1 PUSH1 0xA0 SHL SUB PUSH2 0x1775 PUSH2 0x17B2 JUMP JUMPDEST AND PUSH1 0x0 MSTORE PUSH1 0x9 PUSH1 0x20 MSTORE PUSH1 0x20 PUSH1 0x40 PUSH1 0x0 KECCAK256 SLOAD PUSH1 0x40 MLOAD SWAP1 DUP2 MSTORE RETURN JUMPDEST CALLVALUE PUSH2 0x1AD JUMPI PUSH1 0x0 CALLDATASIZE PUSH1 0x3 NOT ADD SLT PUSH2 0x1AD JUMPI PUSH1 0x1 SLOAD PUSH1 0x1 PUSH1 0x1 PUSH1 0xA0 SHL SUB AND DUP2 MSTORE PUSH1 0x20 SWAP1 RETURN JUMPDEST PUSH1 0x4 CALLDATALOAD SWAP1 PUSH1 0x1 PUSH1 0x1 PUSH1 0xA0 SHL SUB DUP3 AND DUP3 SUB PUSH2 0x1AD JUMPI JUMP JUMPDEST PUSH1 0x24 CALLDATALOAD SWAP1 PUSH1 0x1 PUSH1 0x1 PUSH1 0xA0 SHL SUB DUP3 AND DUP3 SUB PUSH2 0x1AD JUMPI JUMP JUMPDEST PUSH1 0x40 SWAP1 PUSH1 0x3 NOT ADD SLT PUSH2 0x1AD JUMPI PUSH1 0x4 CALLDATALOAD SWAP1 PUSH1 0x24 CALLDATALOAD DUP1 ISZERO ISZERO DUP2 SUB PUSH2 0x1AD JUMPI SWAP1 JUMP JUMPDEST SWAP2 DUP2 PUSH1 0x1F DUP5 ADD SLT ISZERO PUSH2 0x1AD JUMPI DUP3 CALLDATALOAD SWAP2 PUSH8 0xFFFFFFFFFFFFFFFF DUP4 GT PUSH2 0x1AD JUMPI PUSH1 0x20 DUP4 DUP2 DUP7 ADD SWAP6 ADD ADD GT PUSH2 0x1AD JUMPI JUMP JUMPDEST SWAP1 PUSH1 0x1 DUP3 DUP2 SHR SWAP3 AND DUP1 ISZERO PUSH2 0x185B JUMPI JUMPDEST PUSH1 0x20 DUP4 LT EQ PUSH2 0x1845 JUMPI JUMP JUMPDEST PUSH4 0x4E487B71 PUSH1 0xE0 SHL PUSH1 0x0 MSTORE PUSH1 0x22 PUSH1 0x4 MSTORE PUSH1 0x24 PUSH1 0x0 REVERT JUMPDEST SWAP2 PUSH1 0x7F AND SWAP2 PUSH2 0x183A JUMP JUMPDEST PUSH2 0x160 DUP2 ADD SWAP1 DUP2 LT PUSH8 0xFFFFFFFFFFFFFFFF DUP3 GT OR PUSH2 0x8E6 JUMPI PUSH1 0x40 MSTORE JUMP JUMPDEST PUSH1 0x60 DUP2 ADD SWAP1 DUP2 LT PUSH8 0xFFFFFFFFFFFFFFFF DUP3 GT OR PUSH2 0x8E6 JUMPI PUSH1 0x40 MSTORE JUMP JUMPDEST SWAP1 PUSH1 0x1F DUP1 NOT SWAP2 ADD AND DUP2 ADD SWAP1 DUP2 LT PUSH8 0xFFFFFFFFFFFFFFFF DUP3 GT OR PUSH2 0x8E6 JUMPI PUSH1 0x40 MSTORE JUMP JUMPDEST SWAP1 PUSH1 0x40 MLOAD SWAP2 DUP3 PUSH1 0x0 DUP3 SLOAD PUSH2 0x18D3 DUP2 PUSH2 0x182B JUMP JUMPDEST SWAP1 DUP2 DUP5 MSTORE PUSH1 0x20 SWAP5 PUSH1 0x1 SWAP2 PUSH1 0x1 DUP2 AND SWAP1 DUP2 PUSH1 0x0 EQ PUSH2 0x1943 JUMPI POP PUSH1 0x1 EQ PUSH2 0x1904 JUMPI JUMPDEST POP POP POP PUSH2 0x1902 SWAP3 POP SUB DUP4 PUSH2 0x189E JUMP JUMPDEST JUMP JUMPDEST PUSH1 0x0 SWAP1 DUP2 MSTORE DUP6 DUP2 KECCAK256 SWAP6 SWAP4 POP SWAP2 SWAP1 JUMPDEST DUP2 DUP4 LT PUSH2 0x192B JUMPI POP POP PUSH2 0x1902 SWAP4 POP DUP3 ADD ADD CODESIZE DUP1 DUP1 PUSH2 0x18F3 JUMP JUMPDEST DUP6 SLOAD DUP9 DUP5 ADD DUP6 ADD MSTORE SWAP5 DUP6 ADD SWAP5 DUP8 SWAP5 POP SWAP2 DUP4 ADD SWAP2 PUSH2 0x1912 JUMP JUMPDEST SWAP3 POP POP POP PUSH2 0x1902 SWAP5 SWAP3 POP PUSH1 0xFF NOT AND DUP3 DUP5 ADD MSTORE ISZERO ISZERO PUSH1 0x5 SHL DUP3 ADD ADD CODESIZE DUP1 DUP1 PUSH2 0x18F3 JUMP JUMPDEST SWAP2 SWAP1 DUP3 MLOAD SWAP3 DUP4 DUP3 MSTORE PUSH1 0x0 JUMPDEST DUP5 DUP2 LT PUSH2 0x1991 JUMPI POP POP DUP3 PUSH1 0x0 PUSH1 0x20 DUP1 SWAP5 SWAP6 DUP5 ADD ADD MSTORE PUSH1 0x1F DUP1 NOT SWAP2 ADD AND ADD ADD SWAP1 JUMP JUMPDEST PUSH1 0x20 DUP2 DUP4 ADD DUP2 ADD MLOAD DUP5 DUP4 ADD DUP3 ADD MSTORE ADD PUSH2 0x1970 JUMP JUMPDEST DUP1 SLOAD DUP3 LT ISZERO PUSH2 0x19BD JUMPI PUSH1 0x0 MSTORE PUSH1 0x20 PUSH1 0x0 KECCAK256 ADD SWAP1 PUSH1 0x0 SWAP1 JUMP JUMPDEST PUSH4 0x4E487B71 PUSH1 0xE0 SHL PUSH1 0x0 MSTORE PUSH1 0x32 PUSH1 0x4 MSTORE PUSH1 0x24 PUSH1 0x0 REVERT JUMPDEST ISZERO PUSH2 0x19DA JUMPI JUMP JUMPDEST PUSH1 0x40 MLOAD PUSH3 0x461BCD PUSH1 0xE5 SHL DUP2 MSTORE PUSH1 0x20 PUSH1 0x4 DUP3 ADD MSTORE PUSH1 0x9 PUSH1 0x24 DUP3 ADD MSTORE PUSH9 0x2737BA1037BBB732B9 PUSH1 0xB9 SHL PUSH1 0x44 DUP3 ADD MSTORE PUSH1 0x64 SWAP1 REVERT JUMPDEST PUSH8 0xFFFFFFFFFFFFFFFF DUP2 GT PUSH2 0x8E6 JUMPI PUSH1 0x1F ADD PUSH1 0x1F NOT AND PUSH1 0x20 ADD SWAP1 JUMP JUMPDEST RETURNDATASIZE ISZERO PUSH2 0x1A52 JUMPI RETURNDATASIZE SWAP1 PUSH2 0x1A38 DUP3 PUSH2 0x1A0B JUMP JUMPDEST SWAP2 PUSH2 0x1A46 PUSH1 0x40 MLOAD SWAP4 DUP5 PUSH2 0x189E JUMP JUMPDEST DUP3 MSTORE RETURNDATASIZE PUSH1 0x0 PUSH1 0x20 DUP5 ADD RETURNDATACOPY JUMP JUMPDEST PUSH1 0x60 SWAP1 JUMP JUMPDEST ISZERO PUSH2 0x1A5E JUMPI JUMP JUMPDEST PUSH1 0x40 MLOAD PUSH3 0x461BCD PUSH1 0xE5 SHL DUP2 MSTORE PUSH1 0x20 PUSH1 0x4 DUP3 ADD MSTORE PUSH1 0xF PUSH1 0x24 DUP3 ADD MSTORE PUSH15 0x151C985B9CD9995C8819985A5B1959 PUSH1 0x8A SHL PUSH1 0x44 DUP3 ADD MSTORE PUSH1 0x64 SWAP1 REVERT JUMPDEST SWAP2 SWAP1 DUP3 ADD DUP1 SWAP3 GT PUSH2 0xE2C JUMPI JUMP JUMPDEST DUP2 DUP2 MUL SWAP3 SWAP2 DUP2 ISZERO SWAP2 DUP5 DIV EQ OR ISZERO PUSH2 0xE2C JUMPI JUMP JUMPDEST DUP2 ISZERO PUSH2 0x1ABF JUMPI DIV SWAP1 JUMP JUMPDEST PUSH4 0x4E487B71 PUSH1 0xE0 SHL PUSH1 0x0 MSTORE PUSH1 0x12 PUSH1 0x4 MSTORE PUSH1 0x24 PUSH1 0x0 REVERT JUMPDEST SWAP1 PUSH1 0x0 SWAP2 DUP3 MSTORE PUSH1 0x5 PUSH1 0x20 MSTORE PUSH1 0x40 DUP3 KECCAK256 PUSH2 0x1AF7 PUSH1 0x6 PUSH1 0x5 DUP4 ADD SLOAD SWAP3 ADD SLOAD DUP3 PUSH2 0x1A95 JUMP JUMPDEST SWAP1 DUP2 ISZERO PUSH2 0x1B55 JUMPI PUSH1 0x64 DUP2 MUL SWAP1 DUP1 DUP3 DIV PUSH1 0x64 EQ SWAP1 ISZERO OR ISZERO PUSH2 0x1B41 JUMPI SWAP1 PUSH2 0x1B1B SWAP2 PUSH2 0x1AB5 JUMP JUMPDEST SWAP2 DUP3 PUSH1 0x64 SUB SWAP1 PUSH1 0x64 DUP3 GT PUSH2 0x1B2D JUMPI POP SWAP1 JUMP JUMPDEST PUSH4 0x4E487B71 PUSH1 0xE0 SHL DUP2 MSTORE PUSH1 0x11 PUSH1 0x4 MSTORE PUSH1 0x24 SWAP1 REVERT JUMPDEST PUSH4 0x4E487B71 PUSH1 0xE0 SHL DUP5 MSTORE PUSH1 0x11 PUSH1 0x4 MSTORE PUSH1 0x24 DUP5 REVERT JUMPDEST POP POP SWAP1 POP PUSH1 0x32 SWAP1 PUSH1 0x32 SWAP1 JUMP JUMPDEST ISZERO PUSH2 0x1B68 JUMPI JUMP JUMPDEST PUSH1 0x40 MLOAD PUSH3 0x461BCD PUSH1 0xE5 SHL DUP2 MSTORE PUSH1 0x20 PUSH1 0x4 DUP3 ADD MSTORE PUSH1 0x15 PUSH1 0x24 DUP3 ADD MSTORE PUSH21 0x13585C9AD95D08191BD95CC81B9BDD08195E1A5CDD PUSH1 0x5A SHL PUSH1 0x44 DUP3 ADD MSTORE PUSH1 0x64 SWAP1 REVERT JUMPDEST SWAP3 SWAP2 SWAP3 PUSH2 0x1BB1 DUP3 PUSH2 0x1A0B JUMP JUMPDEST SWAP2 PUSH2 0x1BBF PUSH1 0x40 MLOAD SWAP4 DUP5 PUSH2 0x189E JUMP JUMPDEST DUP3 SWAP5 DUP2 DUP5 MSTORE DUP2 DUP4 ADD GT PUSH2 0x1AD JUMPI DUP3 DUP2 PUSH1 0x20 SWAP4 DUP5 PUSH1 0x0 SWAP7 ADD CALLDATACOPY ADD ADD MSTORE JUMP JUMPDEST SWAP1 DUP1 PUSH1 0x20 SWAP4 SWAP3 DUP2 DUP5 MSTORE DUP5 DUP5 ADD CALLDATACOPY PUSH1 0x0 DUP3 DUP3 ADD DUP5 ADD MSTORE PUSH1 0x1F ADD PUSH1 0x1F NOT AND ADD ADD SWAP1 JUMP INVALID LOG2 PUSH5 0x6970667358 0x22 SLT KECCAK256 CREATE 0xE 0x21 NOT PUSH24 0x1986FC93CABDBA60D18AA0978A0DB10A8C7E6D7DEBAC8AC6 PC PUSH26 0xFD64736F6C634300081800330000000000000000000000000000 "
        },
        "methodIdentifiers": {
          "MAX_FEE()": "bc063e1a",
          "bets(uint256,address)": "f644b3bb",
          "claimWinnings(uint256)": "677bd9ff",
          "createMarket(string,string,string,uint256)": "76e00406",
          "getBet(uint256,address)": "e0950ddf",
          "getMarket(uint256)": "eb44fdd3",
          "getMarketBettors(uint256)": "0b501ab8",
          "getMarketOdds(uint256)": "26e12752",
          "getTotalPool(uint256)": "3a35b9bd",
          "getUserMarkets(address)": "da4473d8",
          "marketBettors(uint256,uint256)": "e053bcec",
          "marketCount()": "ec979082",
          "markets(uint256)": "b1283e77",
          "owner()": "8da5cb5b",
          "placeBet(uint256,bool)": "9ed9c74d",
          "platformFeePercent()": "8c639a85",
          "resolveMarket(uint256,bool)": "57bde446",
          "resolver()": "04f3bcec",
          "setFeePercent(uint256)": "7ce3489b",
          "setResolver(address)": "4e543b26",
          "totalFeesCollected()": "60c6d8ae",
          "transferOwnership(address)": "f2fde38b",
          "userMarkets(address,uint256)": "db0f871d",
          "userTotalBets(address)": "7b6e1f9a",
          "userTotalWinnings(address)": "08857442",
          "withdrawFees(address)": "164e68de"
        }
      }
    }
  }
}