{
  "contracts/MarketFactory.sol": {
    "MarketFactory": {
      "abi": [
        {
          "inputs": [
            {
              "internalType": "address",
              "name": "_predictionMarket",
              "type": "address"
            }
          ],
          "stateMutability": "nonpayable",
          "type": "constructor"
        },
        {
          "anonymous": false,
          "inputs": [
            {
              "indexed": true,
              "internalType": "address",
              "name": "agent",
              "type": "address"
            },
            {
              "indexed": false,
              "internalType": "string",
              "name": "name",
              "type": "string"
            },
            {
              "indexed": false,
              "internalType": "string",
              "name": "personality",
              "type": "string"
            }
          ],
          "name": "AIAgentRegistered",
          "type": "event"
        },
        {
          "anonymous": false,
          "inputs": [
            {
              "indexed": true,
              "internalType": "address",
              "name": "player",
              "type": "address"
            }
          ],
          "name": "PlayerRegistered",
          "type": "event"
        },
        {
          "anonymous": false,
          "inputs": [
            {
              "indexed": true,
              "internalType": "address",
              "name": "player",
              "type": "address"
            },
            {
              "indexed": false,
              "internalType": "uint256",
              "name": "totalWins",
              "type": "uint256"
            },
            {
              "indexed": false,
              "internalType": "uint256",
              "name": "totalBets",
              "type": "uint256"
            }
          ],
          "name": "StatsUpdated",
          "type": "event"
        },
        {
          "inputs": [
            {
              "internalType": "uint256",
              "name": "",
              "type": "uint256"
            }
          ],
          "name": "aiAgentAddresses",
          "outputs": [
            {
              "internalType": "address",
              "name": "",
              "type": "address"
            }
          ],
          "stateMutability": "view",
          "type": "function"
        },
        {
          "inputs": [
            {
              "internalType": "address",
              "name": "",
              "type": "address"
            }
          ],
          "name": "aiAgents",
          "outputs": [
            {
              "internalType": "string",
              "name": "name",
              "type": "string"
            },
            {
              "internalType": "string",
              "name": "personality",
              "type": "string"
            },
            {
              "internalType": "string",
              "name": "avatarURI",
              "type": "string"
            },
            {
              "internalType": "address",
              "name": "agentAddress",
              "type": "address"
            },
            {
              "internalType": "bool",
              "name": "isActive",
              "type": "bool"
            },
            {
              "internalType": "uint256",
              "name": "totalPredictions",
              "type": "uint256"
            },
            {
              "internalType": "uint256",
              "name": "correctPredictions",
              "type": "uint256"
            }
          ],
          "stateMutability": "view",
          "type": "function"
        },
        {
          "inputs": [
            {
              "internalType": "uint256",
              "name": "",
              "type": "uint256"
            }
          ],
          "name": "allPlayers",
          "outputs": [
            {
              "internalType": "address",
              "name": "",
              "type": "address"
            }
          ],
          "stateMutability": "view",
          "type": "function"
        },
        {
          "inputs": [
            {
              "internalType": "address",
              "name": "_agent",
              "type": "address"
            }
          ],
          "name": "getAIAgent",
          "outputs": [
            {
              "components": [
                {
                  "internalType": "string",
                  "name": "name",
                  "type": "string"
                },
                {
                  "internalType": "string",
                  "name": "personality",
                  "type": "string"
                },
                {
                  "internalType": "string",
                  "name": "avatarURI",
                  "type": "string"
                },
                {
                  "internalType": "address",
                  "name": "agentAddress",
                  "type": "address"
                },
                {
                  "internalType": "bool",
                  "name": "isActive",
                  "type": "bool"
                },
                {
                  "internalType": "uint256",
                  "name": "totalPredictions",
                  "type": "uint256"
                },
                {
                  "internalType": "uint256",
                  "name": "correctPredictions",
                  "type": "uint256"
                }
              ],
              "internalType": "struct MarketFactory.AIAgent",
              "name": "",
              "type": "tuple"
            }
          ],
          "stateMutability": "view",
          "type": "function"
        },
        {
          "inputs": [],
          "name": "getAllAIAgents",
          "outputs": [
            {
              "internalType": "address[]",
              "name": "",
              "type": "address[]"
            }
          ],
          "stateMutability": "view",
          "type": "function"
        },
        {
          "inputs": [],
          "name": "getAllPlayers",
          "outputs": [
            {
              "internalType": "address[]",
              "name": "",
              "type": "address[]"
            }
          ],
          "stateMutability": "view",
          "type": "function"
        },
        {
          "inputs": [
            {
              "internalType": "uint256",
              "name": "_limit",
              "type": "uint256"
            }
          ],
          "name": "getLeaderboard",
          "outputs": [
            {
              "internalType": "address[]",
              "name": "",
              "type": "address[]"
            },
            {
              "components": [
                {
                  "internalType": "uint256",
                  "name": "totalBets",
                  "type": "uint256"
                },
                {
                  "internalType": "uint256",
                  "name": "totalWins",
                  "type": "uint256"
                },
                {
                  "internalType": "uint256",
                  "name": "totalAmountBet",
                  "type": "uint256"
                },
                {
                  "internalType": "uint256",
                  "name": "totalWinnings",
                  "type": "uint256"
                },
                {
                  "internalType": "uint256",
                  "name": "currentStreak",
                  "type": "uint256"
                },
                {
                  "internalType": "uint256",
                  "name": "bestStreak",
                  "type": "uint256"
                },
                {
                  "internalType": "uint256",
                  "name": "gamesPlayed",
                  "type": "uint256"
                }
              ],
              "internalType": "struct MarketFactory.PlayerStats[]",
              "name": "",
              "type": "tuple[]"
            }
          ],
          "stateMutability": "view",
          "type": "function"
        },
        {
          "inputs": [],
          "name": "getPlayerCount",
          "outputs": [
            {
              "internalType": "uint256",
              "name": "",
              "type": "uint256"
            }
          ],
          "stateMutability": "view",
          "type": "function"
        },
        {
          "inputs": [
            {
              "internalType": "address",
              "name": "_player",
              "type": "address"
            }
          ],
          "name": "getPlayerStats",
          "outputs": [
            {
              "components": [
                {
                  "internalType": "uint256",
                  "name": "totalBets",
                  "type": "uint256"
                },
                {
                  "internalType": "uint256",
                  "name": "totalWins",
                  "type": "uint256"
                },
                {
                  "internalType": "uint256",
                  "name": "totalAmountBet",
                  "type": "uint256"
                },
                {
                  "internalType": "uint256",
                  "name": "totalWinnings",
                  "type": "uint256"
                },
                {
                  "internalType": "uint256",
                  "name": "currentStreak",
                  "type": "uint256"
                },
                {
                  "internalType": "uint256",
                  "name": "bestStreak",
                  "type": "uint256"
                },
                {
                  "internalType": "uint256",
                  "name": "gamesPlayed",
                  "type": "uint256"
                }
              ],
              "internalType": "struct MarketFactory.PlayerStats",
              "name": "",
              "type": "tuple"
            }
          ],
          "stateMutability": "view",
          "type": "function"
        },
        {
          "inputs": [
            {
              "internalType": "address",
              "name": "",
              "type": "address"
            }
          ],
          "name": "isRegistered",
          "outputs": [
            {
              "internalType": "bool",
              "name": "",
              "type": "bool"
            }
          ],
          "stateMutability": "view",
          "type": "function"
        },
        {
          "inputs": [],
          "name": "owner",
          "outputs": [
            {
              "internalType": "address",
              "name": "",
              "type": "address"
            }
          ],
          "stateMutability": "view",
          "type": "function"
        },
        {
          "inputs": [
            {
              "internalType": "address",
              "name": "",
              "type": "address"
            }
          ],
          "name": "playerStats",
          "outputs": [
            {
              "internalType": "uint256",
              "name": "totalBets",
              "type": "uint256"
            },
            {
              "internalType": "uint256",
              "name": "totalWins",
              "type": "uint256"
            },
            {
              "internalType": "uint256",
              "name": "totalAmountBet",
              "type": "uint256"
            },
            {
              "internalType": "uint256",
              "name": "totalWinnings",
              "type": "uint256"
            },
            {
              "internalType": "uint256",
              "name": "currentStreak",
              "type": "uint256"
            },
            {
              "internalType": "uint256",
              "name": "bestStreak",
              "type": "uint256"
            },
            {
              "internalType": "uint256",
              "name": "gamesPlayed",
              "type": "uint256"
            }
          ],
          "stateMutability": "view",
          "type": "function"
        },
        {
          "inputs": [],
          "name": "predictionMarket",
          "outputs": [
            {
              "internalType": "contract PredictionMarket",
              "name": "",
              "type": "address"
            }
          ],
          "stateMutability": "view",
          "type": "function"
        },
        {
          "inputs": [
            {
              "internalType": "address",
              "name": "_player",
              "type": "address"
            },
            {
              "internalType": "uint256",
              "name": "_amount",
              "type": "uint256"
            },
            {
              "internalType": "bool",
              "name": "_won",
              "type": "bool"
            },
            {
              "internalType": "uint256",
              "name": "_winnings",
              "type": "uint256"
            }
          ],
          "name": "recordBetResult",
          "outputs": [],
          "stateMutability": "nonpayable",
          "type": "function"
        },
        {
          "inputs": [
            {
              "internalType": "address",
              "name": "_agentAddress",
              "type": "address"
            },
            {
              "internalType": "string",
              "name": "_name",
              "type": "string"
            },
            {
              "internalType": "string",
              "name": "_personality",
              "type": "string"
            },
            {
              "internalType": "string",
              "name": "_avatarURI",
              "type": "string"
            }
          ],
          "name": "registerAIAgent",
          "outputs": [],
          "stateMutability": "nonpayable",
          "type": "function"
        },
        {
          "inputs": [],
          "name": "registerPlayer",
          "outputs": [],
          "stateMutability": "nonpayable",
          "type": "function"
        },
        {
          "inputs": [
            {
              "internalType": "address",
              "name": "_market",
              "type": "address"
            }
          ],
          "name": "setPredictionMarket",
          "outputs": [],
          "stateMutability": "nonpayable",
          "type": "function"
        },
        {
          "inputs": [
            {
              "internalType": "address",
              "name": "_newOwner",
              "type": "address"
            }
          ],
          "name": "transferOwnership",
          "outputs": [],
          "stateMutability": "nonpayable",
          "type": "function"
        },
        {
          "inputs": [
            {
              "internalType": "address",
              "name": "_agentAddress",
              "type": "address"
            },
            {
              "internalType": "bool",
              "name": "_correct",
              "type": "bool"
            }
          ],
          "name": "updateAIAgentStats",
          "outputs": [],
          "stateMutability": "nonpayable",
          "type": "function"
        }
      ],
      "evm": {
        "bytecode": {
          "linkReferences": {},
          "object": "60803461007a57601f6116b138819003918201601f19168301916001600160401b0383118484101761007f5780849260209460405283398101031261007a57516001600160a01b0381169081900361007a5760018060a01b031933816000541617600055600154161760015560405161161b90816100968239f35b600080fd5b634e487b7160e01b600052604160045260246000fdfe6080604052600436101561001257600080fd5b60e0600035811c90816303b88ba21461120b5781630544ce5e146111c957816309ddd43b14611037578163267873e814610fdc5781633500e8d614610f1e5781634fd66eae14610e505781635c07a4b014610da557816377bad62e14610ce65781638da5cb5b14610cbd578163a34b46fe14610ac3578163a447006d14610975578163c2e5220614610957578163c3c5a54714610918578163cdafbbb61461089f57508063def114b614610876578063eb2913a01461025c578063efa1c482146101d8578063f2fde38b146101915763fe42802c146100f057600080fd5b3461018c57600036600319011261018c57604051806006549182815260208091019260066000527ff652222313e28459528d920b65115c16c04f3efc82aaedc97be59f3f377c0d3f916000905b82821061016c5761016885610154818903826112ff565b604051918291602083526020830190611406565b0390f35b83546001600160a01b03168652948501946001938401939091019061013d565b600080fd5b3461018c57602036600319011261018c576101aa61125c565b600054906001600160a01b03906101c43383851614611471565b6001600160a01b0319909216911617600055005b3461018c57600036600319011261018c57604051806003549182815260208091019260036000527fc2575a0e9e593c00f959f8c92f12db2869c3395a3b0502d05e2516446f71f85b916000905b82821061023c5761016885610154818903826112ff565b83546001600160a01b031686529485019460019384019390910190610225565b3461018c57608036600319011261018c5761027561125c565b60243567ffffffffffffffff811161018c57610295903690600401611443565b9060443567ffffffffffffffff811161018c576102b6903690600401611443565b92909360643567ffffffffffffffff811161018c576102d9903690600401611443565b906102ef60018060a01b03600054163314611471565b6001600160a01b03831660009081526005602052604090206003015460a01c60ff166108315761034a9060405192610326846112e3565b61033136878961157d565b845261033e36898b61157d565b6020850152369161157d565b6040828101919091526001600160a01b0383166060830181905260016080840152600060a0840181905260c08401819052908152600560205220815180519192919067ffffffffffffffff82116105bd5781906103a785546112a9565b601f81116107e1575b50602090601f83116001146107755760009261076a575b50508160011b916000199060031b1c19161782555b602081015180519067ffffffffffffffff82116105bd57819061040260018601546112a9565b601f8111610717575b50602090601f83116001146106a55760009261069a575b50508160011b916000199060031b1c19161760018301555b604081015180519067ffffffffffffffff82116105bd5761045e60028501546112a9565b601f8111610653575b50602090601f83116001146105de5791806005949260c0946000926105d3575b50508160011b916000199060031b1c19161760028501555b6003840160018060a01b0360608301511681549060ff60a01b6080850151151560a01b16916affffffffffffffffffffff60a81b161717905560a08101516004850155015191015560065490600160401b8210156105bd5760018201806006558210156105a7577f0cdaf730560fce818bf9288f8ff395dabc93bd216dad2f935b2d17a7d160ce5e946105a29260066000527ff652222313e28459528d920b65115c16c04f3efc82aaedc97be59f3f377c0d3f0160018060a01b0383166bffffffffffffffffffffffff60a01b8254161790556105896040519586956040875260408701916115c4565b84810360208601526001600160a01b03909216966115c4565b0390a2005b634e487b7160e01b600052603260045260246000fd5b634e487b7160e01b600052604160045260246000fd5b015190508b80610487565b906002850160005260206000209160005b601f198516811061063b5750926005949260019260c09583601f19811610610622575b505050811b01600285015561049f565b015160001960f88460031b161c191690558b8080610612565b919260206001819286850151815501940192016105ef565b600285016000526020600020601f840160051c810160208510610693575b601f830160051c82018110610687575050610467565b60008155600101610671565b5080610671565b015190508980610422565b9250600185016000526020600020906000935b601f19841685106106fc576001945083601f198116106106e3575b505050811b01600183015561043a565b015160001960f88460031b161c191690558980806106d3565b818101518355602094850194600190930192909101906106b8565b909150600185016000526020600020601f840160051c810160208510610763575b90849392915b601f830160051c8201811061075457505061040b565b6000815585945060010161073e565b5080610738565b0151905089806103c7565b9250846000526020600020906000935b601f19841685106107c6576001945083601f198116106107ad575b505050811b0182556103dc565b015160001960f88460031b161c191690558980806107a0565b81810151835560209485019460019093019290910190610785565b909150846000526020600020601f840160051c81016020851061082a575b90849392915b601f830160051c8201811061081b5750506103b0565b60008155859450600101610805565b50806107ff565b60405162461bcd60e51b815260206004820152601860248201527f4167656e7420616c7265616479207265676973746572656400000000000000006044820152606490fd5b3461018c57600036600319011261018c576001546040516001600160a01b039091168152602090f35b3461018c57602036600319011261018c576001600160a01b036108c061125c565b1660005260026020526040600020805490600181015490600281015460038201546004830154916006600585015494015494604051968752602087015260408601526060850152608084015260a083015260c0820152f35b3461018c57602036600319011261018c576001600160a01b0361093961125c565b166000526004602052602060ff604060002054166040519015158152f35b3461018c57600036600319011261018c576020600354604051908152f35b3461018c5760208060031936011261018c5761098f61125c565b90826040519161099e836112e3565b606092838152838282015283604082015283810160009052608081016000905260a081016000905260c00160009052600160a01b60019003809416600052600581526040600020604051946109f2866112e3565b6109fb82611321565b8652610a0960018301611321565b86840190815290610a1c60028401611321565b916040880192835260038401549287890197838516895260808a019460a01c60ff161515855260048601549560a08b01968752600501549660c08b019788526040519b8c9b828d5251918c01526101008b01610a77916113c6565b9251601f1993848c82030160408d0152610a90916113c6565b9151928a830301908a0152610aa4916113c6565b955116608087015251151560a08601525160c085015251908301520390f35b3461018c576020908160031936011261018c576003805490919060043581811115610cb55750925b610af484611551565b93610b0260405195866112ff565b808552610b0e81611551565b601f19949085013687850137610b2382611551565b94610b3160405196876112ff565b828652610b3d83611551565b018360005b828110610c9f5750505060005b828110610bf857610b7187878787604051948594604086526040860190611406565b90848203818601528080855193848152019401926000905b838210610b965786860387f35b918496508286610be8600194969884985160c08091805184526020810151602085015260408101516040850152606081015160608501526080810151608085015260a081015160a08501520151910152565b0196019201869594929391610b89565b80610c04600192611272565b90838060a01b039182915490861b1c16610c1e838b611569565b52610c2882611272565b905490851b1c1660005260028086526006604060002060405192610c4b846112e3565b815484528582015489850152810154604084015285810154606084015260048101546080840152600581015460a0840152015460c0820152610c8d8289611569565b52610c988188611569565b5001610b4f565b610ca7611519565b82828a010152018490610b42565b905092610aeb565b3461018c57600036600319011261018c576000546040516001600160a01b039091168152602090f35b3461018c57602036600319011261018c576001600160a01b039081610d0961125c565b166000526005602052604060002091610d2183611321565b92610d2e60018201611321565b9060ff610d3d60028301611321565b610d84600384015491610d766005600487015496015496610d686040519b8b8d9c8d528c01906113c6565b908a820360208c01526113c6565b9088820360408a01526113c6565b948116606087015260a01c161515608085015260a084015260c08301520390f35b3461018c57600036600319011261018c5733600052600460205260ff60406000205416610e16573360005260046020526040600020600160ff19825416179055610dee336114aa565b337f8cd3331e32cec677d80b82cf0f71496605e7ed6ff864a3ccedc7d5d11d838c83600080a2005b60405162461bcd60e51b8152602060048201526012602482015271105b1c9958591e481c9959da5cdd195c995960721b6044820152606490fd5b3461018c57602036600319011261018c57610e6961125c565b610e71611519565b5060018060a01b031660005260026020526040600020600660405191610e96836112e3565b8054835260018101546020840152600281015460408401526003810154606084015260048101546080840152600581015460a0840152015460c0820152610f1c604051809260c08091805184526020810151602085015260408101516040850152606081015160608501526080810151608085015260a081015160a08501520151910152565bf35b3461018c57604036600319011261018c57610f3761125c565b60243590811515820361018c576000546001600160a01b039190610f5e9083163314611471565b16600052600560205260406000209060ff600383015460a01c1615610fa45760048201610f8b81546114e7565b9055610f9357005b600501610fa081546114e7565b9055005b60405162461bcd60e51b815260206004820152601060248201526f4167656e74206e6f742061637469766560801b6044820152606490fd5b3461018c57602036600319011261018c5760043560065481101561018c5760066000527ff652222313e28459528d920b65115c16c04f3efc82aaedc97be59f3f377c0d3f01546040516001600160a01b039091168152602090f35b3461018c57608036600319011261018c5761105061125c565b604435801515810361018c576000546001600160a01b03908116331480156111bc575b15611186577f80140d6bcee83a25999242a95412ea6b9754c623fc171e8d4c86c8392c053ad991604091841693846000526004602052826000209081549160ff83161561116c575b50505083600052600260205281600020906110d682546114e7565b8255600282016110e9602435825461150c565b9055600682016110f981546114e7565b905515611160576001810161110e81546114e7565b905560038101611121606435825461150c565b90556004810161113181546114e7565b8091556005820180548211611158575b50505b6001810154905482519182526020820152a2005b558480611141565b60006004820155611144565b600161117e9360ff19161790556114aa565b8480806110bb565b60405162461bcd60e51b815260206004820152600e60248201526d139bdd08185d5d1a1bdc9a5e995960921b6044820152606490fd5b5080600154163314611073565b3461018c57602036600319011261018c5760043560035481101561018c576111f2602091611272565b905460405160039290921b1c6001600160a01b03168152f35b3461018c57602036600319011261018c5761122461125c565b6000546001600160a01b03919061123e9083163314611471565b166bffffffffffffffffffffffff60a01b6001541617600155600080f35b600435906001600160a01b038216820361018c57565b6003548110156105a75760036000527fc2575a0e9e593c00f959f8c92f12db2869c3395a3b0502d05e2516446f71f85b0190600090565b90600182811c921680156112d9575b60208310146112c357565b634e487b7160e01b600052602260045260246000fd5b91607f16916112b8565b60e0810190811067ffffffffffffffff8211176105bd57604052565b90601f8019910116810190811067ffffffffffffffff8211176105bd57604052565b90604051918260008254611334816112a9565b908184526020946001916001811690816000146113a45750600114611365575b505050611363925003836112ff565b565b600090815285812095935091905b81831061138c5750506113639350820101388080611354565b85548884018501529485019487945091830191611373565b9250505061136394925060ff191682840152151560051b820101388080611354565b919082519283825260005b8481106113f2575050826000602080949584010152601f8019910116010190565b6020818301810151848301820152016113d1565b90815180825260208080930193019160005b828110611426575050505090565b83516001600160a01b031685529381019392810192600101611418565b9181601f8401121561018c5782359167ffffffffffffffff831161018c576020838186019501011161018c57565b1561147857565b60405162461bcd60e51b815260206004820152600a60248201526927b7363c9037bbb732b960b11b6044820152606490fd5b600354600160401b8110156105bd578060016114c99201600355611272565b60018060a09493941b038084549260031b9316831b921b1916179055565b60001981146114f65760010190565b634e487b7160e01b600052601160045260246000fd5b919082018092116114f657565b60405190611526826112e3565b8160c06000918281528260208201528260408201528260608201528260808201528260a08201520152565b67ffffffffffffffff81116105bd5760051b60200190565b80518210156105a75760209160051b010190565b92919267ffffffffffffffff82116105bd57604051916115a7601f8201601f1916602001846112ff565b82948184528183011161018c578281602093846000960137010152565b908060209392818452848401376000828201840152601f01601f191601019056fea2646970667358221220b76c4dcbc5599fde9bfd337d64a225c1fa912a0ee8b00f073a308401ff87e9c564736f6c63430008180033",
          "opcodes": "PUSH1 0x80 CALLVALUE PUSH2 0x7A JUMPI PUSH1 0x1F PUSH2 0x16B1 CODESIZE DUP2 SWAP1 SUB SWAP2 DUP3 ADD PUSH1 0x1F NOT AND DUP4 ADD SWAP2 PUSH1 0x1 PUSH1 0x1 PUSH1 0x40 SHL SUB DUP4 GT DUP5 DUP5 LT OR PUSH2 0x7F JUMPI DUP1 DUP5 SWAP3 PUSH1 0x20 SWAP5 PUSH1 0x40 MSTORE DUP4 CODECOPY DUP2 ADD SUB SLT PUSH2 0x7A JUMPI MLOAD PUSH1 0x1 PUSH1 0x1 PUSH1 0xA0 SHL SUB DUP2 AND SWAP1 DUP2 SWAP1 SUB PUSH2 0x7A JUMPI PUSH1 0x1 DUP1 PUSH1 0xA0 SHL SUB NOT CALLER DUP2 PUSH1 0x0 SLOAD AND OR PUSH1 0x0 SSTORE PUSH1 0x1 SLOAD AND OR PUSH1 0x1 SSTORE PUSH1 0x40 MLOAD PUSH2 0x161B SWAP1 DUP2 PUSH2 0x96 DUP3 CODECOPY RETURN JUMPDEST PUSH1 0x0 DUP1 REVERT JUMPDEST PUSH4 0x4E487B71 PUSH1 0xE0 SHL PUSH1 0x0 MSTORE PUSH1 0x41 PUSH1 0x4 MSTORE PUSH1 0x24 PUSH1 0x0 REVERT INVALID PUSH1 0x80 PUSH1 0x40 MSTORE PUSH1 0x4 CALLDATASIZE LT ISZERO PUSH2 0x12 JUMPI PUSH1 0x0 DUP1 REVERT JUMPDEST PUSH1 0xE0 PUSH1 0x0 CALLDATALOAD DUP2 SHR SWAP1 DUP2 PUSH4 0x3B88BA2 EQ PUSH2 0x120B JUMPI DUP2 PUSH4 0x544CE5E EQ PUSH2 0x11C9 JUMPI DUP2 PUSH4 0x9DDD43B EQ PUSH2 0x1037 JUMPI DUP2 PUSH4 0x267873E8 EQ PUSH2 0xFDC JUMPI DUP2 PUSH4 0x3500E8D6 EQ PUSH2 0xF1E JUMPI DUP2 PUSH4 0x4FD66EAE EQ PUSH2 0xE50 JUMPI DUP2 PUSH4 0x5C07A4B0 EQ PUSH2 0xDA5 JUMPI DUP2 PUSH4 0x77BAD62E EQ PUSH2 0xCE6 JUMPI DUP2 PUSH4 0x8DA5CB5B EQ PUSH2 0xCBD JUMPI DUP2 PUSH4 0xA34B46FE EQ PUSH2 0xAC3 JUMPI DUP2 PUSH4 0xA447006D EQ PUSH2 0x975 JUMPI DUP2 PUSH4 0xC2E52206 EQ PUSH2 0x957 JUMPI DUP2 PUSH4 0xC3C5A547 EQ PUSH2 0x918 JUMPI DUP2 PUSH4 0xCDAFBBB6 EQ PUSH2 0x89F JUMPI POP DUP1 PUSH4 0xDEF114B6 EQ PUSH2 0x876 JUMPI DUP1 PUSH4 0xEB2913A0 EQ PUSH2 0x25C JUMPI DUP1 PUSH4 0xEFA1C482 EQ PUSH2 0x1D8 JUMPI DUP1 PUSH4 0xF2FDE38B EQ PUSH2 0x191 JUMPI PUSH4 0xFE42802C EQ PUSH2 0xF0 JUMPI PUSH1 0x0 DUP1 REVERT JUMPDEST CALLVALUE PUSH2 0x18C JUMPI PUSH1 0x0 CALLDATASIZE PUSH1 0x3 NOT ADD SLT PUSH2 0x18C JUMPI PUSH1 0x40 MLOAD DUP1 PUSH1 0x6 SLOAD SWAP2 DUP3 DUP2 MSTORE PUSH1 0x20 DUP1 SWAP2 ADD SWAP3 PUSH1 0x6 PUSH1 0x0 MSTORE PUSH32 0xF652222313E28459528D920B65115C16C04F3EFC82AAEDC97BE59F3F377C0D3F SWAP2 PUSH1 0x0 SWAP1 JUMPDEST DUP3 DUP3 LT PUSH2 0x16C JUMPI PUSH2 0x168 DUP6 PUSH2 0x154 DUP2 DUP10 SUB DUP3 PUSH2 0x12FF JUMP JUMPDEST PUSH1 0x40 MLOAD SWAP2 DUP3 SWAP2 PUSH1 0x20 DUP4 MSTORE PUSH1 0x20 DUP4 ADD SWAP1 PUSH2 0x1406 JUMP JUMPDEST SUB SWAP1 RETURN JUMPDEST DUP4 SLOAD PUSH1 0x1 PUSH1 0x1 PUSH1 0xA0 SHL SUB AND DUP7 MSTORE SWAP5 DUP6 ADD SWAP5 PUSH1 0x1 SWAP4 DUP5 ADD SWAP4 SWAP1 SWAP2 ADD SWAP1 PUSH2 0x13D JUMP JUMPDEST PUSH1 0x0 DUP1 REVERT JUMPDEST CALLVALUE PUSH2 0x18C JUMPI PUSH1 0x20 CALLDATASIZE PUSH1 0x3 NOT ADD SLT PUSH2 0x18C JUMPI PUSH2 0x1AA PUSH2 0x125C JUMP JUMPDEST PUSH1 0x0 SLOAD SWAP1 PUSH1 0x1 PUSH1 0x1 PUSH1 0xA0 SHL SUB SWAP1 PUSH2 0x1C4 CALLER DUP4 DUP6 AND EQ PUSH2 0x1471 JUMP JUMPDEST PUSH1 0x1 PUSH1 0x1 PUSH1 0xA0 SHL SUB NOT SWAP1 SWAP3 AND SWAP2 AND OR PUSH1 0x0 SSTORE STOP JUMPDEST CALLVALUE PUSH2 0x18C JUMPI PUSH1 0x0 CALLDATASIZE PUSH1 0x3 NOT ADD SLT PUSH2 0x18C JUMPI PUSH1 0x40 MLOAD DUP1 PUSH1 0x3 SLOAD SWAP2 DUP3 DUP2 MSTORE PUSH1 0x20 DUP1 SWAP2 ADD SWAP3 PUSH1 0x3 PUSH1 0x0 MSTORE PUSH32 0xC2575A0E9E593C00F959F8C92F12DB2869C3395A3B0502D05E2516446F71F85B SWAP2 PUSH1 0x0 SWAP1 JUMPDEST DUP3 DUP3 LT PUSH2 0x23C JUMPI PUSH2 0x168 DUP6 PUSH2 0x154 DUP2 DUP10 SUB DUP3 PUSH2 0x12FF JUMP JUMPDEST DUP4 SLOAD PUSH1 0x1 PUSH1 0x1 PUSH1 0xA0 SHL SUB AND DUP7 MSTORE SWAP5 DUP6 ADD SWAP5 PUSH1 0x1 SWAP4 DUP5 ADD SWAP4 SWAP1 SWAP2 ADD SWAP1 PUSH2 0x225 JUMP JUMPDEST CALLVALUE PUSH2 0x18C JUMPI PUSH1 0x80 CALLDATASIZE PUSH1 0x3 NOT ADD SLT PUSH2 0x18C JUMPI PUSH2 0x275 PUSH2 0x125C JUMP JUMPDEST PUSH1 0x24 CALLDATALOAD PUSH8 0xFFFFFFFFFFFFFFFF DUP2 GT PUSH2 0x18C JUMPI PUSH2 0x295 SWAP1 CALLDATASIZE SWAP1 PUSH1 0x4 ADD PUSH2 0x1443 JUMP JUMPDEST SWAP1 PUSH1 0x44 CALLDATALOAD PUSH8 0xFFFFFFFFFFFFFFFF DUP2 GT PUSH2 0x18C JUMPI PUSH2 0x2B6 SWAP1 CALLDATASIZE SWAP1 PUSH1 0x4 ADD PUSH2 0x1443 JUMP JUMPDEST SWAP3 SWAP1 SWAP4 PUSH1 0x64 CALLDATALOAD PUSH8 0xFFFFFFFFFFFFFFFF DUP2 GT PUSH2 0x18C JUMPI PUSH2 0x2D9 SWAP1 CALLDATASIZE SWAP1 PUSH1 0x4 ADD PUSH2 0x1443 JUMP JUMPDEST SWAP1 PUSH2 0x2EF PUSH1 0x1 DUP1 PUSH1 0xA0 SHL SUB PUSH1 0x0 SLOAD AND CALLER EQ PUSH2 0x1471 JUMP JUMPDEST PUSH1 0x1 PUSH1 0x1 PUSH1 0xA0 SHL SUB DUP4 AND PUSH1 0x0 SWAP1 DUP2 MSTORE PUSH1 0x5 PUSH1 0x20 MSTORE PUSH1 0x40 SWAP1 KECCAK256 PUSH1 0x3 ADD SLOAD PUSH1 0xA0 SHR PUSH1 0xFF AND PUSH2 0x831 JUMPI PUSH2 0x34A SWAP1 PUSH1 0x40 MLOAD SWAP3 PUSH2 0x326 DUP5 PUSH2 0x12E3 JUMP JUMPDEST PUSH2 0x331 CALLDATASIZE DUP8 DUP10 PUSH2 0x157D JUMP JUMPDEST DUP5 MSTORE PUSH2 0x33E CALLDATASIZE DUP10 DUP12 PUSH2 0x157D JUMP JUMPDEST PUSH1 0x20 DUP6 ADD MSTORE CALLDATASIZE SWAP2 PUSH2 0x157D JUMP JUMPDEST PUSH1 0x40 DUP3 DUP2 ADD SWAP2 SWAP1 SWAP2 MSTORE PUSH1 0x1 PUSH1 0x1 PUSH1 0xA0 SHL SUB DUP4 AND PUSH1 0x60 DUP4 ADD DUP2 SWAP1 MSTORE PUSH1 0x1 PUSH1 0x80 DUP5 ADD MSTORE PUSH1 0x0 PUSH1 0xA0 DUP5 ADD DUP2 SWAP1 MSTORE PUSH1 0xC0 DUP5 ADD DUP2 SWAP1 MSTORE SWAP1 DUP2 MSTORE PUSH1 0x5 PUSH1 0x20 MSTORE KECCAK256 DUP2 MLOAD DUP1 MLOAD SWAP2 SWAP3 SWAP2 SWAP1 PUSH8 0xFFFFFFFFFFFFFFFF DUP3 GT PUSH2 0x5BD JUMPI DUP2 SWAP1 PUSH2 0x3A7 DUP6 SLOAD PUSH2 0x12A9 JUMP JUMPDEST PUSH1 0x1F DUP2 GT PUSH2 0x7E1 JUMPI JUMPDEST POP PUSH1 0x20 SWAP1 PUSH1 0x1F DUP4 GT PUSH1 0x1 EQ PUSH2 0x775 JUMPI PUSH1 0x0 SWAP3 PUSH2 0x76A JUMPI JUMPDEST POP POP DUP2 PUSH1 0x1 SHL SWAP2 PUSH1 0x0 NOT SWAP1 PUSH1 0x3 SHL SHR NOT AND OR DUP3 SSTORE JUMPDEST PUSH1 0x20 DUP2 ADD MLOAD DUP1 MLOAD SWAP1 PUSH8 0xFFFFFFFFFFFFFFFF DUP3 GT PUSH2 0x5BD JUMPI DUP2 SWAP1 PUSH2 0x402 PUSH1 0x1 DUP7 ADD SLOAD PUSH2 0x12A9 JUMP JUMPDEST PUSH1 0x1F DUP2 GT PUSH2 0x717 JUMPI JUMPDEST POP PUSH1 0x20 SWAP1 PUSH1 0x1F DUP4 GT PUSH1 0x1 EQ PUSH2 0x6A5 JUMPI PUSH1 0x0 SWAP3 PUSH2 0x69A JUMPI JUMPDEST POP POP DUP2 PUSH1 0x1 SHL SWAP2 PUSH1 0x0 NOT SWAP1 PUSH1 0x3 SHL SHR NOT AND OR PUSH1 0x1 DUP4 ADD SSTORE JUMPDEST PUSH1 0x40 DUP2 ADD MLOAD DUP1 MLOAD SWAP1 PUSH8 0xFFFFFFFFFFFFFFFF DUP3 GT PUSH2 0x5BD JUMPI PUSH2 0x45E PUSH1 0x2 DUP6 ADD SLOAD PUSH2 0x12A9 JUMP JUMPDEST PUSH1 0x1F DUP2 GT PUSH2 0x653 JUMPI JUMPDEST POP PUSH1 0x20 SWAP1 PUSH1 0x1F DUP4 GT PUSH1 0x1 EQ PUSH2 0x5DE JUMPI SWAP2 DUP1 PUSH1 0x5 SWAP5 SWAP3 PUSH1 0xC0 SWAP5 PUSH1 0x0 SWAP3 PUSH2 0x5D3 JUMPI JUMPDEST POP POP DUP2 PUSH1 0x1 SHL SWAP2 PUSH1 0x0 NOT SWAP1 PUSH1 0x3 SHL SHR NOT AND OR PUSH1 0x2 DUP6 ADD SSTORE JUMPDEST PUSH1 0x3 DUP5 ADD PUSH1 0x1 DUP1 PUSH1 0xA0 SHL SUB PUSH1 0x60 DUP4 ADD MLOAD AND DUP2 SLOAD SWAP1 PUSH1 0xFF PUSH1 0xA0 SHL PUSH1 0x80 DUP6 ADD MLOAD ISZERO ISZERO PUSH1 0xA0 SHL AND SWAP2 PUSH11 0xFFFFFFFFFFFFFFFFFFFFFF PUSH1 0xA8 SHL AND OR OR SWAP1 SSTORE PUSH1 0xA0 DUP2 ADD MLOAD PUSH1 0x4 DUP6 ADD SSTORE ADD MLOAD SWAP2 ADD SSTORE PUSH1 0x6 SLOAD SWAP1 PUSH1 0x1 PUSH1 0x40 SHL DUP3 LT ISZERO PUSH2 0x5BD JUMPI PUSH1 0x1 DUP3 ADD DUP1 PUSH1 0x6 SSTORE DUP3 LT ISZERO PUSH2 0x5A7 JUMPI PUSH32 0xCDAF730560FCE818BF9288F8FF395DABC93BD216DAD2F935B2D17A7D160CE5E SWAP5 PUSH2 0x5A2 SWAP3 PUSH1 0x6 PUSH1 0x0 MSTORE PUSH32 0xF652222313E28459528D920B65115C16C04F3EFC82AAEDC97BE59F3F377C0D3F ADD PUSH1 0x1 DUP1 PUSH1 0xA0 SHL SUB DUP4 AND PUSH12 0xFFFFFFFFFFFFFFFFFFFFFFFF PUSH1 0xA0 SHL DUP3 SLOAD AND OR SWAP1 SSTORE PUSH2 0x589 PUSH1 0x40 MLOAD SWAP6 DUP7 SWAP6 PUSH1 0x40 DUP8 MSTORE PUSH1 0x40 DUP8 ADD SWAP2 PUSH2 0x15C4 JUMP JUMPDEST DUP5 DUP2 SUB PUSH1 0x20 DUP7 ADD MSTORE PUSH1 0x1 PUSH1 0x1 PUSH1 0xA0 SHL SUB SWAP1 SWAP3 AND SWAP7 PUSH2 0x15C4 JUMP JUMPDEST SUB SWAP1 LOG2 STOP JUMPDEST PUSH4 0x4E487B71 PUSH1 0xE0 SHL PUSH1 0x0 MSTORE PUSH1 0x32 PUSH1 0x4 MSTORE PUSH1 0x24 PUSH1 0x0 REVERT JUMPDEST PUSH4 0x4E487B71 PUSH1 0xE0 SHL PUSH1 0x0 MSTORE PUSH1 0x41 PUSH1 0x4 MSTORE PUSH1 0x24 PUSH1 0x0 REVERT JUMPDEST ADD MLOAD SWAP1 POP DUP12 DUP1 PUSH2 0x487 JUMP JUMPDEST SWAP1 PUSH1 0x2 DUP6 ADD PUSH1 0x0 MSTORE PUSH1 0x20 PUSH1 0x0 KECCAK256 SWAP2 PUSH1 0x0 JUMPDEST PUSH1 0x1F NOT DUP6 AND DUP2 LT PUSH2 0x63B JUMPI POP SWAP3 PUSH1 0x5 SWAP5 SWAP3 PUSH1 0x1 SWAP3 PUSH1 0xC0 SWAP6 DUP4 PUSH1 0x1F NOT DUP2 AND LT PUSH2 0x622 JUMPI JUMPDEST POP POP POP DUP2 SHL ADD PUSH1 0x2 DUP6 ADD SSTORE PUSH2 0x49F JUMP JUMPDEST ADD MLOAD PUSH1 0x0 NOT PUSH1 0xF8 DUP5 PUSH1 0x3 SHL AND SHR NOT AND SWAP1 SSTORE DUP12 DUP1 DUP1 PUSH2 0x612 JUMP JUMPDEST SWAP2 SWAP3 PUSH1 0x20 PUSH1 0x1 DUP2 SWAP3 DUP7 DUP6 ADD MLOAD DUP2 SSTORE ADD SWAP5 ADD SWAP3 ADD PUSH2 0x5EF JUMP JUMPDEST PUSH1 0x2 DUP6 ADD PUSH1 0x0 MSTORE PUSH1 0x20 PUSH1 0x0 KECCAK256 PUSH1 0x1F DUP5 ADD PUSH1 0x5 SHR DUP2 ADD PUSH1 0x20 DUP6 LT PUSH2 0x693 JUMPI JUMPDEST PUSH1 0x1F DUP4 ADD PUSH1 0x5 SHR DUP3 ADD DUP2 LT PUSH2 0x687 JUMPI POP POP PUSH2 0x467 JUMP JUMPDEST PUSH1 0x0 DUP2 SSTORE PUSH1 0x1 ADD PUSH2 0x671 JUMP JUMPDEST POP DUP1 PUSH2 0x671 JUMP JUMPDEST ADD MLOAD SWAP1 POP DUP10 DUP1 PUSH2 0x422 JUMP JUMPDEST SWAP3 POP PUSH1 0x1 DUP6 ADD PUSH1 0x0 MSTORE PUSH1 0x20 PUSH1 0x0 KECCAK256 SWAP1 PUSH1 0x0 SWAP4 JUMPDEST PUSH1 0x1F NOT DUP5 AND DUP6 LT PUSH2 0x6FC JUMPI PUSH1 0x1 SWAP5 POP DUP4 PUSH1 0x1F NOT DUP2 AND LT PUSH2 0x6E3 JUMPI JUMPDEST POP POP POP DUP2 SHL ADD PUSH1 0x1 DUP4 ADD SSTORE PUSH2 0x43A JUMP JUMPDEST ADD MLOAD PUSH1 0x0 NOT PUSH1 0xF8 DUP5 PUSH1 0x3 SHL AND SHR NOT AND SWAP1 SSTORE DUP10 DUP1 DUP1 PUSH2 0x6D3 JUMP JUMPDEST DUP2 DUP2 ADD MLOAD DUP4 SSTORE PUSH1 0x20 SWAP5 DUP6 ADD SWAP5 PUSH1 0x1 SWAP1 SWAP4 ADD SWAP3 SWAP1 SWAP2 ADD SWAP1 PUSH2 0x6B8 JUMP JUMPDEST SWAP1 SWAP2 POP PUSH1 0x1 DUP6 ADD PUSH1 0x0 MSTORE PUSH1 0x20 PUSH1 0x0 KECCAK256 PUSH1 0x1F DUP5 ADD PUSH1 0x5 SHR DUP2 ADD PUSH1 0x20 DUP6 LT PUSH2 0x763 JUMPI JUMPDEST SWAP1 DUP5 SWAP4 SWAP3 SWAP2 JUMPDEST PUSH1 0x1F DUP4 ADD PUSH1 0x5 SHR DUP3 ADD DUP2 LT PUSH2 0x754 JUMPI POP POP PUSH2 0x40B JUMP JUMPDEST PUSH1 0x0 DUP2 SSTORE DUP6 SWAP5 POP PUSH1 0x1 ADD PUSH2 0x73E JUMP JUMPDEST POP DUP1 PUSH2 0x738 JUMP JUMPDEST ADD MLOAD SWAP1 POP DUP10 DUP1 PUSH2 0x3C7 JUMP JUMPDEST SWAP3 POP DUP5 PUSH1 0x0 MSTORE PUSH1 0x20 PUSH1 0x0 KECCAK256 SWAP1 PUSH1 0x0 SWAP4 JUMPDEST PUSH1 0x1F NOT DUP5 AND DUP6 LT PUSH2 0x7C6 JUMPI PUSH1 0x1 SWAP5 POP DUP4 PUSH1 0x1F NOT DUP2 AND LT PUSH2 0x7AD JUMPI JUMPDEST POP POP POP DUP2 SHL ADD DUP3 SSTORE PUSH2 0x3DC JUMP JUMPDEST ADD MLOAD PUSH1 0x0 NOT PUSH1 0xF8 DUP5 PUSH1 0x3 SHL AND SHR NOT AND SWAP1 SSTORE DUP10 DUP1 DUP1 PUSH2 0x7A0 JUMP JUMPDEST DUP2 DUP2 ADD MLOAD DUP4 SSTORE PUSH1 0x20 SWAP5 DUP6 ADD SWAP5 PUSH1 0x1 SWAP1 SWAP4 ADD SWAP3 SWAP1 SWAP2 ADD SWAP1 PUSH2 0x785 JUMP JUMPDEST SWAP1 SWAP2 POP DUP5 PUSH1 0x0 MSTORE PUSH1 0x20 PUSH1 0x0 KECCAK256 PUSH1 0x1F DUP5 ADD PUSH1 0x5 SHR DUP2 ADD PUSH1 0x20 DUP6 LT PUSH2 0x82A JUMPI JUMPDEST SWAP1 DUP5 SWAP4 SWAP3 SWAP2 JUMPDEST PUSH1 0x1F DUP4 ADD PUSH1 0x5 SHR DUP3 ADD DUP2 LT PUSH2 0x81B JUMPI POP POP PUSH2 0x3B0 JUMP JUMPDEST PUSH1 0x0 DUP2 SSTORE DUP6 SWAP5 POP PUSH1 0x1 ADD PUSH2 0x805 JUMP JUMPDEST POP DUP1 PUSH2 0x7FF JUMP JUMPDEST PUSH1 0x40 MLOAD PUSH3 0x461BCD PUSH1 0xE5 SHL DUP2 MSTORE PUSH1 0x20 PUSH1 0x4 DUP3 ADD MSTORE PUSH1 0x18 PUSH1 0x24 DUP3 ADD MSTORE PUSH32 0x4167656E7420616C726561647920726567697374657265640000000000000000 PUSH1 0x44 DUP3 ADD MSTORE PUSH1 0x64 SWAP1 REVERT JUMPDEST CALLVALUE PUSH2 0x18C JUMPI PUSH1 0x0 CALLDATASIZE PUSH1 0x3 NOT ADD SLT PUSH2 0x18C JUMPI PUSH1 0x1 SLOAD PUSH1 0x40 MLOAD PUSH1 0x1 PUSH1 0x1 PUSH1 0xA0 SHL SUB SWAP1 SWAP2 AND DUP2 MSTORE PUSH1 0x20 SWAP1 RETURN JUMPDEST CALLVALUE PUSH2 0x18C JUMPI PUSH1 0x20 CALLDATASIZE PUSH1 0x3 NOT ADD SLT PUSH2 0x18C JUMPI PUSH1 0x1 PUSH1 0x1 PUSH1 0xA0 SHL SUB PUSH2 0x8C0 PUSH2 0x125C JUMP JUMPDEST AND PUSH1 0x0 MSTORE PUSH1 0x2 PUSH1 0x20 MSTORE PUSH1 0x40 PUSH1 0x0 KECCAK256 DUP1 SLOAD SWAP1 PUSH1 0x1 DUP2 ADD SLOAD SWAP1 PUSH1 0x2 DUP2 ADD SLOAD PUSH1 0x3 DUP3 ADD SLOAD PUSH1 0x4 DUP4 ADD SLOAD SWAP2 PUSH1 0x6 PUSH1 0x5 DUP6 ADD SLOAD SWAP5 ADD SLOAD SWAP5 PUSH1 0x40 MLOAD SWAP7 DUP8 MSTORE PUSH1 0x20 DUP8 ADD MSTORE PUSH1 0x40 DUP7 ADD MSTORE PUSH1 0x60 DUP6 ADD MSTORE PUSH1 0x80 DUP5 ADD MSTORE PUSH1 0xA0 DUP4 ADD MSTORE PUSH1 0xC0 DUP3 ADD MSTORE RETURN JUMPDEST CALLVALUE PUSH2 0x18C JUMPI PUSH1 0x20 CALLDATASIZE PUSH1 0x3 NOT ADD SLT PUSH2 0x18C JUMPI PUSH1 0x1 PUSH1 0x1 PUSH1 0xA0 SHL SUB PUSH2 0x939 PUSH2 0x125C JUMP JUMPDEST AND PUSH1 0x0 MSTORE PUSH1 0x4 PUSH1 0x20 MSTORE PUSH1 0x20 PUSH1 0xFF PUSH1 0x40 PUSH1 0x0 KECCAK256 SLOAD AND PUSH1 0x40 MLOAD SWAP1 ISZERO ISZERO DUP2 MSTORE RETURN JUMPDEST CALLVALUE PUSH2 0x18C JUMPI PUSH1 0x0 CALLDATASIZE PUSH1 0x3 NOT ADD SLT PUSH2 0x18C JUMPI PUSH1 0x20 PUSH1 0x3 SLOAD PUSH1 0x40 MLOAD SWAP1 DUP2 MSTORE RETURN JUMPDEST CALLVALUE PUSH2 0x18C JUMPI PUSH1 0x20 DUP1 PUSH1 0x3 NOT CALLDATASIZE ADD SLT PUSH2 0x18C JUMPI PUSH2 0x98F PUSH2 0x125C JUMP JUMPDEST SWAP1 DUP3 PUSH1 0x40 MLOAD SWAP2 PUSH2 0x99E DUP4 PUSH2 0x12E3 JUMP JUMPDEST PUSH1 0x60 SWAP3 DUP4 DUP2 MSTORE DUP4 DUP3 DUP3 ADD MSTORE DUP4 PUSH1 0x40 DUP3 ADD MSTORE DUP4 DUP2 ADD PUSH1 0x0 SWAP1 MSTORE PUSH1 0x80 DUP2 ADD PUSH1 0x0 SWAP1 MSTORE PUSH1 0xA0 DUP2 ADD PUSH1 0x0 SWAP1 MSTORE PUSH1 0xC0 ADD PUSH1 0x0 SWAP1 MSTORE PUSH1 0x1 PUSH1 0xA0 SHL PUSH1 0x1 SWAP1 SUB DUP1 SWAP5 AND PUSH1 0x0 MSTORE PUSH1 0x5 DUP2 MSTORE PUSH1 0x40 PUSH1 0x0 KECCAK256 PUSH1 0x40 MLOAD SWAP5 PUSH2 0x9F2 DUP7 PUSH2 0x12E3 JUMP JUMPDEST PUSH2 0x9FB DUP3 PUSH2 0x1321 JUMP JUMPDEST DUP7 MSTORE PUSH2 0xA09 PUSH1 0x1 DUP4 ADD PUSH2 0x1321 JUMP JUMPDEST DUP7 DUP5 ADD SWAP1 DUP2 MSTORE SWAP1 PUSH2 0xA1C PUSH1 0x2 DUP5 ADD PUSH2 0x1321 JUMP JUMPDEST SWAP2 PUSH1 0x40 DUP9 ADD SWAP3 DUP4 MSTORE PUSH1 0x3 DUP5 ADD SLOAD SWAP3 DUP8 DUP10 ADD SWAP8 DUP4 DUP6 AND DUP10 MSTORE PUSH1 0x80 DUP11 ADD SWAP5 PUSH1 0xA0 SHR PUSH1 0xFF AND ISZERO ISZERO DUP6 MSTORE PUSH1 0x4 DUP7 ADD SLOAD SWAP6 PUSH1 0xA0 DUP12 ADD SWAP7 DUP8 MSTORE PUSH1 0x5 ADD SLOAD SWAP7 PUSH1 0xC0 DUP12 ADD SWAP8 DUP9 MSTORE PUSH1 0x40 MLOAD SWAP12 DUP13 SWAP12 DUP3 DUP14 MSTORE MLOAD SWAP2 DUP13 ADD MSTORE PUSH2 0x100 DUP12 ADD PUSH2 0xA77 SWAP2 PUSH2 0x13C6 JUMP JUMPDEST SWAP3 MLOAD PUSH1 0x1F NOT SWAP4 DUP5 DUP13 DUP3 SUB ADD PUSH1 0x40 DUP14 ADD MSTORE PUSH2 0xA90 SWAP2 PUSH2 0x13C6 JUMP JUMPDEST SWAP2 MLOAD SWAP3 DUP11 DUP4 SUB ADD SWAP1 DUP11 ADD MSTORE PUSH2 0xAA4 SWAP2 PUSH2 0x13C6 JUMP JUMPDEST SWAP6 MLOAD AND PUSH1 0x80 DUP8 ADD MSTORE MLOAD ISZERO ISZERO PUSH1 0xA0 DUP7 ADD MSTORE MLOAD PUSH1 0xC0 DUP6 ADD MSTORE MLOAD SWAP1 DUP4 ADD MSTORE SUB SWAP1 RETURN JUMPDEST CALLVALUE PUSH2 0x18C JUMPI PUSH1 0x20 SWAP1 DUP2 PUSH1 0x3 NOT CALLDATASIZE ADD SLT PUSH2 0x18C JUMPI PUSH1 0x3 DUP1 SLOAD SWAP1 SWAP2 SWAP1 PUSH1 0x4 CALLDATALOAD DUP2 DUP2 GT ISZERO PUSH2 0xCB5 JUMPI POP SWAP3 JUMPDEST PUSH2 0xAF4 DUP5 PUSH2 0x1551 JUMP JUMPDEST SWAP4 PUSH2 0xB02 PUSH1 0x40 MLOAD SWAP6 DUP7 PUSH2 0x12FF JUMP JUMPDEST DUP1 DUP6 MSTORE PUSH2 0xB0E DUP2 PUSH2 0x1551 JUMP JUMPDEST PUSH1 0x1F NOT SWAP5 SWAP1 DUP6 ADD CALLDATASIZE DUP8 DUP6 ADD CALLDATACOPY PUSH2 0xB23 DUP3 PUSH2 0x1551 JUMP JUMPDEST SWAP5 PUSH2 0xB31 PUSH1 0x40 MLOAD SWAP7 DUP8 PUSH2 0x12FF JUMP JUMPDEST DUP3 DUP7 MSTORE PUSH2 0xB3D DUP4 PUSH2 0x1551 JUMP JUMPDEST ADD DUP4 PUSH1 0x0 JUMPDEST DUP3 DUP2 LT PUSH2 0xC9F JUMPI POP POP POP PUSH1 0x0 JUMPDEST DUP3 DUP2 LT PUSH2 0xBF8 JUMPI PUSH2 0xB71 DUP8 DUP8 DUP8 DUP8 PUSH1 0x40 MLOAD SWAP5 DUP6 SWAP5 PUSH1 0x40 DUP7 MSTORE PUSH1 0x40 DUP7 ADD SWAP1 PUSH2 0x1406 JUMP JUMPDEST SWAP1 DUP5 DUP3 SUB DUP2 DUP7 ADD MSTORE DUP1 DUP1 DUP6 MLOAD SWAP4 DUP5 DUP2 MSTORE ADD SWAP5 ADD SWAP3 PUSH1 0x0 SWAP1 JUMPDEST DUP4 DUP3 LT PUSH2 0xB96 JUMPI DUP7 DUP7 SUB DUP8 RETURN JUMPDEST SWAP2 DUP5 SWAP7 POP DUP3 DUP7 PUSH2 0xBE8 PUSH1 0x1 SWAP5 SWAP7 SWAP9 DUP5 SWAP9 MLOAD PUSH1 0xC0 DUP1 SWAP2 DUP1 MLOAD DUP5 MSTORE PUSH1 0x20 DUP2 ADD MLOAD PUSH1 0x20 DUP6 ADD MSTORE PUSH1 0x40 DUP2 ADD MLOAD PUSH1 0x40 DUP6 ADD MSTORE PUSH1 0x60 DUP2 ADD MLOAD PUSH1 0x60 DUP6 ADD MSTORE PUSH1 0x80 DUP2 ADD MLOAD PUSH1 0x80 DUP6 ADD MSTORE PUSH1 0xA0 DUP2 ADD MLOAD PUSH1 0xA0 DUP6 ADD MSTORE ADD MLOAD SWAP2 ADD MSTORE JUMP JUMPDEST ADD SWAP7 ADD SWAP3 ADD DUP7 SWAP6 SWAP5 SWAP3 SWAP4 SWAP2 PUSH2 0xB89 JUMP JUMPDEST DUP1 PUSH2 0xC04 PUSH1 0x1 SWAP3 PUSH2 0x1272 JUMP JUMPDEST SWAP1 DUP4 DUP1 PUSH1 0xA0 SHL SUB SWAP2 DUP3 SWAP2 SLOAD SWAP1 DUP7 SHL SHR AND PUSH2 0xC1E DUP4 DUP12 PUSH2 0x1569 JUMP JUMPDEST MSTORE PUSH2 0xC28 DUP3 PUSH2 0x1272 JUMP JUMPDEST SWAP1 SLOAD SWAP1 DUP6 SHL SHR AND PUSH1 0x0 MSTORE PUSH1 0x2 DUP1 DUP7 MSTORE PUSH1 0x6 PUSH1 0x40 PUSH1 0x0 KECCAK256 PUSH1 0x40 MLOAD SWAP3 PUSH2 0xC4B DUP5 PUSH2 0x12E3 JUMP JUMPDEST DUP2 SLOAD DUP5 MSTORE DUP6 DUP3 ADD SLOAD DUP10 DUP6 ADD MSTORE DUP2 ADD SLOAD PUSH1 0x40 DUP5 ADD MSTORE DUP6 DUP2 ADD SLOAD PUSH1 0x60 DUP5 ADD MSTORE PUSH1 0x4 DUP2 ADD SLOAD PUSH1 0x80 DUP5 ADD MSTORE PUSH1 0x5 DUP2 ADD SLOAD PUSH1 0xA0 DUP5 ADD MSTORE ADD SLOAD PUSH1 0xC0 DUP3 ADD MSTORE PUSH2 0xC8D DUP3 DUP10 PUSH2 0x1569 JUMP JUMPDEST MSTORE PUSH2 0xC98 DUP2 DUP9 PUSH2 0x1569 JUMP JUMPDEST POP ADD PUSH2 0xB4F JUMP JUMPDEST PUSH2 0xCA7 PUSH2 0x1519 JUMP JUMPDEST DUP3 DUP3 DUP11 ADD ADD MSTORE ADD DUP5 SWAP1 PUSH2 0xB42 JUMP JUMPDEST SWAP1 POP SWAP3 PUSH2 0xAEB JUMP JUMPDEST CALLVALUE PUSH2 0x18C JUMPI PUSH1 0x0 CALLDATASIZE PUSH1 0x3 NOT ADD SLT PUSH2 0x18C JUMPI PUSH1 0x0 SLOAD PUSH1 0x40 MLOAD PUSH1 0x1 PUSH1 0x1 PUSH1 0xA0 SHL SUB SWAP1 SWAP2 AND DUP2 MSTORE PUSH1 0x20 SWAP1 RETURN JUMPDEST CALLVALUE PUSH2 0x18C JUMPI PUSH1 0x20 CALLDATASIZE PUSH1 0x3 NOT ADD SLT PUSH2 0x18C JUMPI PUSH1 0x1 PUSH1 0x1 PUSH1 0xA0 SHL SUB SWAP1 DUP2 PUSH2 0xD09 PUSH2 0x125C JUMP JUMPDEST AND PUSH1 0x0 MSTORE PUSH1 0x5 PUSH1 0x20 MSTORE PUSH1 0x40 PUSH1 0x0 KECCAK256 SWAP2 PUSH2 0xD21 DUP4 PUSH2 0x1321 JUMP JUMPDEST SWAP3 PUSH2 0xD2E PUSH1 0x1 DUP3 ADD PUSH2 0x1321 JUMP JUMPDEST SWAP1 PUSH1 0xFF PUSH2 0xD3D PUSH1 0x2 DUP4 ADD PUSH2 0x1321 JUMP JUMPDEST PUSH2 0xD84 PUSH1 0x3 DUP5 ADD SLOAD SWAP2 PUSH2 0xD76 PUSH1 0x5 PUSH1 0x4 DUP8 ADD SLOAD SWAP7 ADD SLOAD SWAP7 PUSH2 0xD68 PUSH1 0x40 MLOAD SWAP12 DUP12 DUP14 SWAP13 DUP14 MSTORE DUP13 ADD SWAP1 PUSH2 0x13C6 JUMP JUMPDEST SWAP1 DUP11 DUP3 SUB PUSH1 0x20 DUP13 ADD MSTORE PUSH2 0x13C6 JUMP JUMPDEST SWAP1 DUP9 DUP3 SUB PUSH1 0x40 DUP11 ADD MSTORE PUSH2 0x13C6 JUMP JUMPDEST SWAP5 DUP2 AND PUSH1 0x60 DUP8 ADD MSTORE PUSH1 0xA0 SHR AND ISZERO ISZERO PUSH1 0x80 DUP6 ADD MSTORE PUSH1 0xA0 DUP5 ADD MSTORE PUSH1 0xC0 DUP4 ADD MSTORE SUB SWAP1 RETURN JUMPDEST CALLVALUE PUSH2 0x18C JUMPI PUSH1 0x0 CALLDATASIZE PUSH1 0x3 NOT ADD SLT PUSH2 0x18C JUMPI CALLER PUSH1 0x0 MSTORE PUSH1 0x4 PUSH1 0x20 MSTORE PUSH1 0xFF PUSH1 0x40 PUSH1 0x0 KECCAK256 SLOAD AND PUSH2 0xE16 JUMPI CALLER PUSH1 0x0 MSTORE PUSH1 0x4 PUSH1 0x20 MSTORE PUSH1 0x40 PUSH1 0x0 KECCAK256 PUSH1 0x1 PUSH1 0xFF NOT DUP3 SLOAD AND OR SWAP1 SSTORE PUSH2 0xDEE CALLER PUSH2 0x14AA JUMP JUMPDEST CALLER PUSH32 0x8CD3331E32CEC677D80B82CF0F71496605E7ED6FF864A3CCEDC7D5D11D838C83 PUSH1 0x0 DUP1 LOG2 STOP JUMPDEST PUSH1 0x40 MLOAD PUSH3 0x461BCD PUSH1 0xE5 SHL DUP2 MSTORE PUSH1 0x20 PUSH1 0x4 DUP3 ADD MSTORE PUSH1 0x12 PUSH1 0x24 DUP3 ADD MSTORE PUSH18 0x105B1C9958591E481C9959DA5CDD195C9959 PUSH1 0x72 SHL PUSH1 0x44 DUP3 ADD MSTORE PUSH1 0x64 SWAP1 REVERT JUMPDEST CALLVALUE PUSH2 0x18C JUMPI PUSH1 0x20 CALLDATASIZE PUSH1 0x3 NOT ADD SLT PUSH2 0x18C JUMPI PUSH2 0xE69 PUSH2 0x125C JUMP JUMPDEST PUSH2 0xE71 PUSH2 0x1519 JUMP JUMPDEST POP PUSH1 0x1 DUP1 PUSH1 0xA0 SHL SUB AND PUSH1 0x0 MSTORE PUSH1 0x2 PUSH1 0x20 MSTORE PUSH1 0x40 PUSH1 0x0 KECCAK256 PUSH1 0x6 PUSH1 0x40 MLOAD SWAP2 PUSH2 0xE96 DUP4 PUSH2 0x12E3 JUMP JUMPDEST DUP1 SLOAD DUP4 MSTORE PUSH1 0x1 DUP2 ADD SLOAD PUSH1 0x20 DUP5 ADD MSTORE PUSH1 0x2 DUP2 ADD SLOAD PUSH1 0x40 DUP5 ADD MSTORE PUSH1 0x3 DUP2 ADD SLOAD PUSH1 0x60 DUP5 ADD MSTORE PUSH1 0x4 DUP2 ADD SLOAD PUSH1 0x80 DUP5 ADD MSTORE PUSH1 0x5 DUP2 ADD SLOAD PUSH1 0xA0 DUP5 ADD MSTORE ADD SLOAD PUSH1 0xC0 DUP3 ADD MSTORE PUSH2 0xF1C PUSH1 0x40 MLOAD DUP1 SWAP3 PUSH1 0xC0 DUP1 SWAP2 DUP1 MLOAD DUP5 MSTORE PUSH1 0x20 DUP2 ADD MLOAD PUSH1 0x20 DUP6 ADD MSTORE PUSH1 0x40 DUP2 ADD MLOAD PUSH1 0x40 DUP6 ADD MSTORE PUSH1 0x60 DUP2 ADD MLOAD PUSH1 0x60 DUP6 ADD MSTORE PUSH1 0x80 DUP2 ADD MLOAD PUSH1 0x80 DUP6 ADD MSTORE PUSH1 0xA0 DUP2 ADD MLOAD PUSH1 0xA0 DUP6 ADD MSTORE ADD MLOAD SWAP2 ADD MSTORE JUMP JUMPDEST RETURN JUMPDEST CALLVALUE PUSH2 0x18C JUMPI PUSH1 0x40 CALLDATASIZE PUSH1 0x3 NOT ADD SLT PUSH2 0x18C JUMPI PUSH2 0xF37 PUSH2 0x125C JUMP JUMPDEST PUSH1 0x24 CALLDATALOAD SWAP1 DUP2 ISZERO ISZERO DUP3 SUB PUSH2 0x18C JUMPI PUSH1 0x0 SLOAD PUSH1 0x1 PUSH1 0x1 PUSH1 0xA0 SHL SUB SWAP2 SWAP1 PUSH2 0xF5E SWAP1 DUP4 AND CALLER EQ PUSH2 0x1471 JUMP JUMPDEST AND PUSH1 0x0 MSTORE PUSH1 0x5 PUSH1 0x20 MSTORE PUSH1 0x40 PUSH1 0x0 KECCAK256 SWAP1 PUSH1 0xFF PUSH1 0x3 DUP4 ADD SLOAD PUSH1 0xA0 SHR AND ISZERO PUSH2 0xFA4 JUMPI PUSH1 0x4 DUP3 ADD PUSH2 0xF8B DUP2 SLOAD PUSH2 0x14E7 JUMP JUMPDEST SWAP1 SSTORE PUSH2 0xF93 JUMPI STOP JUMPDEST PUSH1 0x5 ADD PUSH2 0xFA0 DUP2 SLOAD PUSH2 0x14E7 JUMP JUMPDEST SWAP1 SSTORE STOP JUMPDEST PUSH1 0x40 MLOAD PUSH3 0x461BCD PUSH1 0xE5 SHL DUP2 MSTORE PUSH1 0x20 PUSH1 0x4 DUP3 ADD MSTORE PUSH1 0x10 PUSH1 0x24 DUP3 ADD MSTORE PUSH16 0x4167656E74206E6F7420616374697665 PUSH1 0x80 SHL PUSH1 0x44 DUP3 ADD MSTORE PUSH1 0x64 SWAP1 REVERT JUMPDEST CALLVALUE PUSH2 0x18C JUMPI PUSH1 0x20 CALLDATASIZE PUSH1 0x3 NOT ADD SLT PUSH2 0x18C JUMPI PUSH1 0x4 CALLDATALOAD PUSH1 0x6 SLOAD DUP2 LT ISZERO PUSH2 0x18C JUMPI PUSH1 0x6 PUSH1 0x0 MSTORE PUSH32 0xF652222313E28459528D920B65115C16C04F3EFC82AAEDC97BE59F3F377C0D3F ADD SLOAD PUSH1 0x40 MLOAD PUSH1 0x1 PUSH1 0x1 PUSH1 0xA0 SHL SUB SWAP1 SWAP2 AND DUP2 MSTORE PUSH1 0x20 SWAP1 RETURN JUMPDEST CALLVALUE PUSH2 0x18C JUMPI PUSH1 0x80 CALLDATASIZE PUSH1 0x3 NOT ADD SLT PUSH2 0x18C JUMPI PUSH2 0x1050 PUSH2 0x125C JUMP JUMPDEST PUSH1 0x44 CALLDATALOAD DUP1 ISZERO ISZERO DUP2 SUB PUSH2 0x18C JUMPI PUSH1 0x0 SLOAD PUSH1 0x1 PUSH1 0x1 PUSH1 0xA0 SHL SUB SWAP1 DUP2 AND CALLER EQ DUP1 ISZERO PUSH2 0x11BC JUMPI JUMPDEST ISZERO PUSH2 0x1186 JUMPI PUSH32 0x80140D6BCEE83A25999242A95412EA6B9754C623FC171E8D4C86C8392C053AD9 SWAP2 PUSH1 0x40 SWAP2 DUP5 AND SWAP4 DUP5 PUSH1 0x0 MSTORE PUSH1 0x4 PUSH1 0x20 MSTORE DUP3 PUSH1 0x0 KECCAK256 SWAP1 DUP2 SLOAD SWAP2 PUSH1 0xFF DUP4 AND ISZERO PUSH2 0x116C JUMPI JUMPDEST POP POP POP DUP4 PUSH1 0x0 MSTORE PUSH1 0x2 PUSH1 0x20 MSTORE DUP2 PUSH1 0x0 KECCAK256 SWAP1 PUSH2 0x10D6 DUP3 SLOAD PUSH2 0x14E7 JUMP JUMPDEST DUP3 SSTORE PUSH1 0x2 DUP3 ADD PUSH2 0x10E9 PUSH1 0x24 CALLDATALOAD DUP3 SLOAD PUSH2 0x150C JUMP JUMPDEST SWAP1 SSTORE PUSH1 0x6 DUP3 ADD PUSH2 0x10F9 DUP2 SLOAD PUSH2 0x14E7 JUMP JUMPDEST SWAP1 SSTORE ISZERO PUSH2 0x1160 JUMPI PUSH1 0x1 DUP2 ADD PUSH2 0x110E DUP2 SLOAD PUSH2 0x14E7 JUMP JUMPDEST SWAP1 SSTORE PUSH1 0x3 DUP2 ADD PUSH2 0x1121 PUSH1 0x64 CALLDATALOAD DUP3 SLOAD PUSH2 0x150C JUMP JUMPDEST SWAP1 SSTORE PUSH1 0x4 DUP2 ADD PUSH2 0x1131 DUP2 SLOAD PUSH2 0x14E7 JUMP JUMPDEST DUP1 SWAP2 SSTORE PUSH1 0x5 DUP3 ADD DUP1 SLOAD DUP3 GT PUSH2 0x1158 JUMPI JUMPDEST POP POP JUMPDEST PUSH1 0x1 DUP2 ADD SLOAD SWAP1 SLOAD DUP3 MLOAD SWAP2 DUP3 MSTORE PUSH1 0x20 DUP3 ADD MSTORE LOG2 STOP JUMPDEST SSTORE DUP5 DUP1 PUSH2 0x1141 JUMP JUMPDEST PUSH1 0x0 PUSH1 0x4 DUP3 ADD SSTORE PUSH2 0x1144 JUMP JUMPDEST PUSH1 0x1 PUSH2 0x117E SWAP4 PUSH1 0xFF NOT AND OR SWAP1 SSTORE PUSH2 0x14AA JUMP JUMPDEST DUP5 DUP1 DUP1 PUSH2 0x10BB JUMP JUMPDEST PUSH1 0x40 MLOAD PUSH3 0x461BCD PUSH1 0xE5 SHL DUP2 MSTORE PUSH1 0x20 PUSH1 0x4 DUP3 ADD MSTORE PUSH1 0xE PUSH1 0x24 DUP3 ADD MSTORE PUSH14 0x139BDD08185D5D1A1BDC9A5E9959 PUSH1 0x92 SHL PUSH1 0x44 DUP3 ADD MSTORE PUSH1 0x64 SWAP1 REVERT JUMPDEST POP DUP1 PUSH1 0x1 SLOAD AND CALLER EQ PUSH2 0x1073 JUMP JUMPDEST CALLVALUE PUSH2 0x18C JUMPI PUSH1 0x20 CALLDATASIZE PUSH1 0x3 NOT ADD SLT PUSH2 0x18C JUMPI PUSH1 0x4 CALLDATALOAD PUSH1 0x3 SLOAD DUP2 LT ISZERO PUSH2 0x18C JUMPI PUSH2 0x11F2 PUSH1 0x20 SWAP2 PUSH2 0x1272 JUMP JUMPDEST SWAP1 SLOAD PUSH1 0x40 MLOAD PUSH1 0x3 SWAP3 SWAP1 SWAP3 SHL SHR PUSH1 0x1 PUSH1 0x1 PUSH1 0xA0 SHL SUB AND DUP2 MSTORE RETURN JUMPDEST CALLVALUE PUSH2 0x18C JUMPI PUSH1 0x20 CALLDATASIZE PUSH1 0x3 NOT ADD SLT PUSH2 0x18C JUMPI PUSH2 0x1224 PUSH2 0x125C JUMP JUMPDEST PUSH1 0x0 SLOAD PUSH1 0x1 PUSH1 0x1 PUSH1 0xA0 SHL SUB SWAP2 SWAP1 PUSH2 0x123E SWAP1 DUP4 AND CALLER EQ PUSH2 0x1471 JUMP JUMPDEST AND PUSH12 0xFFFFFFFFFFFFFFFFFFFFFFFF PUSH1 0xA0 SHL PUSH1 0x1 SLOAD AND OR PUSH1 0x1 SSTORE PUSH1 0x0 DUP1 RETURN JUMPDEST PUSH1 0x4 CALLDATALOAD SWAP1 PUSH1 0x1 PUSH1 0x1 PUSH1 0xA0 SHL SUB DUP3 AND DUP3 SUB PUSH2 0x18C JUMPI JUMP JUMPDEST PUSH1 0x3 SLOAD DUP2 LT ISZERO PUSH2 0x5A7 JUMPI PUSH1 0x3 PUSH1 0x0 MSTORE PUSH32 0xC2575A0E9E593C00F959F8C92F12DB2869C3395A3B0502D05E2516446F71F85B ADD SWAP1 PUSH1 0x0 SWAP1 JUMP JUMPDEST SWAP1 PUSH1 0x1 DUP3 DUP2 SHR SWAP3 AND DUP1 ISZERO PUSH2 0x12D9 JUMPI JUMPDEST PUSH1 0x20 DUP4 LT EQ PUSH2 0x12C3 JUMPI JUMP JUMPDEST PUSH4 0x4E487B71 PUSH1 0xE0 SHL PUSH1 0x0 MSTORE PUSH1 0x22 PUSH1 0x4 MSTORE PUSH1 0x24 PUSH1 0x0 REVERT JUMPDEST SWAP2 PUSH1 0x7F AND SWAP2 PUSH2 0x12B8 JUMP JUMPDEST PUSH1 0xE0 DUP2 ADD SWAP1 DUP2 LT PUSH8 0xFFFFFFFFFFFFFFFF DUP3 GT OR PUSH2 0x5BD JUMPI PUSH1 0x40 MSTORE JUMP JUMPDEST SWAP1 PUSH1 0x1F DUP1 NOT SWAP2 ADD AND DUP2 ADD SWAP1 DUP2 LT PUSH8 0xFFFFFFFFFFFFFFFF DUP3 GT OR PUSH2 0x5BD JUMPI PUSH1 0x40 MSTORE JUMP JUMPDEST SWAP1 PUSH1 0x40 MLOAD SWAP2 DUP3 PUSH1 0x0 DUP3 SLOAD PUSH2 0x1334 DUP2 PUSH2 0x12A9 JUMP JUMPDEST SWAP1 DUP2 DUP5 MSTORE PUSH1 0x20 SWAP5 PUSH1 0x1 SWAP2 PUSH1 0x1 DUP2 AND SWAP1 DUP2 PUSH1 0x0 EQ PUSH2 0x13A4 JUMPI POP PUSH1 0x1 EQ PUSH2 0x1365 JUMPI JUMPDEST POP POP POP PUSH2 0x1363 SWAP3 POP SUB DUP4 PUSH2 0x12FF JUMP JUMPDEST JUMP JUMPDEST PUSH1 0x0 SWAP1 DUP2 MSTORE DUP6 DUP2 KECCAK256 SWAP6 SWAP4 POP SWAP2 SWAP1 JUMPDEST DUP2 DUP4 LT PUSH2 0x138C JUMPI POP POP PUSH2 0x1363 SWAP4 POP DUP3 ADD ADD CODESIZE DUP1 DUP1 PUSH2 0x1354 JUMP JUMPDEST DUP6 SLOAD DUP9 DUP5 ADD DUP6 ADD MSTORE SWAP5 DUP6 ADD SWAP5 DUP8 SWAP5 POP SWAP2 DUP4 ADD SWAP2 PUSH2 0x1373 JUMP JUMPDEST SWAP3 POP POP POP PUSH2 0x1363 SWAP5 SWAP3 POP PUSH1 0xFF NOT AND DUP3 DUP5 ADD MSTORE ISZERO ISZERO PUSH1 0x5 SHL DUP3 ADD ADD CODESIZE DUP1 DUP1 PUSH2 0x1354 JUMP JUMPDEST SWAP2 SWAP1 DUP3 MLOAD SWAP3 DUP4 DUP3 MSTORE PUSH1 0x0 JUMPDEST DUP5 DUP2 LT PUSH2 0x13F2 JUMPI POP POP DUP3 PUSH1 0x0 PUSH1 0x20 DUP1 SWAP5 SWAP6 DUP5 ADD ADD MSTORE PUSH1 0x1F DUP1 NOT SWAP2 ADD AND ADD ADD SWAP1 JUMP JUMPDEST PUSH1 0x20 DUP2 DUP4 ADD DUP2 ADD MLOAD DUP5 DUP4 ADD DUP3 ADD MSTORE ADD PUSH2 0x13D1 JUMP JUMPDEST SWAP1 DUP2 MLOAD DUP1 DUP3 MSTORE PUSH1 0x20 DUP1 DUP1 SWAP4 ADD SWAP4 ADD SWAP2 PUSH1 0x0 JUMPDEST DUP3 DUP2 LT PUSH2 0x1426 JUMPI POP POP POP POP SWAP1 JUMP JUMPDEST DUP4 MLOAD PUSH1 0x1 PUSH1 0x1 PUSH1 0xA0 SHL SUB AND DUP6 MSTORE SWAP4 DUP2 ADD SWAP4 SWAP3 DUP2 ADD SWAP3 PUSH1 0x1 ADD PUSH2 0x1418 JUMP JUMPDEST SWAP2 DUP2 PUSH1 0x1F DUP5 ADD SLT ISZERO PUSH2 0x18C JUMPI DUP3 CALLDATALOAD SWAP2 PUSH8 0xFFFFFFFFFFFFFFFF DUP4 GT PUSH2 0x18C JUMPI PUSH1 0x20 DUP4 DUP2 DUP7 ADD SWAP6 ADD ADD GT PUSH2 0x18C JUMPI JUMP JUMPDEST ISZERO PUSH2 0x1478 JUMPI JUMP JUMPDEST PUSH1 0x40 MLOAD PUSH3 0x461BCD PUSH1 0xE5 SHL DUP2 MSTORE PUSH1 0x20 PUSH1 0x4 DUP3 ADD MSTORE PUSH1 0xA PUSH1 0x24 DUP3 ADD MSTORE PUSH10 0x27B7363C9037BBB732B9 PUSH1 0xB1 SHL PUSH1 0x44 DUP3 ADD MSTORE PUSH1 0x64 SWAP1 REVERT JUMPDEST PUSH1 0x3 SLOAD PUSH1 0x1 PUSH1 0x40 SHL DUP2 LT ISZERO PUSH2 0x5BD JUMPI DUP1 PUSH1 0x1 PUSH2 0x14C9 SWAP3 ADD PUSH1 0x3 SSTORE PUSH2 0x1272 JUMP JUMPDEST PUSH1 0x1 DUP1 PUSH1 0xA0 SWAP5 SWAP4 SWAP5 SHL SUB DUP1 DUP5 SLOAD SWAP3 PUSH1 0x3 SHL SWAP4 AND DUP4 SHL SWAP3 SHL NOT AND OR SWAP1 SSTORE JUMP JUMPDEST PUSH1 0x0 NOT DUP2 EQ PUSH2 0x14F6 JUMPI PUSH1 0x1 ADD SWAP1 JUMP JUMPDEST PUSH4 0x4E487B71 PUSH1 0xE0 SHL PUSH1 0x0 MSTORE PUSH1 0x11 PUSH1 0x4 MSTORE PUSH1 0x24 PUSH1 0x0 REVERT JUMPDEST SWAP2 SWAP1 DUP3 ADD DUP1 SWAP3 GT PUSH2 0x14F6 JUMPI JUMP JUMPDEST PUSH1 0x40 MLOAD SWAP1 PUSH2 0x1526 DUP3 PUSH2 0x12E3 JUMP JUMPDEST DUP2 PUSH1 0xC0 PUSH1 0x0 SWAP2 DUP3 DUP2 MSTORE DUP3 PUSH1 0x20 DUP3 ADD MSTORE DUP3 PUSH1 0x40 DUP3 ADD MSTORE DUP3 PUSH1 0x60 DUP3 ADD MSTORE DUP3 PUSH1 0x80 DUP3 ADD MSTORE DUP3 PUSH1 0xA0 DUP3 ADD MSTORE ADD MSTORE JUMP JUMPDEST PUSH8 0xFFFFFFFFFFFFFFFF DUP2 GT PUSH2 0x5BD JUMPI PUSH1 0x5 SHL PUSH1 0x20 ADD SWAP1 JUMP JUMPDEST DUP1 MLOAD DUP3 LT ISZERO PUSH2 0x5A7 JUMPI PUSH1 0x20 SWAP2 PUSH1 0x5 SHL ADD ADD SWAP1 JUMP JUMPDEST SWAP3 SWAP2 SWAP3 PUSH8 0xFFFFFFFFFFFFFFFF DUP3 GT PUSH2 0x5BD JUMPI PUSH1 0x40 MLOAD SWAP2 PUSH2 0x15A7 PUSH1 0x1F DUP3 ADD PUSH1 0x1F NOT AND PUSH1 0x20 ADD DUP5 PUSH2 0x12FF JUMP JUMPDEST DUP3 SWAP5 DUP2 DUP5 MSTORE DUP2 DUP4 ADD GT PUSH2 0x18C JUMPI DUP3 DUP2 PUSH1 0x20 SWAP4 DUP5 PUSH1 0x0 SWAP7 ADD CALLDATACOPY ADD ADD MSTORE JUMP JUMPDEST SWAP1 DUP1 PUSH1 0x20 SWAP4 SWAP3 DUP2 DUP5 MSTORE DUP5 DUP5 ADD CALLDATACOPY PUSH1 0x0 DUP3 DUP3 ADD DUP5 ADD MSTORE PUSH1 0x1F ADD PUSH1 0x1F NOT AND ADD ADD SWAP1 JUMP INVALID LOG2 PUSH5 0x6970667358 0x22 SLT KECCAK256 0xB7 PUSH13 0x4DCBC5599FDE9BFD337D64A225 0xC1 STATICCALL SWAP2 0x2A 0xE 0xE8 0xB0 0xF SMOD GASPRICE ADDRESS DUP5 ADD SELFDESTRUCT DUP8 0xE9 0xC5 PUSH5 0x736F6C6343 STOP ADDMOD XOR STOP CALLER "
        },
        "methodIdentifiers": {
          "aiAgentAddresses(uint256)": "267873e8",
          "aiAgents(address)": "77bad62e",
          "allPlayers(uint256)": "0544ce5e",
          "getAIAgent(address)": "a447006d",
          "getAllAIAgents()": "fe42802c",
          "getAllPlayers()": "efa1c482",
          "getLeaderboard(uint256)": "a34b46fe",
          "getPlayerCount()": "c2e52206",
          "getPlayerStats(address)": "4fd66eae",
          "isRegistered(address)": "c3c5a547",
          "owner()": "8da5cb5b",
          "playerStats(address)": "cdafbbb6",
          "predictionMarket()": "def114b6",
          "recordBetResult(address,uint256,bool,uint256)": "09ddd43b",
          "registerAIAgent(address,string,string,string)": "eb2913a0",
          "registerPlayer()": "5c07a4b0",
          "setPredictionMarket(address)": "03b88ba2",
          "transferOwnership(address)": "f2fde38b",
          "updateAIAgentStats(address,bool)": "3500e8d6"
        }
      }
    }
  }
}