{
  "contracts/PredictionMarket.sol": {
    "PredictionMarket": {
      "abi": [
        {
          "inputs": [],
          "stateMutability": "nonpayable",
          "type": "constructor"
        },
        {
          "anonymous": false,
          "inputs": [
            {
              "indexed": true,
              "internalType": "uint256",
              "name": "marketId",
              "type": "uint256"
            },
            {
              "indexed": true,
              "internalType": "address",
              "name": "bettor",
              "type": "address"
            },
            {
              "indexed": false,
              "internalType": "uint256",
              "name": "outcomeIndex",
              "type": "uint256"
            },
            {
              "indexed": false,
              "internalType": "uint256",
              "name": "amount",
              "type": "uint256"
            }
          ],
          "name": "BetPlaced",
          "type": "event"
        },
        {
          "anonymous": false,
          "inputs": [
            {
              "indexed": true,
              "internalType": "address",
              "name": "to",
              "type": "address"
            },
            {
              "indexed": false,
              "internalType": "uint256",
              "name": "amount",
              "type": "uint256"
            }
          ],
          "name": "FeesWithdrawn",
          "type": "event"
        },
        {
          "anonymous": false,
          "inputs": [
            {
              "indexed": true,
              "internalType": "uint256",
              "name": "marketId",
              "type": "uint256"
            },
            {
              "indexed": false,
              "internalType": "string",
              "name": "question",
              "type": "string"
            },
            {
              "indexed": false,
              "internalType": "string",
              "name": "category",
              "type": "string"
            },
            {
              "indexed": false,
              "internalType": "uint256",
              "name": "outcomeCount",
              "type": "uint256"
            },
            {
              "indexed": false,
              "internalType": "uint256",
              "name": "startTime",
              "type": "uint256"
            },
            {
              "indexed": false,
              "internalType": "uint256",
              "name": "endTime",
              "type": "uint256"
            },
            {
              "indexed": true,
              "internalType": "address",
              "name": "creator",
              "type": "address"
            },
            {
              "indexed": false,
              "internalType": "bool",
              "name": "isPrivate",
              "type": "bool"
            },
            {
              "indexed": false,
              "internalType": "uint8",
              "name": "resolutionType",
              "type": "uint8"
            }
          ],
          "name": "MarketCreated",
          "type": "event"
        },
        {
          "anonymous": false,
          "inputs": [
            {
              "indexed": true,
              "internalType": "uint256",
              "name": "marketId",
              "type": "uint256"
            },
            {
              "indexed": false,
              "internalType": "uint256",
              "name": "winningOutcome",
              "type": "uint256"
            },
            {
              "indexed": false,
              "internalType": "string",
              "name": "winningLabel",
              "type": "string"
            },
            {
              "indexed": false,
              "internalType": "uint256",
              "name": "totalPool",
              "type": "uint256"
            }
          ],
          "name": "MarketResolved",
          "type": "event"
        },
        {
          "anonymous": false,
          "inputs": [
            {
              "indexed": true,
              "internalType": "uint256",
              "name": "marketId",
              "type": "uint256"
            },
            {
              "indexed": true,
              "internalType": "address",
              "name": "bettor",
              "type": "address"
            },
            {
              "indexed": false,
              "internalType": "uint256",
              "name": "payout",
              "type": "uint256"
            }
          ],
          "name": "WinningsClaimed",
          "type": "event"
        },
        {
          "inputs": [],
          "name": "BPS_DENOM",
          "outputs": [
            {
              "internalType": "uint256",
              "name": "",
              "type": "uint256"
            }
          ],
          "stateMutability": "view",
          "type": "function"
        },
        {
          "inputs": [],
          "name": "CREATOR_FEE_BPS",
          "outputs": [
            {
              "internalType": "uint256",
              "name": "",
              "type": "uint256"
            }
          ],
          "stateMutability": "view",
          "type": "function"
        },
        {
          "inputs": [],
          "name": "PLATFORM_FEE_BPS",
          "outputs": [
            {
              "internalType": "uint256",
              "name": "",
              "type": "uint256"
            }
          ],
          "stateMutability": "view",
          "type": "function"
        },
        {
          "inputs": [
            {
              "internalType": "uint256",
              "name": "",
              "type": "uint256"
            },
            {
              "internalType": "address",
              "name": "",
              "type": "address"
            }
          ],
          "name": "bets",
          "outputs": [
            {
              "internalType": "uint256",
              "name": "amount",
              "type": "uint256"
            },
            {
              "internalType": "uint256",
              "name": "outcomeIndex",
              "type": "uint256"
            },
            {
              "internalType": "bool",
              "name": "claimed",
              "type": "bool"
            }
          ],
          "stateMutability": "view",
          "type": "function"
        },
        {
          "inputs": [
            {
              "internalType": "uint256",
              "name": "_marketId",
              "type": "uint256"
            }
          ],
          "name": "claimWinnings",
          "outputs": [],
          "stateMutability": "nonpayable",
          "type": "function"
        },
        {
          "inputs": [
            {
              "internalType": "string",
              "name": "_question",
              "type": "string"
            },
            {
              "internalType": "string",
              "name": "_rules",
              "type": "string"
            },
            {
              "internalType": "string",
              "name": "_imageURI",
              "type": "string"
            },
            {
              "internalType": "string",
              "name": "_category",
              "type": "string"
            },
            {
              "internalType": "string[]",
              "name": "_outcomes",
              "type": "string[]"
            },
            {
              "internalType": "uint256",
              "name": "_startTime",
              "type": "uint256"
            },
            {
              "internalType": "uint256",
              "name": "_endTime",
              "type": "uint256"
            },
            {
              "internalType": "bool",
              "name": "_isPrivate",
              "type": "bool"
            },
            {
              "internalType": "string",
              "name": "_accessCode",
              "type": "string"
            },
            {
              "internalType": "uint8",
              "name": "_resolutionType",
              "type": "uint8"
            }
          ],
          "name": "createMarket",
          "outputs": [
            {
              "internalType": "uint256",
              "name": "",
              "type": "uint256"
            }
          ],
          "stateMutability": "payable",
          "type": "function"
        },
        {
          "inputs": [
            {
              "internalType": "uint256",
              "name": "_marketId",
              "type": "uint256"
            },
            {
              "internalType": "address",
              "name": "_bettor",
              "type": "address"
            }
          ],
          "name": "getBet",
          "outputs": [
            {
              "components": [
                {
                  "internalType": "uint256",
                  "name": "amount",
                  "type": "uint256"
                },
                {
                  "internalType": "uint256",
                  "name": "outcomeIndex",
                  "type": "uint256"
                },
                {
                  "internalType": "bool",
                  "name": "claimed",
                  "type": "bool"
                }
              ],
              "internalType": "struct PredictionMarket.Bet",
              "name": "",
              "type": "tuple"
            }
          ],
          "stateMutability": "view",
          "type": "function"
        },
        {
          "inputs": [
            {
              "internalType": "uint256",
              "name": "_marketId",
              "type": "uint256"
            }
          ],
          "name": "getMarket",
          "outputs": [
            {
              "internalType": "uint256",
              "name": "id",
              "type": "uint256"
            },
            {
              "internalType": "string",
              "name": "question",
              "type": "string"
            },
            {
              "internalType": "string",
              "name": "rules",
              "type": "string"
            },
            {
              "internalType": "string",
              "name": "imageURI",
              "type": "string"
            },
            {
              "internalType": "string",
              "name": "category",
              "type": "string"
            },
            {
              "internalType": "string[]",
              "name": "outcomeLabels",
              "type": "string[]"
            },
            {
              "internalType": "uint256[]",
              "name": "outcomePools",
              "type": "uint256[]"
            },
            {
              "internalType": "uint256",
              "name": "outcomeCount",
              "type": "uint256"
            },
            {
              "internalType": "uint256",
              "name": "endTime",
              "type": "uint256"
            },
            {
              "internalType": "uint256",
              "name": "startTime",
              "type": "uint256"
            },
            {
              "internalType": "uint256",
              "name": "totalPool",
              "type": "uint256"
            },
            {
              "internalType": "bool",
              "name": "resolved",
              "type": "bool"
            },
            {
              "internalType": "uint256",
              "name": "winningOutcome",
              "type": "uint256"
            },
            {
              "internalType": "address",
              "name": "creator",
              "type": "address"
            },
            {
              "internalType": "uint256",
              "name": "createdAt",
              "type": "uint256"
            },
            {
              "internalType": "bool",
              "name": "isPrivate",
              "type": "bool"
            },
            {
              "internalType": "uint8",
              "name": "resolutionType",
              "type": "uint8"
            }
          ],
          "stateMutability": "view",
          "type": "function"
        },
        {
          "inputs": [
            {
              "internalType": "uint256",
              "name": "_marketId",
              "type": "uint256"
            }
          ],
          "name": "getMarketBettors",
          "outputs": [
            {
              "internalType": "address[]",
              "name": "",
              "type": "address[]"
            }
          ],
          "stateMutability": "view",
          "type": "function"
        },
        {
          "inputs": [
            {
              "internalType": "uint256",
              "name": "_marketId",
              "type": "uint256"
            }
          ],
          "name": "getOutcomeOdds",
          "outputs": [
            {
              "internalType": "uint256[]",
              "name": "percents",
              "type": "uint256[]"
            }
          ],
          "stateMutability": "view",
          "type": "function"
        },
        {
          "inputs": [
            {
              "internalType": "address",
              "name": "_user",
              "type": "address"
            }
          ],
          "name": "getUserMarkets",
          "outputs": [
            {
              "internalType": "uint256[]",
              "name": "",
              "type": "uint256[]"
            }
          ],
          "stateMutability": "view",
          "type": "function"
        },
        {
          "inputs": [
            {
              "internalType": "uint256",
              "name": "",
              "type": "uint256"
            },
            {
              "internalType": "uint256",
              "name": "",
              "type": "uint256"
            }
          ],
          "name": "marketBettors",
          "outputs": [
            {
              "internalType": "address",
              "name": "",
              "type": "address"
            }
          ],
          "stateMutability": "view",
          "type": "function"
        },
        {
          "inputs": [],
          "name": "marketCount",
          "outputs": [
            {
              "internalType": "uint256",
              "name": "",
              "type": "uint256"
            }
          ],
          "stateMutability": "view",
          "type": "function"
        },
        {
          "inputs": [],
          "name": "owner",
          "outputs": [
            {
              "internalType": "address",
              "name": "",
              "type": "address"
            }
          ],
          "stateMutability": "view",
          "type": "function"
        },
        {
          "inputs": [
            {
              "internalType": "uint256",
              "name": "_marketId",
              "type": "uint256"
            },
            {
              "internalType": "uint256",
              "name": "_outcomeIndex",
              "type": "uint256"
            },
            {
              "internalType": "string",
              "name": "_accessCode",
              "type": "string"
            }
          ],
          "name": "placeBet",
          "outputs": [],
          "stateMutability": "payable",
          "type": "function"
        },
        {
          "inputs": [
            {
              "internalType": "uint256",
              "name": "_marketId",
              "type": "uint256"
            },
            {
              "internalType": "uint256",
              "name": "_winningOutcome",
              "type": "uint256"
            }
          ],
          "name": "resolveMarket",
          "outputs": [],
          "stateMutability": "nonpayable",
          "type": "function"
        },
        {
          "inputs": [],
          "name": "totalPlatformFees",
          "outputs": [
            {
              "internalType": "uint256",
              "name": "",
              "type": "uint256"
            }
          ],
          "stateMutability": "view",
          "type": "function"
        },
        {
          "inputs": [
            {
              "internalType": "address",
              "name": "_newOwner",
              "type": "address"
            }
          ],
          "name": "transferOwnership",
          "outputs": [],
          "stateMutability": "nonpayable",
          "type": "function"
        },
        {
          "inputs": [
            {
              "internalType": "address",
              "name": "",
              "type": "address"
            },
            {
              "internalType": "uint256",
              "name": "",
              "type": "uint256"
            }
          ],
          "name": "userMarkets",
          "outputs": [
            {
              "internalType": "uint256",
              "name": "",
              "type": "uint256"
            }
          ],
          "stateMutability": "view",
          "type": "function"
        },
        {
          "inputs": [
            {
              "internalType": "address",
              "name": "_to",
              "type": "address"
            }
          ],
          "name": "withdrawPlatformFees",
          "outputs": [],
          "stateMutability": "nonpayable",
          "type": "function"
        },
        {
          "stateMutability": "payable",
          "type": "receive"
        }
      ],
      "evm": {
        "bytecode": {
          "linkReferences": {},
          "object": "6080806040523461002857600080546001600160a01b031916331790556123c3908161002e8239f35b600080fdfe6101e080604052600436101561001e575b50361561001c57600080fd5b005b60003560e01c9081630b501ab814611d9057508063539aa77f14611d745780636055733314611afb5780636637e38c14611ade578063677bd9ff146118ab5780638da5cb5b14611882578063bb34223a14610d08578063bc5c4eb314610b29578063cc3cbd2a14610b0d578063d3631fa514610aef578063da4473d814610a9d578063db0f871d14610a45578063e053bcec146109fb578063e0950ddf1461095d578063eb44fdd31461063d578063ec3889b514610550578063ec97908214610532578063ed732ddb146101ea578063f2fde38b146101705763f644b3bb146101075738610010565b3461016b57604036600319011261016b57610120611ed1565b600435600052600460205260406000209060018060a01b03166000526020526060604060002080549060ff600260018301549201541690604051928352602083015215156040820152f35b600080fd5b3461016b57602036600319011261016b57610189611ebb565b600054906001600160a01b03906101a33383851614612355565b169081156101bb576001600160a01b03191617600055005b60405162461bcd60e51b8152602060048201526007602482015266125b9d985b1a5960ca1b6044820152606490fd5b606036600319011261016b5760043560249081359160449081356001600160401b03811161016b57610220903690600401611e5a565b909261022f6001548610611f91565b8460005260209360038552604060002092600984015442106104fa5760088401544210156104c85761026860ff600b8601541615611fd5565b34156104905761027d60078501548910612014565b8660005260048652604060002033600052865260406000205461045f5760ff600f850154166103f0575b505050600a906103086040516102bc81611f55565b34815260028682018981526040830190600082528960005260048952604060002033600052895260406000209351845551600184015551151591019060ff801983541691151516179055565b61033f6103188760068401611ee7565b6103283483548360031b1c61206f565b825460001960039390931b92831b1916911b179055565b0161034b34825461206f565b905582600052600582526040600020805491600160401b8310156103dc57509061037a91600182018155611ee7565b81549060031b9033821b9160018060a01b03901b191617905533600052600681526103a98260406000206122a5565b60405192835234908301527f1b8a9031cb9351278d70a994f81536e9e08c91162e64f92b2fe4766fb7a891b460403393a3005b634e487b7160e01b60009081526041600452fd5b610413866040518381948383019687378101600083820152038084520182611f70565b5190206010830154036104275780806102a7565b8372496e76616c69642061636365737320636f646560681b6064926013866040519462461bcd60e51b86526004860152840152820152fd5b60405162461bcd60e51b815260048101879052600b818701526a105b1c9958591e4818995d60aa1b81850152606490fd5b60405162461bcd60e51b815260048101879052601281870152710416d6f756e74206d757374206265203e20360741b81850152606490fd5b60405162461bcd60e51b815260048101879052600c818701526b13585c9ad95d08195b99195960a21b81850152606490fd5b60405162461bcd60e51b8152600481018790526012818701527113585c9ad95d081b9bdd081cdd185c9d195960721b81850152606490fd5b3461016b57600036600319011261016b576020600154604051908152f35b3461016b57602036600319011261016b57610569611ebb565b6000546001600160a01b03906105829082163314612355565b60025491821561060e5760006002551690600080808084865af16105a4612097565b50156105d75760207fc0819c13be868895eb93e40eaceb96de976442fa1d404e5c55f14bb65a8c489a91604051908152a2005b60405162461bcd60e51b815260206004820152600f60248201526e151c985b9cd9995c8819985a5b1959608a1b6044820152606490fd5b60405162461bcd60e51b81526020600482015260076024820152664e6f206665657360c81b6044820152606490fd5b3461016b57602036600319011261016b57600435600052600360205260406000206101c0526101c0515460076101c05101546101405260086101c05101549060096101c0510154600a6101c051015460ff600b6101c051015416600c6101c05101549160018060a01b03600d6101c05101541693600e6101c05101549560ff600f6101c05101541660e05260ff60116101c0510154166101005260405161018052610702610180516106f86101805160016101c05101612101565b0361018051611f70565b604051610720816107198160026101c05101612101565b0382611f70565b604051610737816107198160036101c05101612101565b604051916107568361074f8160046101c05101612101565b0384611f70565b60056101c0510154610767816121a4565b6101a052604051610160526107826101a05161016051611f70565b8061016051526101605150602061016051018060c05260056101c0510160005260206000206000915b83831061093857505050506108389291610810610824926107fc6107d460066101c05101612304565b9760405161012052610220906101205152806020610120510152610120510161018051611f15565b906101205182036040610120510152611f15565b906101205182036060610120510152611f15565b906101205182036080610120510152611f15565b61012051810360a0610120510152610160515190818152602081019060208360051b82010160805260c05160a0526000915b838310610905575050505061089290610120516080510360c061012051015260805190611e87565b966101405160e06101205101526101006101205101526101208051015261014061012051015215156101606101205101526101806101205101526101a06101205101526101c061012051015260e05115156101e06101205101526101005161020061012051015261012051900361012051f35b6020600191601f19846080510301815261092460805160a05151611f15565b6080528160a0510160a0520192019161086a565b60016020819260405161094f816107198189612101565b8152019201920191906107ab565b3461016b57604036600319011261016b57610976611ed1565b60006040805161098581611f55565b8281528260208201520152600435600052600460205260406000209060018060a01b0316600052602052606060406000206040516109c281611f55565b815491828252604060ff600260018401549360208601948552015416920191151582526040519283525160208301525115156040820152f35b3461016b57610a0936611e44565b9060005260056020526040600020805482101561016b57602091610a2c91611ee7565b905460405160039290921b1c6001600160a01b03168152f35b3461016b57604036600319011261016b57610a5e611ebb565b6001600160a01b031660009081526006602052604090208054602435919082101561016b57602091610a8f91611ee7565b90546040519160031b1c8152f35b3461016b57602036600319011261016b576001600160a01b03610abe611ebb565b166000526006602052610aeb610ad76040600020612304565b604051918291602083526020830190611e87565b0390f35b3461016b57600036600319011261016b576020600254604051908152f35b3461016b57600036600319011261016b57602060405160788152f35b3461016b57602036600319011261016b576004356000526003806020526040600020600781015490610b5a826121bb565b600a820154909381610c09575050508015610bf3578060640460005b828110610bde575090610b8891612052565b6064039060648211610bc857610baa610aeb92610ba48361222e565b5161206f565b610bb38261222e565b52604051918291602083526020830190611e87565b634e487b7160e01b600052601160045260246000fd5b8082610bec6001938761223b565b5201610b76565b634e487b7160e01b600052601260045260246000fd5b909392600092600660009101955b828210610cb057505060648310610c36575b505050610aeb9150610ad7565b60009460019260015b838110610c7b5750505050506064039160648311610bc857610c72610c6b610aeb94610ba4848661223b565b918361223b565b52828080610c29565b610c858184611ee7565b905490831b1c610c958985611ee7565b905490841b1c10610ca8575b8401610c3f565b965086610ca1565b9093610cbc8588611ee7565b9054606491861b1c818102918115918304141715610bc857600191610ce484610d0093612065565b610cee888a61223b565b52610cf9878961223b565b519061206f565b940190610c17565b61014036600319011261016b576004356001600160401b03811161016b57610d34903690600401611e5a565b906024356001600160401b03811161016b57610d54903690600401611e5a565b91906044356001600160401b03811161016b57610d75903690600401611e5a565b9190926064356001600160401b03811161016b57610d97903690600401611e5a565b919092608435956001600160401b03871161016b573660238801121561016b576001600160401b0387600401351161016b57366024886004013560051b8901011161016b5760e435151560e4350361016b57610104356001600160401b03811161016b57610e09903690600401611e5a565b98909260ff6101243516610124350361016b578a1561184957600289600401351061180457600a8960040135116117cd574260c43511156117885760a43561177f5742975b8860c435111561173a5760048a01356001810110610bc857610e7660018b60040135016121a4565b93610e846040519586611f70565b60048b0135600101808652601f1990610e9c906121a4565b0160005b818110611729575050610eb960018c60040135016121bb565b9360005b8c80600401358210611661575050604051968760408101106001600160401b0360408a011117611443576001600160401b039d8f98610f418f82604060009401604052600c81526b155b98db185cdcda599a595960a21b6020820152610f2782600401358d61223b565b52610f3681600401358c61223b565b50600401358961223b565b52801561165757610f6c60206040518381948383019687378101600083820152038084520182611f70565b519020935b6001549d8e988960005260036020526040600020998a5511611443578e610fa881610f9f60018c01546120c7565b60018c0161224f565b6000601f82116001146115ea579080610fd7926000916115df575b508160011b916000199060031b1c19161790565b60018901555b6001600160401b0382116114435761100582610ffc60028b01546120c7565b60028b0161224f565b600090601f831160011461156e57611036929160009183611563575b50508160011b916000199060031b1c19161790565b60028701555b6001600160401b038211611443576110648261105b60038901546120c7565b6003890161224f565b600090601f83116001146114f2576110949291600091836114e75750508160011b916000199060031b1c19161790565b60038501555b6001600160401b038611611443576110c2866110b960048701546120c7565b6004870161224f565b600086601f811160011461147a57806110f09260009161146f57508160011b916000199060031b1c19161790565b60048501555b6001896004013501600785015560c43560088501558760098501556000600a850155600b84019060ff19918281541690556000600c860155600d8501336bffffffffffffffffffffffff60a01b82541617905542600e86015561116a60e435600f87019060ff801983541691151516179055565b6010850155601184019060ff61012435169082541617905560005b60018960040135018110611317575050506001546000198114610bc8576001016001553461123b575b509260016111ff7f83983faa26dcaa23af8e8247d007e294e4689561528ada69f8b3a297fdd4943894602099946111f28a986040519760e0895260e08901916122e3565b918683038c8801526122e3565b9560040135016040830152606082015260c435608082015260e435151560a082015260ff610124351660c08201528033940390a3604051908152f35b61124c600187600401350134612065565b611266611260600189600401350183612052565b34612197565b9060005b600189600401350181106112ce575050506111ff7f83983faa26dcaa23af8e8247d007e294e4689561528ada69f8b3a297fdd4943894602099946111f28a9895600195600a6112bc348284015461206f565b910155959850509499509450506111ae565b600190828115611302575b6112fc906103286112ed8460068a01611ee7565b91909283548360031b1c61206f565b0161126a565b506112fc611310858561206f565b90506112d9565b611321818461223b565b516005850154600160401b811015611443578060016113499201600588015560058701611ee7565b919091611459578051906001600160401b038211611443576113758261136f85546120c7565b8561224f565b602090601f83116001146113d55791806113aa9260019695946000926113ca5750508160011b916000199060031b1c19161790565b90555b6113c46113ba828561223b565b51600687016122a5565b01611185565b015190503880611021565b908360005260206000209160005b601f198516811061142b57509183916001969594938794601f19811610611412575b505050811b0190556113ad565b015160001960f88460031b161c191690558f8080611405565b919260206001819286850151815501940192016113e3565b634e487b7160e01b600052604160045260246000fd5b634e487b7160e01b600052600060045260246000fd5b90508901358e610fc3565b506004850160005260206000209060005b601f19891681106114cf575087601f198116106114b5575b5050600186811b0160048501556110f6565b880135600019600389901b60f8161c191690558b806114a3565b9091602060018192858d01358155019301910161148b565b013590508e80611021565b600387939293016000526020600020906000935b601f198416851061154b576001945083601f19811610611531575b505050811b01600385015561109a565b0135600019600384901b60f8161c191690558d8080611521565b81810135835560209485019460019093019201611506565b013590503880611021565b600289939293016000526020600020906000935b601f19841685106115c7576001945083601f198116106115ad575b505050811b01600287015561103c565b0135600019600384901b60f8161c191690558f808061159d565b81810135835560209485019460019093019201611582565b90508b013538610fc3565b9060018a01600052602060002060005b8c601f198416821061164057505060019282601f19811610611626575b5050811b016001890155610fdd565b8c0135600019600384901b60f8161c191690553880611617565b8401358255602093840193600190920191016115fa565b5050600093610f71565b81816024611674936004013591016121ed565b9050156116ee5761168e818e6024816004013591016121ed565b61169a8193929361207c565b906116a86040519283611f70565b808252368185011161016b5760208160009260019683860137830101526116cf828a61223b565b526116da818961223b565b5060006116e7828961223b565b5201610ebd565b60405162461bcd60e51b8152602060048201526013602482015272115b5c1d1e481bdd5d18dbdb59481b1858995b606a1b6044820152606490fd5b806060602080938a01015201610ea0565b60405162461bcd60e51b815260206004820152601760248201527f456e64206d7573742062652061667465722073746172740000000000000000006044820152606490fd5b60a43597610e4e565b60405162461bcd60e51b815260206004820152601760248201527f456e642074696d65206d757374206265206675747572650000000000000000006044820152606490fd5b60405162461bcd60e51b815260206004820152600f60248201526e4d6178203130206f7574636f6d657360881b6044820152606490fd5b60405162461bcd60e51b815260206004820152601860248201527f4e656564206174206c656173742032206f7574636f6d657300000000000000006044820152606490fd5b60405162461bcd60e51b8152602060048201526011602482015270145d595cdd1a5bdb881c995c5d5a5c9959607a1b6044820152606490fd5b3461016b57600036600319011261016b576000546040516001600160a01b039091168152602090f35b3461016b5760208060031936011261016b576004356118cd6001548210611f91565b806000526003825260406000209160ff600b8401541615611aab578160005260048152604060002033600052815260406000208054938415611a7d576002820180549260ff8416611a46576001015492600c830193845403611a135760ff19166001179055600a81015460c880820292919083048103610bc85761195b600691612710611964950490612197565b93549101611ee7565b90549060031b1c90600094826119f5575b505050826119ab575b7f5380cf6fe903b40c6d5a9e0dfbca2f3a423f0a21520b4d5947ed5169bdba946d906040519384523393a3005b600080808086335af16119bc612097565b5061197e576064906040519062461bcd60e51b82526004820152600d60248201526c14185e5bdd5d0819985a5b1959609a1b6044820152fd5b611a0a93955090611a0591612052565b612065565b91838080611975565b60405162461bcd60e51b815260048101869052600b60248201526a2234b2103737ba103bb4b760a91b6044820152606490fd5b60405162461bcd60e51b815260048101869052600f60248201526e105b1c9958591e4818db185a5b5959608a1b6044820152606490fd5b60405162461bcd60e51b8152600481018490526006602482015265139bc818995d60d21b6044820152606490fd5b6064906040519062461bcd60e51b82526004820152600c60248201526b139bdd081c995cdbdb1d995960a21b6044820152fd5b3461016b57600036600319011261016b5760206040516127108152f35b3461016b57611b0936611e44565b90611b176001548210611f91565b80600052602060038152604060002092600b84018054611b3a60ff821615611fd5565b60088601544210611d3c57611b5460078701548410612014565b601186015460ff16611cdd57600d8601546001600160a01b03163303611c98576001905b60ff191617905580600c850155600a840180546078810290801591818104607814831715610bc85761271080910492605083029283046050141715610bc857611bc4910460025461206f565b60025580611c26575b50611c1b611c008360057fc4e284c2a201b94563c6ce031a924441597063ad9cb49c9cb4f55afb3a29a619979801611ee7565b50915491606060405195869586528501526060840190612101565b9060408301520390a2005b600d8601546000918291829182916001600160a01b03165af1611c47612097565b5015611c535785611bcd565b60405162461bcd60e51b815260048101849052601b60248201527f43726561746f7220666565207472616e73666572206661696c656400000000006044820152606490fd5b60405162461bcd60e51b815260048101859052601860248201527f4f6e6c792063726561746f722063616e207265736f6c766500000000000000006044820152606490fd5b6000546001600160a01b03163303611cf757600190611b78565b60405162461bcd60e51b815260048101859052601d60248201527f4f6e6c79206f7261636c652f6f776e65722063616e207265736f6c76650000006044820152606490fd5b60405162461bcd60e51b815260048101859052601060248201526f13585c9ad95d081b9bdd08195b99195960821b6044820152606490fd5b3461016b57600036600319011261016b57602060405160508152f35b3461016b576020908160031936011261016b576004356000526005825260406000208054808352838301908192600052846000209060005b86828210611e27578686611dde82880383611f70565b604051928392818401908285525180915260408401929160005b828110611e0757505050500390f35b83516001600160a01b031685528695509381019392810192600101611df8565b83546001600160a01b031685529093019260019283019201611dc8565b604090600319011261016b576004359060243590565b9181601f8401121561016b578235916001600160401b03831161016b576020838186019501011161016b57565b90815180825260208080930193019160005b828110611ea7575050505090565b835185529381019392810192600101611e99565b600435906001600160a01b038216820361016b57565b602435906001600160a01b038216820361016b57565b8054821015611eff5760005260206000200190600090565b634e487b7160e01b600052603260045260246000fd5b919082519283825260005b848110611f41575050826000602080949584010152601f8019910116010190565b602081830181015184830182015201611f20565b606081019081106001600160401b0382111761144357604052565b90601f801991011681019081106001600160401b0382111761144357604052565b15611f9857565b60405162461bcd60e51b815260206004820152601560248201527413585c9ad95d08191bd95cc81b9bdd08195e1a5cdd605a1b6044820152606490fd5b15611fdc57565b60405162461bcd60e51b815260206004820152601060248201526f105b1c9958591e481c995cdbdb1d995960821b6044820152606490fd5b1561201b57565b60405162461bcd60e51b815260206004820152600f60248201526e496e76616c6964206f7574636f6d6560881b6044820152606490fd5b81810292918115918404141715610bc857565b8115610bf3570490565b91908201809211610bc857565b6001600160401b03811161144357601f01601f191660200190565b3d156120c2573d906120a88261207c565b916120b66040519384611f70565b82523d6000602084013e565b606090565b90600182811c921680156120f7575b60208310146120e157565b634e487b7160e01b600052602260045260246000fd5b91607f16916120d6565b805460009392612110826120c7565b918282526020936001916001811690816000146121785750600114612137575b5050505050565b90939495506000929192528360002092846000945b83861061216457505050500101903880808080612130565b80548587018301529401938590820161214c565b60ff19168685015250505090151560051b010191503880808080612130565b91908203918211610bc857565b6001600160401b0381116114435760051b60200190565b906121c5826121a4565b6121d26040519182611f70565b82815280926121e3601f19916121a4565b0190602036910137565b9190811015611eff5760051b81013590601e198136030182121561016b5701908135916001600160401b03831161016b57602001823603811361016b579190565b805115611eff5760200190565b8051821015611eff5760209160051b010190565b90601f811161225d57505050565b6000916000526020600020906020601f850160051c8301941061229b575b601f0160051c01915b82811061229057505050565b818155600101612284565b909250829061227b565b90815491600160401b83101561144357826122c89160016122e195018155611ee7565b90919082549060031b91821b91600019901b1916179055565b565b908060209392818452848401376000828201840152601f01601f1916010190565b90604051918281549182825260209260208301916000526020600020936000905b82821061233b575050506122e192500383611f70565b855484526001958601958895509381019390910190612325565b1561235c57565b60405162461bcd60e51b81526020600482015260096024820152682737ba1037bbb732b960b91b6044820152606490fdfea26469706673582212202e87fbf798b930f72bedf356a5cb2387f54614f4fc397eccc0620a1fa0b1310a64736f6c63430008180033",
          "opcodes": "PUSH1 0x80 DUP1 PUSH1 0x40 MSTORE CALLVALUE PUSH2 0x28 JUMPI PUSH1 0x0 DUP1 SLOAD PUSH1 0x1 PUSH1 0x1 PUSH1 0xA0 SHL SUB NOT AND CALLER OR SWAP1 SSTORE PUSH2 0x23C3 SWAP1 DUP2 PUSH2 0x2E DUP3 CODECOPY RETURN JUMPDEST PUSH1 0x0 DUP1 REVERT INVALID PUSH2 0x1E0 DUP1 PUSH1 0x40 MSTORE PUSH1 0x4 CALLDATASIZE LT ISZERO PUSH2 0x1E JUMPI JUMPDEST POP CALLDATASIZE ISZERO PUSH2 0x1C JUMPI PUSH1 0x0 DUP1 REVERT JUMPDEST STOP JUMPDEST PUSH1 0x0 CALLDATALOAD PUSH1 0xE0 SHR SWAP1 DUP2 PUSH4 0xB501AB8 EQ PUSH2 0x1D90 JUMPI POP DUP1 PUSH4 0x539AA77F EQ PUSH2 0x1D74 JUMPI DUP1 PUSH4 0x60557333 EQ PUSH2 0x1AFB JUMPI DUP1 PUSH4 0x6637E38C EQ PUSH2 0x1ADE JUMPI DUP1 PUSH4 0x677BD9FF EQ PUSH2 0x18AB JUMPI DUP1 PUSH4 0x8DA5CB5B EQ PUSH2 0x1882 JUMPI DUP1 PUSH4 0xBB34223A EQ PUSH2 0xD08 JUMPI DUP1 PUSH4 0xBC5C4EB3 EQ PUSH2 0xB29 JUMPI DUP1 PUSH4 0xCC3CBD2A EQ PUSH2 0xB0D JUMPI DUP1 PUSH4 0xD3631FA5 EQ PUSH2 0xAEF JUMPI DUP1 PUSH4 0xDA4473D8 EQ PUSH2 0xA9D JUMPI DUP1 PUSH4 0xDB0F871D EQ PUSH2 0xA45 JUMPI DUP1 PUSH4 0xE053BCEC EQ PUSH2 0x9FB JUMPI DUP1 PUSH4 0xE0950DDF EQ PUSH2 0x95D JUMPI DUP1 PUSH4 0xEB44FDD3 EQ PUSH2 0x63D JUMPI DUP1 PUSH4 0xEC3889B5 EQ PUSH2 0x550 JUMPI DUP1 PUSH4 0xEC979082 EQ PUSH2 0x532 JUMPI DUP1 PUSH4 0xED732DDB EQ PUSH2 0x1EA JUMPI DUP1 PUSH4 0xF2FDE38B EQ PUSH2 0x170 JUMPI PUSH4 0xF644B3BB EQ PUSH2 0x107 JUMPI CODESIZE PUSH2 0x10 JUMP JUMPDEST CALLVALUE PUSH2 0x16B JUMPI PUSH1 0x40 CALLDATASIZE PUSH1 0x3 NOT ADD SLT PUSH2 0x16B JUMPI PUSH2 0x120 PUSH2 0x1ED1 JUMP JUMPDEST PUSH1 0x4 CALLDATALOAD PUSH1 0x0 MSTORE PUSH1 0x4 PUSH1 0x20 MSTORE PUSH1 0x40 PUSH1 0x0 KECCAK256 SWAP1 PUSH1 0x1 DUP1 PUSH1 0xA0 SHL SUB AND PUSH1 0x0 MSTORE PUSH1 0x20 MSTORE PUSH1 0x60 PUSH1 0x40 PUSH1 0x0 KECCAK256 DUP1 SLOAD SWAP1 PUSH1 0xFF PUSH1 0x2 PUSH1 0x1 DUP4 ADD SLOAD SWAP3 ADD SLOAD AND SWAP1 PUSH1 0x40 MLOAD SWAP3 DUP4 MSTORE PUSH1 0x20 DUP4 ADD MSTORE ISZERO ISZERO PUSH1 0x40 DUP3 ADD MSTORE RETURN JUMPDEST PUSH1 0x0 DUP1 REVERT JUMPDEST CALLVALUE PUSH2 0x16B JUMPI PUSH1 0x20 CALLDATASIZE PUSH1 0x3 NOT ADD SLT PUSH2 0x16B JUMPI PUSH2 0x189 PUSH2 0x1EBB JUMP JUMPDEST PUSH1 0x0 SLOAD SWAP1 PUSH1 0x1 PUSH1 0x1 PUSH1 0xA0 SHL SUB SWAP1 PUSH2 0x1A3 CALLER DUP4 DUP6 AND EQ PUSH2 0x2355 JUMP JUMPDEST AND SWAP1 DUP2 ISZERO PUSH2 0x1BB JUMPI PUSH1 0x1 PUSH1 0x1 PUSH1 0xA0 SHL SUB NOT AND OR PUSH1 0x0 SSTORE STOP JUMPDEST PUSH1 0x40 MLOAD PUSH3 0x461BCD PUSH1 0xE5 SHL DUP2 MSTORE PUSH1 0x20 PUSH1 0x4 DUP3 ADD MSTORE PUSH1 0x7 PUSH1 0x24 DUP3 ADD MSTORE PUSH7 0x125B9D985B1A59 PUSH1 0xCA SHL PUSH1 0x44 DUP3 ADD MSTORE PUSH1 0x64 SWAP1 REVERT JUMPDEST PUSH1 0x60 CALLDATASIZE PUSH1 0x3 NOT ADD SLT PUSH2 0x16B JUMPI PUSH1 0x4 CALLDATALOAD PUSH1 0x24 SWAP1 DUP2 CALLDATALOAD SWAP2 PUSH1 0x44 SWAP1 DUP2 CALLDATALOAD PUSH1 0x1 PUSH1 0x1 PUSH1 0x40 SHL SUB DUP2 GT PUSH2 0x16B JUMPI PUSH2 0x220 SWAP1 CALLDATASIZE SWAP1 PUSH1 0x4 ADD PUSH2 0x1E5A JUMP JUMPDEST SWAP1 SWAP3 PUSH2 0x22F PUSH1 0x1 SLOAD DUP7 LT PUSH2 0x1F91 JUMP JUMPDEST DUP5 PUSH1 0x0 MSTORE PUSH1 0x20 SWAP4 PUSH1 0x3 DUP6 MSTORE PUSH1 0x40 PUSH1 0x0 KECCAK256 SWAP3 PUSH1 0x9 DUP5 ADD SLOAD TIMESTAMP LT PUSH2 0x4FA JUMPI PUSH1 0x8 DUP5 ADD SLOAD TIMESTAMP LT ISZERO PUSH2 0x4C8 JUMPI PUSH2 0x268 PUSH1 0xFF PUSH1 0xB DUP7 ADD SLOAD AND ISZERO PUSH2 0x1FD5 JUMP JUMPDEST CALLVALUE ISZERO PUSH2 0x490 JUMPI PUSH2 0x27D PUSH1 0x7 DUP6 ADD SLOAD DUP10 LT PUSH2 0x2014 JUMP JUMPDEST DUP7 PUSH1 0x0 MSTORE PUSH1 0x4 DUP7 MSTORE PUSH1 0x40 PUSH1 0x0 KECCAK256 CALLER PUSH1 0x0 MSTORE DUP7 MSTORE PUSH1 0x40 PUSH1 0x0 KECCAK256 SLOAD PUSH2 0x45F JUMPI PUSH1 0xFF PUSH1 0xF DUP6 ADD SLOAD AND PUSH2 0x3F0 JUMPI JUMPDEST POP POP POP PUSH1 0xA SWAP1 PUSH2 0x308 PUSH1 0x40 MLOAD PUSH2 0x2BC DUP2 PUSH2 0x1F55 JUMP JUMPDEST CALLVALUE DUP2 MSTORE PUSH1 0x2 DUP7 DUP3 ADD DUP10 DUP2 MSTORE PUSH1 0x40 DUP4 ADD SWAP1 PUSH1 0x0 DUP3 MSTORE DUP10 PUSH1 0x0 MSTORE PUSH1 0x4 DUP10 MSTORE PUSH1 0x40 PUSH1 0x0 KECCAK256 CALLER PUSH1 0x0 MSTORE DUP10 MSTORE PUSH1 0x40 PUSH1 0x0 KECCAK256 SWAP4 MLOAD DUP5 SSTORE MLOAD PUSH1 0x1 DUP5 ADD SSTORE MLOAD ISZERO ISZERO SWAP2 ADD SWAP1 PUSH1 0xFF DUP1 NOT DUP4 SLOAD AND SWAP2 ISZERO ISZERO AND OR SWAP1 SSTORE JUMP JUMPDEST PUSH2 0x33F PUSH2 0x318 DUP8 PUSH1 0x6 DUP5 ADD PUSH2 0x1EE7 JUMP JUMPDEST PUSH2 0x328 CALLVALUE DUP4 SLOAD DUP4 PUSH1 0x3 SHL SHR PUSH2 0x206F JUMP JUMPDEST DUP3 SLOAD PUSH1 0x0 NOT PUSH1 0x3 SWAP4 SWAP1 SWAP4 SHL SWAP3 DUP4 SHL NOT AND SWAP2 SHL OR SWAP1 SSTORE JUMP JUMPDEST ADD PUSH2 0x34B CALLVALUE DUP3 SLOAD PUSH2 0x206F JUMP JUMPDEST SWAP1 SSTORE DUP3 PUSH1 0x0 MSTORE PUSH1 0x5 DUP3 MSTORE PUSH1 0x40 PUSH1 0x0 KECCAK256 DUP1 SLOAD SWAP2 PUSH1 0x1 PUSH1 0x40 SHL DUP4 LT ISZERO PUSH2 0x3DC JUMPI POP SWAP1 PUSH2 0x37A SWAP2 PUSH1 0x1 DUP3 ADD DUP2 SSTORE PUSH2 0x1EE7 JUMP JUMPDEST DUP2 SLOAD SWAP1 PUSH1 0x3 SHL SWAP1 CALLER DUP3 SHL SWAP2 PUSH1 0x1 DUP1 PUSH1 0xA0 SHL SUB SWAP1 SHL NOT AND OR SWAP1 SSTORE CALLER PUSH1 0x0 MSTORE PUSH1 0x6 DUP2 MSTORE PUSH2 0x3A9 DUP3 PUSH1 0x40 PUSH1 0x0 KECCAK256 PUSH2 0x22A5 JUMP JUMPDEST PUSH1 0x40 MLOAD SWAP3 DUP4 MSTORE CALLVALUE SWAP1 DUP4 ADD MSTORE PUSH32 0x1B8A9031CB9351278D70A994F81536E9E08C91162E64F92B2FE4766FB7A891B4 PUSH1 0x40 CALLER SWAP4 LOG3 STOP JUMPDEST PUSH4 0x4E487B71 PUSH1 0xE0 SHL PUSH1 0x0 SWAP1 DUP2 MSTORE PUSH1 0x41 PUSH1 0x4 MSTORE REVERT JUMPDEST PUSH2 0x413 DUP7 PUSH1 0x40 MLOAD DUP4 DUP2 SWAP5 DUP4 DUP4 ADD SWAP7 DUP8 CALLDATACOPY DUP2 ADD PUSH1 0x0 DUP4 DUP3 ADD MSTORE SUB DUP1 DUP5 MSTORE ADD DUP3 PUSH2 0x1F70 JUMP JUMPDEST MLOAD SWAP1 KECCAK256 PUSH1 0x10 DUP4 ADD SLOAD SUB PUSH2 0x427 JUMPI DUP1 DUP1 PUSH2 0x2A7 JUMP JUMPDEST DUP4 PUSH19 0x496E76616C69642061636365737320636F6465 PUSH1 0x68 SHL PUSH1 0x64 SWAP3 PUSH1 0x13 DUP7 PUSH1 0x40 MLOAD SWAP5 PUSH3 0x461BCD PUSH1 0xE5 SHL DUP7 MSTORE PUSH1 0x4 DUP7 ADD MSTORE DUP5 ADD MSTORE DUP3 ADD MSTORE REVERT JUMPDEST PUSH1 0x40 MLOAD PUSH3 0x461BCD PUSH1 0xE5 SHL DUP2 MSTORE PUSH1 0x4 DUP2 ADD DUP8 SWAP1 MSTORE PUSH1 0xB DUP2 DUP8 ADD MSTORE PUSH11 0x105B1C9958591E4818995D PUSH1 0xAA SHL DUP2 DUP6 ADD MSTORE PUSH1 0x64 SWAP1 REVERT JUMPDEST PUSH1 0x40 MLOAD PUSH3 0x461BCD PUSH1 0xE5 SHL DUP2 MSTORE PUSH1 0x4 DUP2 ADD DUP8 SWAP1 MSTORE PUSH1 0x12 DUP2 DUP8 ADD MSTORE PUSH18 0x416D6F756E74206D757374206265203E203 PUSH1 0x74 SHL DUP2 DUP6 ADD MSTORE PUSH1 0x64 SWAP1 REVERT JUMPDEST PUSH1 0x40 MLOAD PUSH3 0x461BCD PUSH1 0xE5 SHL DUP2 MSTORE PUSH1 0x4 DUP2 ADD DUP8 SWAP1 MSTORE PUSH1 0xC DUP2 DUP8 ADD MSTORE PUSH12 0x13585C9AD95D08195B991959 PUSH1 0xA2 SHL DUP2 DUP6 ADD MSTORE PUSH1 0x64 SWAP1 REVERT JUMPDEST PUSH1 0x40 MLOAD PUSH3 0x461BCD PUSH1 0xE5 SHL DUP2 MSTORE PUSH1 0x4 DUP2 ADD DUP8 SWAP1 MSTORE PUSH1 0x12 DUP2 DUP8 ADD MSTORE PUSH18 0x13585C9AD95D081B9BDD081CDD185C9D1959 PUSH1 0x72 SHL DUP2 DUP6 ADD MSTORE PUSH1 0x64 SWAP1 REVERT JUMPDEST CALLVALUE PUSH2 0x16B JUMPI PUSH1 0x0 CALLDATASIZE PUSH1 0x3 NOT ADD SLT PUSH2 0x16B JUMPI PUSH1 0x20 PUSH1 0x1 SLOAD PUSH1 0x40 MLOAD SWAP1 DUP2 MSTORE RETURN JUMPDEST CALLVALUE PUSH2 0x16B JUMPI PUSH1 0x20 CALLDATASIZE PUSH1 0x3 NOT ADD SLT PUSH2 0x16B JUMPI PUSH2 0x569 PUSH2 0x1EBB JUMP JUMPDEST PUSH1 0x0 SLOAD PUSH1 0x1 PUSH1 0x1 PUSH1 0xA0 SHL SUB SWAP1 PUSH2 0x582 SWAP1 DUP3 AND CALLER EQ PUSH2 0x2355 JUMP JUMPDEST PUSH1 0x2 SLOAD SWAP2 DUP3 ISZERO PUSH2 0x60E JUMPI PUSH1 0x0 PUSH1 0x2 SSTORE AND SWAP1 PUSH1 0x0 DUP1 DUP1 DUP1 DUP5 DUP7 GAS CALL PUSH2 0x5A4 PUSH2 0x2097 JUMP JUMPDEST POP ISZERO PUSH2 0x5D7 JUMPI PUSH1 0x20 PUSH32 0xC0819C13BE868895EB93E40EACEB96DE976442FA1D404E5C55F14BB65A8C489A SWAP2 PUSH1 0x40 MLOAD SWAP1 DUP2 MSTORE LOG2 STOP JUMPDEST PUSH1 0x40 MLOAD PUSH3 0x461BCD PUSH1 0xE5 SHL DUP2 MSTORE PUSH1 0x20 PUSH1 0x4 DUP3 ADD MSTORE PUSH1 0xF PUSH1 0x24 DUP3 ADD MSTORE PUSH15 0x151C985B9CD9995C8819985A5B1959 PUSH1 0x8A SHL PUSH1 0x44 DUP3 ADD MSTORE PUSH1 0x64 SWAP1 REVERT JUMPDEST PUSH1 0x40 MLOAD PUSH3 0x461BCD PUSH1 0xE5 SHL DUP2 MSTORE PUSH1 0x20 PUSH1 0x4 DUP3 ADD MSTORE PUSH1 0x7 PUSH1 0x24 DUP3 ADD MSTORE PUSH7 0x4E6F2066656573 PUSH1 0xC8 SHL PUSH1 0x44 DUP3 ADD MSTORE PUSH1 0x64 SWAP1 REVERT JUMPDEST CALLVALUE PUSH2 0x16B JUMPI PUSH1 0x20 CALLDATASIZE PUSH1 0x3 NOT ADD SLT PUSH2 0x16B JUMPI PUSH1 0x4 CALLDATALOAD PUSH1 0x0 MSTORE PUSH1 0x3 PUSH1 0x20 MSTORE PUSH1 0x40 PUSH1 0x0 KECCAK256 PUSH2 0x1C0 MSTORE PUSH2 0x1C0 MLOAD SLOAD PUSH1 0x7 PUSH2 0x1C0 MLOAD ADD SLOAD PUSH2 0x140 MSTORE PUSH1 0x8 PUSH2 0x1C0 MLOAD ADD SLOAD SWAP1 PUSH1 0x9 PUSH2 0x1C0 MLOAD ADD SLOAD PUSH1 0xA PUSH2 0x1C0 MLOAD ADD SLOAD PUSH1 0xFF PUSH1 0xB PUSH2 0x1C0 MLOAD ADD SLOAD AND PUSH1 0xC PUSH2 0x1C0 MLOAD ADD SLOAD SWAP2 PUSH1 0x1 DUP1 PUSH1 0xA0 SHL SUB PUSH1 0xD PUSH2 0x1C0 MLOAD ADD SLOAD AND SWAP4 PUSH1 0xE PUSH2 0x1C0 MLOAD ADD SLOAD SWAP6 PUSH1 0xFF PUSH1 0xF PUSH2 0x1C0 MLOAD ADD SLOAD AND PUSH1 0xE0 MSTORE PUSH1 0xFF PUSH1 0x11 PUSH2 0x1C0 MLOAD ADD SLOAD AND PUSH2 0x100 MSTORE PUSH1 0x40 MLOAD PUSH2 0x180 MSTORE PUSH2 0x702 PUSH2 0x180 MLOAD PUSH2 0x6F8 PUSH2 0x180 MLOAD PUSH1 0x1 PUSH2 0x1C0 MLOAD ADD PUSH2 0x2101 JUMP JUMPDEST SUB PUSH2 0x180 MLOAD PUSH2 0x1F70 JUMP JUMPDEST PUSH1 0x40 MLOAD PUSH2 0x720 DUP2 PUSH2 0x719 DUP2 PUSH1 0x2 PUSH2 0x1C0 MLOAD ADD PUSH2 0x2101 JUMP JUMPDEST SUB DUP3 PUSH2 0x1F70 JUMP JUMPDEST PUSH1 0x40 MLOAD PUSH2 0x737 DUP2 PUSH2 0x719 DUP2 PUSH1 0x3 PUSH2 0x1C0 MLOAD ADD PUSH2 0x2101 JUMP JUMPDEST PUSH1 0x40 MLOAD SWAP2 PUSH2 0x756 DUP4 PUSH2 0x74F DUP2 PUSH1 0x4 PUSH2 0x1C0 MLOAD ADD PUSH2 0x2101 JUMP JUMPDEST SUB DUP5 PUSH2 0x1F70 JUMP JUMPDEST PUSH1 0x5 PUSH2 0x1C0 MLOAD ADD SLOAD PUSH2 0x767 DUP2 PUSH2 0x21A4 JUMP JUMPDEST PUSH2 0x1A0 MSTORE PUSH1 0x40 MLOAD PUSH2 0x160 MSTORE PUSH2 0x782 PUSH2 0x1A0 MLOAD PUSH2 0x160 MLOAD PUSH2 0x1F70 JUMP JUMPDEST DUP1 PUSH2 0x160 MLOAD MSTORE PUSH2 0x160 MLOAD POP PUSH1 0x20 PUSH2 0x160 MLOAD ADD DUP1 PUSH1 0xC0 MSTORE PUSH1 0x5 PUSH2 0x1C0 MLOAD ADD PUSH1 0x0 MSTORE PUSH1 0x20 PUSH1 0x0 KECCAK256 PUSH1 0x0 SWAP2 JUMPDEST DUP4 DUP4 LT PUSH2 0x938 JUMPI POP POP POP POP PUSH2 0x838 SWAP3 SWAP2 PUSH2 0x810 PUSH2 0x824 SWAP3 PUSH2 0x7FC PUSH2 0x7D4 PUSH1 0x6 PUSH2 0x1C0 MLOAD ADD PUSH2 0x2304 JUMP JUMPDEST SWAP8 PUSH1 0x40 MLOAD PUSH2 0x120 MSTORE PUSH2 0x220 SWAP1 PUSH2 0x120 MLOAD MSTORE DUP1 PUSH1 0x20 PUSH2 0x120 MLOAD ADD MSTORE PUSH2 0x120 MLOAD ADD PUSH2 0x180 MLOAD PUSH2 0x1F15 JUMP JUMPDEST SWAP1 PUSH2 0x120 MLOAD DUP3 SUB PUSH1 0x40 PUSH2 0x120 MLOAD ADD MSTORE PUSH2 0x1F15 JUMP JUMPDEST SWAP1 PUSH2 0x120 MLOAD DUP3 SUB PUSH1 0x60 PUSH2 0x120 MLOAD ADD MSTORE PUSH2 0x1F15 JUMP JUMPDEST SWAP1 PUSH2 0x120 MLOAD DUP3 SUB PUSH1 0x80 PUSH2 0x120 MLOAD ADD MSTORE PUSH2 0x1F15 JUMP JUMPDEST PUSH2 0x120 MLOAD DUP2 SUB PUSH1 0xA0 PUSH2 0x120 MLOAD ADD MSTORE PUSH2 0x160 MLOAD MLOAD SWAP1 DUP2 DUP2 MSTORE PUSH1 0x20 DUP2 ADD SWAP1 PUSH1 0x20 DUP4 PUSH1 0x5 SHL DUP3 ADD ADD PUSH1 0x80 MSTORE PUSH1 0xC0 MLOAD PUSH1 0xA0 MSTORE PUSH1 0x0 SWAP2 JUMPDEST DUP4 DUP4 LT PUSH2 0x905 JUMPI POP POP POP POP PUSH2 0x892 SWAP1 PUSH2 0x120 MLOAD PUSH1 0x80 MLOAD SUB PUSH1 0xC0 PUSH2 0x120 MLOAD ADD MSTORE PUSH1 0x80 MLOAD SWAP1 PUSH2 0x1E87 JUMP JUMPDEST SWAP7 PUSH2 0x140 MLOAD PUSH1 0xE0 PUSH2 0x120 MLOAD ADD MSTORE PUSH2 0x100 PUSH2 0x120 MLOAD ADD MSTORE PUSH2 0x120 DUP1 MLOAD ADD MSTORE PUSH2 0x140 PUSH2 0x120 MLOAD ADD MSTORE ISZERO ISZERO PUSH2 0x160 PUSH2 0x120 MLOAD ADD MSTORE PUSH2 0x180 PUSH2 0x120 MLOAD ADD MSTORE PUSH2 0x1A0 PUSH2 0x120 MLOAD ADD MSTORE PUSH2 0x1C0 PUSH2 0x120 MLOAD ADD MSTORE PUSH1 0xE0 MLOAD ISZERO ISZERO PUSH2 0x1E0 PUSH2 0x120 MLOAD ADD MSTORE PUSH2 0x100 MLOAD PUSH2 0x200 PUSH2 0x120 MLOAD ADD MSTORE PUSH2 0x120 MLOAD SWAP1 SUB PUSH2 0x120 MLOAD RETURN JUMPDEST PUSH1 0x20 PUSH1 0x1 SWAP2 PUSH1 0x1F NOT DUP5 PUSH1 0x80 MLOAD SUB ADD DUP2 MSTORE PUSH2 0x924 PUSH1 0x80 MLOAD PUSH1 0xA0 MLOAD MLOAD PUSH2 0x1F15 JUMP JUMPDEST PUSH1 0x80 MSTORE DUP2 PUSH1 0xA0 MLOAD ADD PUSH1 0xA0 MSTORE ADD SWAP3 ADD SWAP2 PUSH2 0x86A JUMP JUMPDEST PUSH1 0x1 PUSH1 0x20 DUP2 SWAP3 PUSH1 0x40 MLOAD PUSH2 0x94F DUP2 PUSH2 0x719 DUP2 DUP10 PUSH2 0x2101 JUMP JUMPDEST DUP2 MSTORE ADD SWAP3 ADD SWAP3 ADD SWAP2 SWAP1 PUSH2 0x7AB JUMP JUMPDEST CALLVALUE PUSH2 0x16B JUMPI PUSH1 0x40 CALLDATASIZE PUSH1 0x3 NOT ADD SLT PUSH2 0x16B JUMPI PUSH2 0x976 PUSH2 0x1ED1 JUMP JUMPDEST PUSH1 0x0 PUSH1 0x40 DUP1 MLOAD PUSH2 0x985 DUP2 PUSH2 0x1F55 JUMP JUMPDEST DUP3 DUP2 MSTORE DUP3 PUSH1 0x20 DUP3 ADD MSTORE ADD MSTORE PUSH1 0x4 CALLDATALOAD PUSH1 0x0 MSTORE PUSH1 0x4 PUSH1 0x20 MSTORE PUSH1 0x40 PUSH1 0x0 KECCAK256 SWAP1 PUSH1 0x1 DUP1 PUSH1 0xA0 SHL SUB AND PUSH1 0x0 MSTORE PUSH1 0x20 MSTORE PUSH1 0x60 PUSH1 0x40 PUSH1 0x0 KECCAK256 PUSH1 0x40 MLOAD PUSH2 0x9C2 DUP2 PUSH2 0x1F55 JUMP JUMPDEST DUP2 SLOAD SWAP2 DUP3 DUP3 MSTORE PUSH1 0x40 PUSH1 0xFF PUSH1 0x2 PUSH1 0x1 DUP5 ADD SLOAD SWAP4 PUSH1 0x20 DUP7 ADD SWAP5 DUP6 MSTORE ADD SLOAD AND SWAP3 ADD SWAP2 ISZERO ISZERO DUP3 MSTORE PUSH1 0x40 MLOAD SWAP3 DUP4 MSTORE MLOAD PUSH1 0x20 DUP4 ADD MSTORE MLOAD ISZERO ISZERO PUSH1 0x40 DUP3 ADD MSTORE RETURN JUMPDEST CALLVALUE PUSH2 0x16B JUMPI PUSH2 0xA09 CALLDATASIZE PUSH2 0x1E44 JUMP JUMPDEST SWAP1 PUSH1 0x0 MSTORE PUSH1 0x5 PUSH1 0x20 MSTORE PUSH1 0x40 PUSH1 0x0 KECCAK256 DUP1 SLOAD DUP3 LT ISZERO PUSH2 0x16B JUMPI PUSH1 0x20 SWAP2 PUSH2 0xA2C SWAP2 PUSH2 0x1EE7 JUMP JUMPDEST SWAP1 SLOAD PUSH1 0x40 MLOAD PUSH1 0x3 SWAP3 SWAP1 SWAP3 SHL SHR PUSH1 0x1 PUSH1 0x1 PUSH1 0xA0 SHL SUB AND DUP2 MSTORE RETURN JUMPDEST CALLVALUE PUSH2 0x16B JUMPI PUSH1 0x40 CALLDATASIZE PUSH1 0x3 NOT ADD SLT PUSH2 0x16B JUMPI PUSH2 0xA5E PUSH2 0x1EBB JUMP JUMPDEST PUSH1 0x1 PUSH1 0x1 PUSH1 0xA0 SHL SUB AND PUSH1 0x0 SWAP1 DUP2 MSTORE PUSH1 0x6 PUSH1 0x20 MSTORE PUSH1 0x40 SWAP1 KECCAK256 DUP1 SLOAD PUSH1 0x24 CALLDATALOAD SWAP2 SWAP1 DUP3 LT ISZERO PUSH2 0x16B JUMPI PUSH1 0x20 SWAP2 PUSH2 0xA8F SWAP2 PUSH2 0x1EE7 JUMP JUMPDEST SWAP1 SLOAD PUSH1 0x40 MLOAD SWAP2 PUSH1 0x3 SHL SHR DUP2 MSTORE RETURN JUMPDEST CALLVALUE PUSH2 0x16B JUMPI PUSH1 0x20 CALLDATASIZE PUSH1 0x3 NOT ADD SLT PUSH2 0x16B JUMPI PUSH1 0x1 PUSH1 0x1 PUSH1 0xA0 SHL SUB PUSH2 0xABE PUSH2 0x1EBB JUMP JUMPDEST AND PUSH1 0x0 MSTORE PUSH1 0x6 PUSH1 0x20 MSTORE PUSH2 0xAEB PUSH2 0xAD7 PUSH1 0x40 PUSH1 0x0 KECCAK256 PUSH2 0x2304 JUMP JUMPDEST PUSH1 0x40 MLOAD SWAP2 DUP3 SWAP2 PUSH1 0x20 DUP4 MSTORE PUSH1 0x20 DUP4 ADD SWAP1 PUSH2 0x1E87 JUMP JUMPDEST SUB SWAP1 RETURN JUMPDEST CALLVALUE PUSH2 0x16B JUMPI PUSH1 0x0 CALLDATASIZE PUSH1 0x3 NOT ADD SLT PUSH2 0x16B JUMPI PUSH1 0x20 PUSH1 0x2 SLOAD PUSH1 0x40 MLOAD SWAP1 DUP2 MSTORE RETURN JUMPDEST CALLVALUE PUSH2 0x16B JUMPI PUSH1 0x0 CALLDATASIZE PUSH1 0x3 NOT ADD SLT PUSH2 0x16B JUMPI PUSH1 0x20 PUSH1 0x40 MLOAD PUSH1 0x78 DUP2 MSTORE RETURN JUMPDEST CALLVALUE PUSH2 0x16B JUMPI PUSH1 0x20 CALLDATASIZE PUSH1 0x3 NOT ADD SLT PUSH2 0x16B JUMPI PUSH1 0x4 CALLDATALOAD PUSH1 0x0 MSTORE PUSH1 0x3 DUP1 PUSH1 0x20 MSTORE PUSH1 0x40 PUSH1 0x0 KECCAK256 PUSH1 0x7 DUP2 ADD SLOAD SWAP1 PUSH2 0xB5A DUP3 PUSH2 0x21BB JUMP JUMPDEST PUSH1 0xA DUP3 ADD SLOAD SWAP1 SWAP4 DUP2 PUSH2 0xC09 JUMPI POP POP POP DUP1 ISZERO PUSH2 0xBF3 JUMPI DUP1 PUSH1 0x64 DIV PUSH1 0x0 JUMPDEST DUP3 DUP2 LT PUSH2 0xBDE JUMPI POP SWAP1 PUSH2 0xB88 SWAP2 PUSH2 0x2052 JUMP JUMPDEST PUSH1 0x64 SUB SWAP1 PUSH1 0x64 DUP3 GT PUSH2 0xBC8 JUMPI PUSH2 0xBAA PUSH2 0xAEB SWAP3 PUSH2 0xBA4 DUP4 PUSH2 0x222E JUMP JUMPDEST MLOAD PUSH2 0x206F JUMP JUMPDEST PUSH2 0xBB3 DUP3 PUSH2 0x222E JUMP JUMPDEST MSTORE PUSH1 0x40 MLOAD SWAP2 DUP3 SWAP2 PUSH1 0x20 DUP4 MSTORE PUSH1 0x20 DUP4 ADD SWAP1 PUSH2 0x1E87 JUMP JUMPDEST PUSH4 0x4E487B71 PUSH1 0xE0 SHL PUSH1 0x0 MSTORE PUSH1 0x11 PUSH1 0x4 MSTORE PUSH1 0x24 PUSH1 0x0 REVERT JUMPDEST DUP1 DUP3 PUSH2 0xBEC PUSH1 0x1 SWAP4 DUP8 PUSH2 0x223B JUMP JUMPDEST MSTORE ADD PUSH2 0xB76 JUMP JUMPDEST PUSH4 0x4E487B71 PUSH1 0xE0 SHL PUSH1 0x0 MSTORE PUSH1 0x12 PUSH1 0x4 MSTORE PUSH1 0x24 PUSH1 0x0 REVERT JUMPDEST SWAP1 SWAP4 SWAP3 PUSH1 0x0 SWAP3 PUSH1 0x6 PUSH1 0x0 SWAP2 ADD SWAP6 JUMPDEST DUP3 DUP3 LT PUSH2 0xCB0 JUMPI POP POP PUSH1 0x64 DUP4 LT PUSH2 0xC36 JUMPI JUMPDEST POP POP POP PUSH2 0xAEB SWAP2 POP PUSH2 0xAD7 JUMP JUMPDEST PUSH1 0x0 SWAP5 PUSH1 0x1 SWAP3 PUSH1 0x1 JUMPDEST DUP4 DUP2 LT PUSH2 0xC7B JUMPI POP POP POP POP POP PUSH1 0x64 SUB SWAP2 PUSH1 0x64 DUP4 GT PUSH2 0xBC8 JUMPI PUSH2 0xC72 PUSH2 0xC6B PUSH2 0xAEB SWAP5 PUSH2 0xBA4 DUP5 DUP7 PUSH2 0x223B JUMP JUMPDEST SWAP2 DUP4 PUSH2 0x223B JUMP JUMPDEST MSTORE DUP3 DUP1 DUP1 PUSH2 0xC29 JUMP JUMPDEST PUSH2 0xC85 DUP2 DUP5 PUSH2 0x1EE7 JUMP JUMPDEST SWAP1 SLOAD SWAP1 DUP4 SHL SHR PUSH2 0xC95 DUP10 DUP6 PUSH2 0x1EE7 JUMP JUMPDEST SWAP1 SLOAD SWAP1 DUP5 SHL SHR LT PUSH2 0xCA8 JUMPI JUMPDEST DUP5 ADD PUSH2 0xC3F JUMP JUMPDEST SWAP7 POP DUP7 PUSH2 0xCA1 JUMP JUMPDEST SWAP1 SWAP4 PUSH2 0xCBC DUP6 DUP9 PUSH2 0x1EE7 JUMP JUMPDEST SWAP1 SLOAD PUSH1 0x64 SWAP2 DUP7 SHL SHR DUP2 DUP2 MUL SWAP2 DUP2 ISZERO SWAP2 DUP4 DIV EQ OR ISZERO PUSH2 0xBC8 JUMPI PUSH1 0x1 SWAP2 PUSH2 0xCE4 DUP5 PUSH2 0xD00 SWAP4 PUSH2 0x2065 JUMP JUMPDEST PUSH2 0xCEE DUP9 DUP11 PUSH2 0x223B JUMP JUMPDEST MSTORE PUSH2 0xCF9 DUP8 DUP10 PUSH2 0x223B JUMP JUMPDEST MLOAD SWAP1 PUSH2 0x206F JUMP JUMPDEST SWAP5 ADD SWAP1 PUSH2 0xC17 JUMP JUMPDEST PUSH2 0x140 CALLDATASIZE PUSH1 0x3 NOT ADD SLT PUSH2 0x16B JUMPI PUSH1 0x4 CALLDATALOAD PUSH1 0x1 PUSH1 0x1 PUSH1 0x40 SHL SUB DUP2 GT PUSH2 0x16B JUMPI PUSH2 0xD34 SWAP1 CALLDATASIZE SWAP1 PUSH1 0x4 ADD PUSH2 0x1E5A JUMP JUMPDEST SWAP1 PUSH1 0x24 CALLDATALOAD PUSH1 0x1 PUSH1 0x1 PUSH1 0x40 SHL SUB DUP2 GT PUSH2 0x16B JUMPI PUSH2 0xD54 SWAP1 CALLDATASIZE SWAP1 PUSH1 0x4 ADD PUSH2 0x1E5A JUMP JUMPDEST SWAP2 SWAP1 PUSH1 0x44 CALLDATALOAD PUSH1 0x1 PUSH1 0x1 PUSH1 0x40 SHL SUB DUP2 GT PUSH2 0x16B JUMPI PUSH2 0xD75 SWAP1 CALLDATASIZE SWAP1 PUSH1 0x4 ADD PUSH2 0x1E5A JUMP JUMPDEST SWAP2 SWAP1 SWAP3 PUSH1 0x64 CALLDATALOAD PUSH1 0x1 PUSH1 0x1 PUSH1 0x40 SHL SUB DUP2 GT PUSH2 0x16B JUMPI PUSH2 0xD97 SWAP1 CALLDATASIZE SWAP1 PUSH1 0x4 ADD PUSH2 0x1E5A JUMP JUMPDEST SWAP2 SWAP1 SWAP3 PUSH1 0x84 CALLDATALOAD SWAP6 PUSH1 0x1 PUSH1 0x1 PUSH1 0x40 SHL SUB DUP8 GT PUSH2 0x16B JUMPI CALLDATASIZE PUSH1 0x23 DUP9 ADD SLT ISZERO PUSH2 0x16B JUMPI PUSH1 0x1 PUSH1 0x1 PUSH1 0x40 SHL SUB DUP8 PUSH1 0x4 ADD CALLDATALOAD GT PUSH2 0x16B JUMPI CALLDATASIZE PUSH1 0x24 DUP9 PUSH1 0x4 ADD CALLDATALOAD PUSH1 0x5 SHL DUP10 ADD ADD GT PUSH2 0x16B JUMPI PUSH1 0xE4 CALLDATALOAD ISZERO ISZERO PUSH1 0xE4 CALLDATALOAD SUB PUSH2 0x16B JUMPI PUSH2 0x104 CALLDATALOAD PUSH1 0x1 PUSH1 0x1 PUSH1 0x40 SHL SUB DUP2 GT PUSH2 0x16B JUMPI PUSH2 0xE09 SWAP1 CALLDATASIZE SWAP1 PUSH1 0x4 ADD PUSH2 0x1E5A JUMP JUMPDEST SWAP9 SWAP1 SWAP3 PUSH1 0xFF PUSH2 0x124 CALLDATALOAD AND PUSH2 0x124 CALLDATALOAD SUB PUSH2 0x16B JUMPI DUP11 ISZERO PUSH2 0x1849 JUMPI PUSH1 0x2 DUP10 PUSH1 0x4 ADD CALLDATALOAD LT PUSH2 0x1804 JUMPI PUSH1 0xA DUP10 PUSH1 0x4 ADD CALLDATALOAD GT PUSH2 0x17CD JUMPI TIMESTAMP PUSH1 0xC4 CALLDATALOAD GT ISZERO PUSH2 0x1788 JUMPI PUSH1 0xA4 CALLDATALOAD PUSH2 0x177F JUMPI TIMESTAMP SWAP8 JUMPDEST DUP9 PUSH1 0xC4 CALLDATALOAD GT ISZERO PUSH2 0x173A JUMPI PUSH1 0x4 DUP11 ADD CALLDATALOAD PUSH1 0x1 DUP2 ADD LT PUSH2 0xBC8 JUMPI PUSH2 0xE76 PUSH1 0x1 DUP12 PUSH1 0x4 ADD CALLDATALOAD ADD PUSH2 0x21A4 JUMP JUMPDEST SWAP4 PUSH2 0xE84 PUSH1 0x40 MLOAD SWAP6 DUP7 PUSH2 0x1F70 JUMP JUMPDEST PUSH1 0x4 DUP12 ADD CALLDATALOAD PUSH1 0x1 ADD DUP1 DUP7 MSTORE PUSH1 0x1F NOT SWAP1 PUSH2 0xE9C SWAP1 PUSH2 0x21A4 JUMP JUMPDEST ADD PUSH1 0x0 JUMPDEST DUP2 DUP2 LT PUSH2 0x1729 JUMPI POP POP PUSH2 0xEB9 PUSH1 0x1 DUP13 PUSH1 0x4 ADD CALLDATALOAD ADD PUSH2 0x21BB JUMP JUMPDEST SWAP4 PUSH1 0x0 JUMPDEST DUP13 DUP1 PUSH1 0x4 ADD CALLDATALOAD DUP3 LT PUSH2 0x1661 JUMPI POP POP PUSH1 0x40 MLOAD SWAP7 DUP8 PUSH1 0x40 DUP2 ADD LT PUSH1 0x1 PUSH1 0x1 PUSH1 0x40 SHL SUB PUSH1 0x40 DUP11 ADD GT OR PUSH2 0x1443 JUMPI PUSH1 0x1 PUSH1 0x1 PUSH1 0x40 SHL SUB SWAP14 DUP16 SWAP9 PUSH2 0xF41 DUP16 DUP3 PUSH1 0x40 PUSH1 0x0 SWAP5 ADD PUSH1 0x40 MSTORE PUSH1 0xC DUP2 MSTORE PUSH12 0x155B98DB185CDCDA599A5959 PUSH1 0xA2 SHL PUSH1 0x20 DUP3 ADD MSTORE PUSH2 0xF27 DUP3 PUSH1 0x4 ADD CALLDATALOAD DUP14 PUSH2 0x223B JUMP JUMPDEST MSTORE PUSH2 0xF36 DUP2 PUSH1 0x4 ADD CALLDATALOAD DUP13 PUSH2 0x223B JUMP JUMPDEST POP PUSH1 0x4 ADD CALLDATALOAD DUP10 PUSH2 0x223B JUMP JUMPDEST MSTORE DUP1 ISZERO PUSH2 0x1657 JUMPI PUSH2 0xF6C PUSH1 0x20 PUSH1 0x40 MLOAD DUP4 DUP2 SWAP5 DUP4 DUP4 ADD SWAP7 DUP8 CALLDATACOPY DUP2 ADD PUSH1 0x0 DUP4 DUP3 ADD MSTORE SUB DUP1 DUP5 MSTORE ADD DUP3 PUSH2 0x1F70 JUMP JUMPDEST MLOAD SWAP1 KECCAK256 SWAP4 JUMPDEST PUSH1 0x1 SLOAD SWAP14 DUP15 SWAP9 DUP10 PUSH1 0x0 MSTORE PUSH1 0x3 PUSH1 0x20 MSTORE PUSH1 0x40 PUSH1 0x0 KECCAK256 SWAP10 DUP11 SSTORE GT PUSH2 0x1443 JUMPI DUP15 PUSH2 0xFA8 DUP2 PUSH2 0xF9F PUSH1 0x1 DUP13 ADD SLOAD PUSH2 0x20C7 JUMP JUMPDEST PUSH1 0x1 DUP13 ADD PUSH2 0x224F JUMP JUMPDEST PUSH1 0x0 PUSH1 0x1F DUP3 GT PUSH1 0x1 EQ PUSH2 0x15EA JUMPI SWAP1 DUP1 PUSH2 0xFD7 SWAP3 PUSH1 0x0 SWAP2 PUSH2 0x15DF JUMPI JUMPDEST POP DUP2 PUSH1 0x1 SHL SWAP2 PUSH1 0x0 NOT SWAP1 PUSH1 0x3 SHL SHR NOT AND OR SWAP1 JUMP JUMPDEST PUSH1 0x1 DUP10 ADD SSTORE JUMPDEST PUSH1 0x1 PUSH1 0x1 PUSH1 0x40 SHL SUB DUP3 GT PUSH2 0x1443 JUMPI PUSH2 0x1005 DUP3 PUSH2 0xFFC PUSH1 0x2 DUP12 ADD SLOAD PUSH2 0x20C7 JUMP JUMPDEST PUSH1 0x2 DUP12 ADD PUSH2 0x224F JUMP JUMPDEST PUSH1 0x0 SWAP1 PUSH1 0x1F DUP4 GT PUSH1 0x1 EQ PUSH2 0x156E JUMPI PUSH2 0x1036 SWAP3 SWAP2 PUSH1 0x0 SWAP2 DUP4 PUSH2 0x1563 JUMPI JUMPDEST POP POP DUP2 PUSH1 0x1 SHL SWAP2 PUSH1 0x0 NOT SWAP1 PUSH1 0x3 SHL SHR NOT AND OR SWAP1 JUMP JUMPDEST PUSH1 0x2 DUP8 ADD SSTORE JUMPDEST PUSH1 0x1 PUSH1 0x1 PUSH1 0x40 SHL SUB DUP3 GT PUSH2 0x1443 JUMPI PUSH2 0x1064 DUP3 PUSH2 0x105B PUSH1 0x3 DUP10 ADD SLOAD PUSH2 0x20C7 JUMP JUMPDEST PUSH1 0x3 DUP10 ADD PUSH2 0x224F JUMP JUMPDEST PUSH1 0x0 SWAP1 PUSH1 0x1F DUP4 GT PUSH1 0x1 EQ PUSH2 0x14F2 JUMPI PUSH2 0x1094 SWAP3 SWAP2 PUSH1 0x0 SWAP2 DUP4 PUSH2 0x14E7 JUMPI POP POP DUP2 PUSH1 0x1 SHL SWAP2 PUSH1 0x0 NOT SWAP1 PUSH1 0x3 SHL SHR NOT AND OR SWAP1 JUMP JUMPDEST PUSH1 0x3 DUP6 ADD SSTORE JUMPDEST PUSH1 0x1 PUSH1 0x1 PUSH1 0x40 SHL SUB DUP7 GT PUSH2 0x1443 JUMPI PUSH2 0x10C2 DUP7 PUSH2 0x10B9 PUSH1 0x4 DUP8 ADD SLOAD PUSH2 0x20C7 JUMP JUMPDEST PUSH1 0x4 DUP8 ADD PUSH2 0x224F JUMP JUMPDEST PUSH1 0x0 DUP7 PUSH1 0x1F DUP2 GT PUSH1 0x1 EQ PUSH2 0x147A JUMPI DUP1 PUSH2 0x10F0 SWAP3 PUSH1 0x0 SWAP2 PUSH2 0x146F JUMPI POP DUP2 PUSH1 0x1 SHL SWAP2 PUSH1 0x0 NOT SWAP1 PUSH1 0x3 SHL SHR NOT AND OR SWAP1 JUMP JUMPDEST PUSH1 0x4 DUP6 ADD SSTORE JUMPDEST PUSH1 0x1 DUP10 PUSH1 0x4 ADD CALLDATALOAD ADD PUSH1 0x7 DUP6 ADD SSTORE PUSH1 0xC4 CALLDATALOAD PUSH1 0x8 DUP6 ADD SSTORE DUP8 PUSH1 0x9 DUP6 ADD SSTORE PUSH1 0x0 PUSH1 0xA DUP6 ADD SSTORE PUSH1 0xB DUP5 ADD SWAP1 PUSH1 0xFF NOT SWAP2 DUP3 DUP2 SLOAD AND SWAP1 SSTORE PUSH1 0x0 PUSH1 0xC DUP7 ADD SSTORE PUSH1 0xD DUP6 ADD CALLER PUSH12 0xFFFFFFFFFFFFFFFFFFFFFFFF PUSH1 0xA0 SHL DUP3 SLOAD AND OR SWAP1 SSTORE TIMESTAMP PUSH1 0xE DUP7 ADD SSTORE PUSH2 0x116A PUSH1 0xE4 CALLDATALOAD PUSH1 0xF DUP8 ADD SWAP1 PUSH1 0xFF DUP1 NOT DUP4 SLOAD AND SWAP2 ISZERO ISZERO AND OR SWAP1 SSTORE JUMP JUMPDEST PUSH1 0x10 DUP6 ADD SSTORE PUSH1 0x11 DUP5 ADD SWAP1 PUSH1 0xFF PUSH2 0x124 CALLDATALOAD AND SWAP1 DUP3 SLOAD AND OR SWAP1 SSTORE PUSH1 0x0 JUMPDEST PUSH1 0x1 DUP10 PUSH1 0x4 ADD CALLDATALOAD ADD DUP2 LT PUSH2 0x1317 JUMPI POP POP POP PUSH1 0x1 SLOAD PUSH1 0x0 NOT DUP2 EQ PUSH2 0xBC8 JUMPI PUSH1 0x1 ADD PUSH1 0x1 SSTORE CALLVALUE PUSH2 0x123B JUMPI JUMPDEST POP SWAP3 PUSH1 0x1 PUSH2 0x11FF PUSH32 0x83983FAA26DCAA23AF8E8247D007E294E4689561528ADA69F8B3A297FDD49438 SWAP5 PUSH1 0x20 SWAP10 SWAP5 PUSH2 0x11F2 DUP11 SWAP9 PUSH1 0x40 MLOAD SWAP8 PUSH1 0xE0 DUP10 MSTORE PUSH1 0xE0 DUP10 ADD SWAP2 PUSH2 0x22E3 JUMP JUMPDEST SWAP2 DUP7 DUP4 SUB DUP13 DUP9 ADD MSTORE PUSH2 0x22E3 JUMP JUMPDEST SWAP6 PUSH1 0x4 ADD CALLDATALOAD ADD PUSH1 0x40 DUP4 ADD MSTORE PUSH1 0x60 DUP3 ADD MSTORE PUSH1 0xC4 CALLDATALOAD PUSH1 0x80 DUP3 ADD MSTORE PUSH1 0xE4 CALLDATALOAD ISZERO ISZERO PUSH1 0xA0 DUP3 ADD MSTORE PUSH1 0xFF PUSH2 0x124 CALLDATALOAD AND PUSH1 0xC0 DUP3 ADD MSTORE DUP1 CALLER SWAP5 SUB SWAP1 LOG3 PUSH1 0x40 MLOAD SWAP1 DUP2 MSTORE RETURN JUMPDEST PUSH2 0x124C PUSH1 0x1 DUP8 PUSH1 0x4 ADD CALLDATALOAD ADD CALLVALUE PUSH2 0x2065 JUMP JUMPDEST PUSH2 0x1266 PUSH2 0x1260 PUSH1 0x1 DUP10 PUSH1 0x4 ADD CALLDATALOAD ADD DUP4 PUSH2 0x2052 JUMP JUMPDEST CALLVALUE PUSH2 0x2197 JUMP JUMPDEST SWAP1 PUSH1 0x0 JUMPDEST PUSH1 0x1 DUP10 PUSH1 0x4 ADD CALLDATALOAD ADD DUP2 LT PUSH2 0x12CE JUMPI POP POP POP PUSH2 0x11FF PUSH32 0x83983FAA26DCAA23AF8E8247D007E294E4689561528ADA69F8B3A297FDD49438 SWAP5 PUSH1 0x20 SWAP10 SWAP5 PUSH2 0x11F2 DUP11 SWAP9 SWAP6 PUSH1 0x1 SWAP6 PUSH1 0xA PUSH2 0x12BC CALLVALUE DUP3 DUP5 ADD SLOAD PUSH2 0x206F JUMP JUMPDEST SWAP2 ADD SSTORE SWAP6 SWAP9 POP POP SWAP5 SWAP10 POP SWAP5 POP POP PUSH2 0x11AE JUMP JUMPDEST PUSH1 0x1 SWAP1 DUP3 DUP2 ISZERO PUSH2 0x1302 JUMPI JUMPDEST PUSH2 0x12FC SWAP1 PUSH2 0x328 PUSH2 0x12ED DUP5 PUSH1 0x6 DUP11 ADD PUSH2 0x1EE7 JUMP JUMPDEST SWAP2 SWAP1 SWAP3 DUP4 SLOAD DUP4 PUSH1 0x3 SHL SHR PUSH2 0x206F JUMP JUMPDEST ADD PUSH2 0x126A JUMP JUMPDEST POP PUSH2 0x12FC PUSH2 0x1310 DUP6 DUP6 PUSH2 0x206F JUMP JUMPDEST SWAP1 POP PUSH2 0x12D9 JUMP JUMPDEST PUSH2 0x1321 DUP2 DUP5 PUSH2 0x223B JUMP JUMPDEST MLOAD PUSH1 0x5 DUP6 ADD SLOAD PUSH1 0x1 PUSH1 0x40 SHL DUP2 LT ISZERO PUSH2 0x1443 JUMPI DUP1 PUSH1 0x1 PUSH2 0x1349 SWAP3 ADD PUSH1 0x5 DUP9 ADD SSTORE PUSH1 0x5 DUP8 ADD PUSH2 0x1EE7 JUMP JUMPDEST SWAP2 SWAP1 SWAP2 PUSH2 0x1459 JUMPI DUP1 MLOAD SWAP1 PUSH1 0x1 PUSH1 0x1 PUSH1 0x40 SHL SUB DUP3 GT PUSH2 0x1443 JUMPI PUSH2 0x1375 DUP3 PUSH2 0x136F DUP6 SLOAD PUSH2 0x20C7 JUMP JUMPDEST DUP6 PUSH2 0x224F JUMP JUMPDEST PUSH1 0x20 SWAP1 PUSH1 0x1F DUP4 GT PUSH1 0x1 EQ PUSH2 0x13D5 JUMPI SWAP2 DUP1 PUSH2 0x13AA SWAP3 PUSH1 0x1 SWAP7 SWAP6 SWAP5 PUSH1 0x0 SWAP3 PUSH2 0x13CA JUMPI POP POP DUP2 PUSH1 0x1 SHL SWAP2 PUSH1 0x0 NOT SWAP1 PUSH1 0x3 SHL SHR NOT AND OR SWAP1 JUMP JUMPDEST SWAP1 SSTORE JUMPDEST PUSH2 0x13C4 PUSH2 0x13BA DUP3 DUP6 PUSH2 0x223B JUMP JUMPDEST MLOAD PUSH1 0x6 DUP8 ADD PUSH2 0x22A5 JUMP JUMPDEST ADD PUSH2 0x1185 JUMP JUMPDEST ADD MLOAD SWAP1 POP CODESIZE DUP1 PUSH2 0x1021 JUMP JUMPDEST SWAP1 DUP4 PUSH1 0x0 MSTORE PUSH1 0x20 PUSH1 0x0 KECCAK256 SWAP2 PUSH1 0x0 JUMPDEST PUSH1 0x1F NOT DUP6 AND DUP2 LT PUSH2 0x142B JUMPI POP SWAP2 DUP4 SWAP2 PUSH1 0x1 SWAP7 SWAP6 SWAP5 SWAP4 DUP8 SWAP5 PUSH1 0x1F NOT DUP2 AND LT PUSH2 0x1412 JUMPI JUMPDEST POP POP POP DUP2 SHL ADD SWAP1 SSTORE PUSH2 0x13AD JUMP JUMPDEST ADD MLOAD PUSH1 0x0 NOT PUSH1 0xF8 DUP5 PUSH1 0x3 SHL AND SHR NOT AND SWAP1 SSTORE DUP16 DUP1 DUP1 PUSH2 0x1405 JUMP JUMPDEST SWAP2 SWAP3 PUSH1 0x20 PUSH1 0x1 DUP2 SWAP3 DUP7 DUP6 ADD MLOAD DUP2 SSTORE ADD SWAP5 ADD SWAP3 ADD PUSH2 0x13E3 JUMP JUMPDEST PUSH4 0x4E487B71 PUSH1 0xE0 SHL PUSH1 0x0 MSTORE PUSH1 0x41 PUSH1 0x4 MSTORE PUSH1 0x24 PUSH1 0x0 REVERT JUMPDEST PUSH4 0x4E487B71 PUSH1 0xE0 SHL PUSH1 0x0 MSTORE PUSH1 0x0 PUSH1 0x4 MSTORE PUSH1 0x24 PUSH1 0x0 REVERT JUMPDEST SWAP1 POP DUP10 ADD CALLDATALOAD DUP15 PUSH2 0xFC3 JUMP JUMPDEST POP PUSH1 0x4 DUP6 ADD PUSH1 0x0 MSTORE PUSH1 0x20 PUSH1 0x0 KECCAK256 SWAP1 PUSH1 0x0 JUMPDEST PUSH1 0x1F NOT DUP10 AND DUP2 LT PUSH2 0x14CF JUMPI POP DUP8 PUSH1 0x1F NOT DUP2 AND LT PUSH2 0x14B5 JUMPI JUMPDEST POP POP PUSH1 0x1 DUP7 DUP2 SHL ADD PUSH1 0x4 DUP6 ADD SSTORE PUSH2 0x10F6 JUMP JUMPDEST DUP9 ADD CALLDATALOAD PUSH1 0x0 NOT PUSH1 0x3 DUP10 SWAP1 SHL PUSH1 0xF8 AND SHR NOT AND SWAP1 SSTORE DUP12 DUP1 PUSH2 0x14A3 JUMP JUMPDEST SWAP1 SWAP2 PUSH1 0x20 PUSH1 0x1 DUP2 SWAP3 DUP6 DUP14 ADD CALLDATALOAD DUP2 SSTORE ADD SWAP4 ADD SWAP2 ADD PUSH2 0x148B JUMP JUMPDEST ADD CALLDATALOAD SWAP1 POP DUP15 DUP1 PUSH2 0x1021 JUMP JUMPDEST PUSH1 0x3 DUP8 SWAP4 SWAP3 SWAP4 ADD PUSH1 0x0 MSTORE PUSH1 0x20 PUSH1 0x0 KECCAK256 SWAP1 PUSH1 0x0 SWAP4 JUMPDEST PUSH1 0x1F NOT DUP5 AND DUP6 LT PUSH2 0x154B JUMPI PUSH1 0x1 SWAP5 POP DUP4 PUSH1 0x1F NOT DUP2 AND LT PUSH2 0x1531 JUMPI JUMPDEST POP POP POP DUP2 SHL ADD PUSH1 0x3 DUP6 ADD SSTORE PUSH2 0x109A JUMP JUMPDEST ADD CALLDATALOAD PUSH1 0x0 NOT PUSH1 0x3 DUP5 SWAP1 SHL PUSH1 0xF8 AND SHR NOT AND SWAP1 SSTORE DUP14 DUP1 DUP1 PUSH2 0x1521 JUMP JUMPDEST DUP2 DUP2 ADD CALLDATALOAD DUP4 SSTORE PUSH1 0x20 SWAP5 DUP6 ADD SWAP5 PUSH1 0x1 SWAP1 SWAP4 ADD SWAP3 ADD PUSH2 0x1506 JUMP JUMPDEST ADD CALLDATALOAD SWAP1 POP CODESIZE DUP1 PUSH2 0x1021 JUMP JUMPDEST PUSH1 0x2 DUP10 SWAP4 SWAP3 SWAP4 ADD PUSH1 0x0 MSTORE PUSH1 0x20 PUSH1 0x0 KECCAK256 SWAP1 PUSH1 0x0 SWAP4 JUMPDEST PUSH1 0x1F NOT DUP5 AND DUP6 LT PUSH2 0x15C7 JUMPI PUSH1 0x1 SWAP5 POP DUP4 PUSH1 0x1F NOT DUP2 AND LT PUSH2 0x15AD JUMPI JUMPDEST POP POP POP DUP2 SHL ADD PUSH1 0x2 DUP8 ADD SSTORE PUSH2 0x103C JUMP JUMPDEST ADD CALLDATALOAD PUSH1 0x0 NOT PUSH1 0x3 DUP5 SWAP1 SHL PUSH1 0xF8 AND SHR NOT AND SWAP1 SSTORE DUP16 DUP1 DUP1 PUSH2 0x159D JUMP JUMPDEST DUP2 DUP2 ADD CALLDATALOAD DUP4 SSTORE PUSH1 0x20 SWAP5 DUP6 ADD SWAP5 PUSH1 0x1 SWAP1 SWAP4 ADD SWAP3 ADD PUSH2 0x1582 JUMP JUMPDEST SWAP1 POP DUP12 ADD CALLDATALOAD CODESIZE PUSH2 0xFC3 JUMP JUMPDEST SWAP1 PUSH1 0x1 DUP11 ADD PUSH1 0x0 MSTORE PUSH1 0x20 PUSH1 0x0 KECCAK256 PUSH1 0x0 JUMPDEST DUP13 PUSH1 0x1F NOT DUP5 AND DUP3 LT PUSH2 0x1640 JUMPI POP POP PUSH1 0x1 SWAP3 DUP3 PUSH1 0x1F NOT DUP2 AND LT PUSH2 0x1626 JUMPI JUMPDEST POP POP DUP2 SHL ADD PUSH1 0x1 DUP10 ADD SSTORE PUSH2 0xFDD JUMP JUMPDEST DUP13 ADD CALLDATALOAD PUSH1 0x0 NOT PUSH1 0x3 DUP5 SWAP1 SHL PUSH1 0xF8 AND SHR NOT AND SWAP1 SSTORE CODESIZE DUP1 PUSH2 0x1617 JUMP JUMPDEST DUP5 ADD CALLDATALOAD DUP3 SSTORE PUSH1 0x20 SWAP4 DUP5 ADD SWAP4 PUSH1 0x1 SWAP1 SWAP3 ADD SWAP2 ADD PUSH2 0x15FA JUMP JUMPDEST POP POP PUSH1 0x0 SWAP4 PUSH2 0xF71 JUMP JUMPDEST DUP2 DUP2 PUSH1 0x24 PUSH2 0x1674 SWAP4 PUSH1 0x4 ADD CALLDATALOAD SWAP2 ADD PUSH2 0x21ED JUMP JUMPDEST SWAP1 POP ISZERO PUSH2 0x16EE JUMPI PUSH2 0x168E DUP2 DUP15 PUSH1 0x24 DUP2 PUSH1 0x4 ADD CALLDATALOAD SWAP2 ADD PUSH2 0x21ED JUMP JUMPDEST PUSH2 0x169A DUP2 SWAP4 SWAP3 SWAP4 PUSH2 0x207C JUMP JUMPDEST SWAP1 PUSH2 0x16A8 PUSH1 0x40 MLOAD SWAP3 DUP4 PUSH2 0x1F70 JUMP JUMPDEST DUP1 DUP3 MSTORE CALLDATASIZE DUP2 DUP6 ADD GT PUSH2 0x16B JUMPI PUSH1 0x20 DUP2 PUSH1 0x0 SWAP3 PUSH1 0x1 SWAP7 DUP4 DUP7 ADD CALLDATACOPY DUP4 ADD ADD MSTORE PUSH2 0x16CF DUP3 DUP11 PUSH2 0x223B JUMP JUMPDEST MSTORE PUSH2 0x16DA DUP2 DUP10 PUSH2 0x223B JUMP JUMPDEST POP PUSH1 0x0 PUSH2 0x16E7 DUP3 DUP10 PUSH2 0x223B JUMP JUMPDEST MSTORE ADD PUSH2 0xEBD JUMP JUMPDEST PUSH1 0x40 MLOAD PUSH3 0x461BCD PUSH1 0xE5 SHL DUP2 MSTORE PUSH1 0x20 PUSH1 0x4 DUP3 ADD MSTORE PUSH1 0x13 PUSH1 0x24 DUP3 ADD MSTORE PUSH19 0x115B5C1D1E481BDD5D18DBDB59481B1858995B PUSH1 0x6A SHL PUSH1 0x44 DUP3 ADD MSTORE PUSH1 0x64 SWAP1 REVERT JUMPDEST DUP1 PUSH1 0x60 PUSH1 0x20 DUP1 SWAP4 DUP11 ADD ADD MSTORE ADD PUSH2 0xEA0 JUMP JUMPDEST PUSH1 0x40 MLOAD PUSH3 0x461BCD PUSH1 0xE5 SHL DUP2 MSTORE PUSH1 0x20 PUSH1 0x4 DUP3 ADD MSTORE PUSH1 0x17 PUSH1 0x24 DUP3 ADD MSTORE PUSH32 0x456E64206D757374206265206166746572207374617274000000000000000000 PUSH1 0x44 DUP3 ADD MSTORE PUSH1 0x64 SWAP1 REVERT JUMPDEST PUSH1 0xA4 CALLDATALOAD SWAP8 PUSH2 0xE4E JUMP JUMPDEST PUSH1 0x40 MLOAD PUSH3 0x461BCD PUSH1 0xE5 SHL DUP2 MSTORE PUSH1 0x20 PUSH1 0x4 DUP3 ADD MSTORE PUSH1 0x17 PUSH1 0x24 DUP3 ADD MSTORE PUSH32 0x456E642074696D65206D75737420626520667574757265000000000000000000 PUSH1 0x44 DUP3 ADD MSTORE PUSH1 0x64 SWAP1 REVERT JUMPDEST PUSH1 0x40 MLOAD PUSH3 0x461BCD PUSH1 0xE5 SHL DUP2 MSTORE PUSH1 0x20 PUSH1 0x4 DUP3 ADD MSTORE PUSH1 0xF PUSH1 0x24 DUP3 ADD MSTORE PUSH15 0x4D6178203130206F7574636F6D6573 PUSH1 0x88 SHL PUSH1 0x44 DUP3 ADD MSTORE PUSH1 0x64 SWAP1 REVERT JUMPDEST PUSH1 0x40 MLOAD PUSH3 0x461BCD PUSH1 0xE5 SHL DUP2 MSTORE PUSH1 0x20 PUSH1 0x4 DUP3 ADD MSTORE PUSH1 0x18 PUSH1 0x24 DUP3 ADD MSTORE PUSH32 0x4E656564206174206C656173742032206F7574636F6D65730000000000000000 PUSH1 0x44 DUP3 ADD MSTORE PUSH1 0x64 SWAP1 REVERT JUMPDEST PUSH1 0x40 MLOAD PUSH3 0x461BCD PUSH1 0xE5 SHL DUP2 MSTORE PUSH1 0x20 PUSH1 0x4 DUP3 ADD MSTORE PUSH1 0x11 PUSH1 0x24 DUP3 ADD MSTORE PUSH17 0x145D595CDD1A5BDB881C995C5D5A5C9959 PUSH1 0x7A SHL PUSH1 0x44 DUP3 ADD MSTORE PUSH1 0x64 SWAP1 REVERT JUMPDEST CALLVALUE PUSH2 0x16B JUMPI PUSH1 0x0 CALLDATASIZE PUSH1 0x3 NOT ADD SLT PUSH2 0x16B JUMPI PUSH1 0x0 SLOAD PUSH1 0x40 MLOAD PUSH1 0x1 PUSH1 0x1 PUSH1 0xA0 SHL SUB SWAP1 SWAP2 AND DUP2 MSTORE PUSH1 0x20 SWAP1 RETURN JUMPDEST CALLVALUE PUSH2 0x16B JUMPI PUSH1 0x20 DUP1 PUSH1 0x3 NOT CALLDATASIZE ADD SLT PUSH2 0x16B JUMPI PUSH1 0x4 CALLDATALOAD PUSH2 0x18CD PUSH1 0x1 SLOAD DUP3 LT PUSH2 0x1F91 JUMP JUMPDEST DUP1 PUSH1 0x0 MSTORE PUSH1 0x3 DUP3 MSTORE PUSH1 0x40 PUSH1 0x0 KECCAK256 SWAP2 PUSH1 0xFF PUSH1 0xB DUP5 ADD SLOAD AND ISZERO PUSH2 0x1AAB JUMPI DUP2 PUSH1 0x0 MSTORE PUSH1 0x4 DUP2 MSTORE PUSH1 0x40 PUSH1 0x0 KECCAK256 CALLER PUSH1 0x0 MSTORE DUP2 MSTORE PUSH1 0x40 PUSH1 0x0 KECCAK256 DUP1 SLOAD SWAP4 DUP5 ISZERO PUSH2 0x1A7D JUMPI PUSH1 0x2 DUP3 ADD DUP1 SLOAD SWAP3 PUSH1 0xFF DUP5 AND PUSH2 0x1A46 JUMPI PUSH1 0x1 ADD SLOAD SWAP3 PUSH1 0xC DUP4 ADD SWAP4 DUP5 SLOAD SUB PUSH2 0x1A13 JUMPI PUSH1 0xFF NOT AND PUSH1 0x1 OR SWAP1 SSTORE PUSH1 0xA DUP2 ADD SLOAD PUSH1 0xC8 DUP1 DUP3 MUL SWAP3 SWAP2 SWAP1 DUP4 DIV DUP2 SUB PUSH2 0xBC8 JUMPI PUSH2 0x195B PUSH1 0x6 SWAP2 PUSH2 0x2710 PUSH2 0x1964 SWAP6 DIV SWAP1 PUSH2 0x2197 JUMP JUMPDEST SWAP4 SLOAD SWAP2 ADD PUSH2 0x1EE7 JUMP JUMPDEST SWAP1 SLOAD SWAP1 PUSH1 0x3 SHL SHR SWAP1 PUSH1 0x0 SWAP5 DUP3 PUSH2 0x19F5 JUMPI JUMPDEST POP POP POP DUP3 PUSH2 0x19AB JUMPI JUMPDEST PUSH32 0x5380CF6FE903B40C6D5A9E0DFBCA2F3A423F0A21520B4D5947ED5169BDBA946D SWAP1 PUSH1 0x40 MLOAD SWAP4 DUP5 MSTORE CALLER SWAP4 LOG3 STOP JUMPDEST PUSH1 0x0 DUP1 DUP1 DUP1 DUP7 CALLER GAS CALL PUSH2 0x19BC PUSH2 0x2097 JUMP JUMPDEST POP PUSH2 0x197E JUMPI PUSH1 0x64 SWAP1 PUSH1 0x40 MLOAD SWAP1 PUSH3 0x461BCD PUSH1 0xE5 SHL DUP3 MSTORE PUSH1 0x4 DUP3 ADD MSTORE PUSH1 0xD PUSH1 0x24 DUP3 ADD MSTORE PUSH13 0x14185E5BDD5D0819985A5B1959 PUSH1 0x9A SHL PUSH1 0x44 DUP3 ADD MSTORE REVERT JUMPDEST PUSH2 0x1A0A SWAP4 SWAP6 POP SWAP1 PUSH2 0x1A05 SWAP2 PUSH2 0x2052 JUMP JUMPDEST PUSH2 0x2065 JUMP JUMPDEST SWAP2 DUP4 DUP1 DUP1 PUSH2 0x1975 JUMP JUMPDEST PUSH1 0x40 MLOAD PUSH3 0x461BCD PUSH1 0xE5 SHL DUP2 MSTORE PUSH1 0x4 DUP2 ADD DUP7 SWAP1 MSTORE PUSH1 0xB PUSH1 0x24 DUP3 ADD MSTORE PUSH11 0x2234B2103737BA103BB4B7 PUSH1 0xA9 SHL PUSH1 0x44 DUP3 ADD MSTORE PUSH1 0x64 SWAP1 REVERT JUMPDEST PUSH1 0x40 MLOAD PUSH3 0x461BCD PUSH1 0xE5 SHL DUP2 MSTORE PUSH1 0x4 DUP2 ADD DUP7 SWAP1 MSTORE PUSH1 0xF PUSH1 0x24 DUP3 ADD MSTORE PUSH15 0x105B1C9958591E4818DB185A5B5959 PUSH1 0x8A SHL PUSH1 0x44 DUP3 ADD MSTORE PUSH1 0x64 SWAP1 REVERT JUMPDEST PUSH1 0x40 MLOAD PUSH3 0x461BCD PUSH1 0xE5 SHL DUP2 MSTORE PUSH1 0x4 DUP2 ADD DUP5 SWAP1 MSTORE PUSH1 0x6 PUSH1 0x24 DUP3 ADD MSTORE PUSH6 0x139BC818995D PUSH1 0xD2 SHL PUSH1 0x44 DUP3 ADD MSTORE PUSH1 0x64 SWAP1 REVERT JUMPDEST PUSH1 0x64 SWAP1 PUSH1 0x40 MLOAD SWAP1 PUSH3 0x461BCD PUSH1 0xE5 SHL DUP3 MSTORE PUSH1 0x4 DUP3 ADD MSTORE PUSH1 0xC PUSH1 0x24 DUP3 ADD MSTORE PUSH12 0x139BDD081C995CDBDB1D9959 PUSH1 0xA2 SHL PUSH1 0x44 DUP3 ADD MSTORE REVERT JUMPDEST CALLVALUE PUSH2 0x16B JUMPI PUSH1 0x0 CALLDATASIZE PUSH1 0x3 NOT ADD SLT PUSH2 0x16B JUMPI PUSH1 0x20 PUSH1 0x40 MLOAD PUSH2 0x2710 DUP2 MSTORE RETURN JUMPDEST CALLVALUE PUSH2 0x16B JUMPI PUSH2 0x1B09 CALLDATASIZE PUSH2 0x1E44 JUMP JUMPDEST SWAP1 PUSH2 0x1B17 PUSH1 0x1 SLOAD DUP3 LT PUSH2 0x1F91 JUMP JUMPDEST DUP1 PUSH1 0x0 MSTORE PUSH1 0x20 PUSH1 0x3 DUP2 MSTORE PUSH1 0x40 PUSH1 0x0 KECCAK256 SWAP3 PUSH1 0xB DUP5 ADD DUP1 SLOAD PUSH2 0x1B3A PUSH1 0xFF DUP3 AND ISZERO PUSH2 0x1FD5 JUMP JUMPDEST PUSH1 0x8 DUP7 ADD SLOAD TIMESTAMP LT PUSH2 0x1D3C JUMPI PUSH2 0x1B54 PUSH1 0x7 DUP8 ADD SLOAD DUP5 LT PUSH2 0x2014 JUMP JUMPDEST PUSH1 0x11 DUP7 ADD SLOAD PUSH1 0xFF AND PUSH2 0x1CDD JUMPI PUSH1 0xD DUP7 ADD SLOAD PUSH1 0x1 PUSH1 0x1 PUSH1 0xA0 SHL SUB AND CALLER SUB PUSH2 0x1C98 JUMPI PUSH1 0x1 SWAP1 JUMPDEST PUSH1 0xFF NOT AND OR SWAP1 SSTORE DUP1 PUSH1 0xC DUP6 ADD SSTORE PUSH1 0xA DUP5 ADD DUP1 SLOAD PUSH1 0x78 DUP2 MUL SWAP1 DUP1 ISZERO SWAP2 DUP2 DUP2 DIV PUSH1 0x78 EQ DUP4 OR ISZERO PUSH2 0xBC8 JUMPI PUSH2 0x2710 DUP1 SWAP2 DIV SWAP3 PUSH1 0x50 DUP4 MUL SWAP3 DUP4 DIV PUSH1 0x50 EQ OR ISZERO PUSH2 0xBC8 JUMPI PUSH2 0x1BC4 SWAP2 DIV PUSH1 0x2 SLOAD PUSH2 0x206F JUMP JUMPDEST PUSH1 0x2 SSTORE DUP1 PUSH2 0x1C26 JUMPI JUMPDEST POP PUSH2 0x1C1B PUSH2 0x1C00 DUP4 PUSH1 0x5 PUSH32 0xC4E284C2A201B94563C6CE031A924441597063AD9CB49C9CB4F55AFB3A29A619 SWAP8 SWAP9 ADD PUSH2 0x1EE7 JUMP JUMPDEST POP SWAP2 SLOAD SWAP2 PUSH1 0x60 PUSH1 0x40 MLOAD SWAP6 DUP7 SWAP6 DUP7 MSTORE DUP6 ADD MSTORE PUSH1 0x60 DUP5 ADD SWAP1 PUSH2 0x2101 JUMP JUMPDEST SWAP1 PUSH1 0x40 DUP4 ADD MSTORE SUB SWAP1 LOG2 STOP JUMPDEST PUSH1 0xD DUP7 ADD SLOAD PUSH1 0x0 SWAP2 DUP3 SWAP2 DUP3 SWAP2 DUP3 SWAP2 PUSH1 0x1 PUSH1 0x1 PUSH1 0xA0 SHL SUB AND GAS CALL PUSH2 0x1C47 PUSH2 0x2097 JUMP JUMPDEST POP ISZERO PUSH2 0x1C53 JUMPI DUP6 PUSH2 0x1BCD JUMP JUMPDEST PUSH1 0x40 MLOAD PUSH3 0x461BCD PUSH1 0xE5 SHL DUP2 MSTORE PUSH1 0x4 DUP2 ADD DUP5 SWAP1 MSTORE PUSH1 0x1B PUSH1 0x24 DUP3 ADD MSTORE PUSH32 0x43726561746F7220666565207472616E73666572206661696C65640000000000 PUSH1 0x44 DUP3 ADD MSTORE PUSH1 0x64 SWAP1 REVERT JUMPDEST PUSH1 0x40 MLOAD PUSH3 0x461BCD PUSH1 0xE5 SHL DUP2 MSTORE PUSH1 0x4 DUP2 ADD DUP6 SWAP1 MSTORE PUSH1 0x18 PUSH1 0x24 DUP3 ADD MSTORE PUSH32 0x4F6E6C792063726561746F722063616E207265736F6C76650000000000000000 PUSH1 0x44 DUP3 ADD MSTORE PUSH1 0x64 SWAP1 REVERT JUMPDEST PUSH1 0x0 SLOAD PUSH1 0x1 PUSH1 0x1 PUSH1 0xA0 SHL SUB AND CALLER SUB PUSH2 0x1CF7 JUMPI PUSH1 0x1 SWAP1 PUSH2 0x1B78 JUMP JUMPDEST PUSH1 0x40 MLOAD PUSH3 0x461BCD PUSH1 0xE5 SHL DUP2 MSTORE PUSH1 0x4 DUP2 ADD DUP6 SWAP1 MSTORE PUSH1 0x1D PUSH1 0x24 DUP3 ADD MSTORE PUSH32 0x4F6E6C79206F7261636C652F6F776E65722063616E207265736F6C7665000000 PUSH1 0x44 DUP3 ADD MSTORE PUSH1 0x64 SWAP1 REVERT JUMPDEST PUSH1 0x40 MLOAD PUSH3 0x461BCD PUSH1 0xE5 SHL DUP2 MSTORE PUSH1 0x4 DUP2 ADD DUP6 SWAP1 MSTORE PUSH1 0x10 PUSH1 0x24 DUP3 ADD MSTORE PUSH16 0x13585C9AD95D081B9BDD08195B991959 PUSH1 0x82 SHL PUSH1 0x44 DUP3 ADD MSTORE PUSH1 0x64 SWAP1 REVERT JUMPDEST CALLVALUE PUSH2 0x16B JUMPI PUSH1 0x0 CALLDATASIZE PUSH1 0x3 NOT ADD SLT PUSH2 0x16B JUMPI PUSH1 0x20 PUSH1 0x40 MLOAD PUSH1 0x50 DUP2 MSTORE RETURN JUMPDEST CALLVALUE PUSH2 0x16B JUMPI PUSH1 0x20 SWAP1 DUP2 PUSH1 0x3 NOT CALLDATASIZE ADD SLT PUSH2 0x16B JUMPI PUSH1 0x4 CALLDATALOAD PUSH1 0x0 MSTORE PUSH1 0x5 DUP3 MSTORE PUSH1 0x40 PUSH1 0x0 KECCAK256 DUP1 SLOAD DUP1 DUP4 MSTORE DUP4 DUP4 ADD SWAP1 DUP2 SWAP3 PUSH1 0x0 MSTORE DUP5 PUSH1 0x0 KECCAK256 SWAP1 PUSH1 0x0 JUMPDEST DUP7 DUP3 DUP3 LT PUSH2 0x1E27 JUMPI DUP7 DUP7 PUSH2 0x1DDE DUP3 DUP9 SUB DUP4 PUSH2 0x1F70 JUMP JUMPDEST PUSH1 0x40 MLOAD SWAP3 DUP4 SWAP3 DUP2 DUP5 ADD SWAP1 DUP3 DUP6 MSTORE MLOAD DUP1 SWAP2 MSTORE PUSH1 0x40 DUP5 ADD SWAP3 SWAP2 PUSH1 0x0 JUMPDEST DUP3 DUP2 LT PUSH2 0x1E07 JUMPI POP POP POP POP SUB SWAP1 RETURN JUMPDEST DUP4 MLOAD PUSH1 0x1 PUSH1 0x1 PUSH1 0xA0 SHL SUB AND DUP6 MSTORE DUP7 SWAP6 POP SWAP4 DUP2 ADD SWAP4 SWAP3 DUP2 ADD SWAP3 PUSH1 0x1 ADD PUSH2 0x1DF8 JUMP JUMPDEST DUP4 SLOAD PUSH1 0x1 PUSH1 0x1 PUSH1 0xA0 SHL SUB AND DUP6 MSTORE SWAP1 SWAP4 ADD SWAP3 PUSH1 0x1 SWAP3 DUP4 ADD SWAP3 ADD PUSH2 0x1DC8 JUMP JUMPDEST PUSH1 0x40 SWAP1 PUSH1 0x3 NOT ADD SLT PUSH2 0x16B JUMPI PUSH1 0x4 CALLDATALOAD SWAP1 PUSH1 0x24 CALLDATALOAD SWAP1 JUMP JUMPDEST SWAP2 DUP2 PUSH1 0x1F DUP5 ADD SLT ISZERO PUSH2 0x16B JUMPI DUP3 CALLDATALOAD SWAP2 PUSH1 0x1 PUSH1 0x1 PUSH1 0x40 SHL SUB DUP4 GT PUSH2 0x16B JUMPI PUSH1 0x20 DUP4 DUP2 DUP7 ADD SWAP6 ADD ADD GT PUSH2 0x16B JUMPI JUMP JUMPDEST SWAP1 DUP2 MLOAD DUP1 DUP3 MSTORE PUSH1 0x20 DUP1 DUP1 SWAP4 ADD SWAP4 ADD SWAP2 PUSH1 0x0 JUMPDEST DUP3 DUP2 LT PUSH2 0x1EA7 JUMPI POP POP POP POP SWAP1 JUMP JUMPDEST DUP4 MLOAD DUP6 MSTORE SWAP4 DUP2 ADD SWAP4 SWAP3 DUP2 ADD SWAP3 PUSH1 0x1 ADD PUSH2 0x1E99 JUMP JUMPDEST PUSH1 0x4 CALLDATALOAD SWAP1 PUSH1 0x1 PUSH1 0x1 PUSH1 0xA0 SHL SUB DUP3 AND DUP3 SUB PUSH2 0x16B JUMPI JUMP JUMPDEST PUSH1 0x24 CALLDATALOAD SWAP1 PUSH1 0x1 PUSH1 0x1 PUSH1 0xA0 SHL SUB DUP3 AND DUP3 SUB PUSH2 0x16B JUMPI JUMP JUMPDEST DUP1 SLOAD DUP3 LT ISZERO PUSH2 0x1EFF JUMPI PUSH1 0x0 MSTORE PUSH1 0x20 PUSH1 0x0 KECCAK256 ADD SWAP1 PUSH1 0x0 SWAP1 JUMP JUMPDEST PUSH4 0x4E487B71 PUSH1 0xE0 SHL PUSH1 0x0 MSTORE PUSH1 0x32 PUSH1 0x4 MSTORE PUSH1 0x24 PUSH1 0x0 REVERT JUMPDEST SWAP2 SWAP1 DUP3 MLOAD SWAP3 DUP4 DUP3 MSTORE PUSH1 0x0 JUMPDEST DUP5 DUP2 LT PUSH2 0x1F41 JUMPI POP POP DUP3 PUSH1 0x0 PUSH1 0x20 DUP1 SWAP5 SWAP6 DUP5 ADD ADD MSTORE PUSH1 0x1F DUP1 NOT SWAP2 ADD AND ADD ADD SWAP1 JUMP JUMPDEST PUSH1 0x20 DUP2 DUP4 ADD DUP2 ADD MLOAD DUP5 DUP4 ADD DUP3 ADD MSTORE ADD PUSH2 0x1F20 JUMP JUMPDEST PUSH1 0x60 DUP2 ADD SWAP1 DUP2 LT PUSH1 0x1 PUSH1 0x1 PUSH1 0x40 SHL SUB DUP3 GT OR PUSH2 0x1443 JUMPI PUSH1 0x40 MSTORE JUMP JUMPDEST SWAP1 PUSH1 0x1F DUP1 NOT SWAP2 ADD AND DUP2 ADD SWAP1 DUP2 LT PUSH1 0x1 PUSH1 0x1 PUSH1 0x40 SHL SUB DUP3 GT OR PUSH2 0x1443 JUMPI PUSH1 0x40 MSTORE JUMP JUMPDEST ISZERO PUSH2 0x1F98 JUMPI JUMP JUMPDEST PUSH1 0x40 MLOAD PUSH3 0x461BCD PUSH1 0xE5 SHL DUP2 MSTORE PUSH1 0x20 PUSH1 0x4 DUP3 ADD MSTORE PUSH1 0x15 PUSH1 0x24 DUP3 ADD MSTORE PUSH21 0x13585C9AD95D08191BD95CC81B9BDD08195E1A5CDD PUSH1 0x5A SHL PUSH1 0x44 DUP3 ADD MSTORE PUSH1 0x64 SWAP1 REVERT JUMPDEST ISZERO PUSH2 0x1FDC JUMPI JUMP JUMPDEST PUSH1 0x40 MLOAD PUSH3 0x461BCD PUSH1 0xE5 SHL DUP2 MSTORE PUSH1 0x20 PUSH1 0x4 DUP3 ADD MSTORE PUSH1 0x10 PUSH1 0x24 DUP3 ADD MSTORE PUSH16 0x105B1C9958591E481C995CDBDB1D9959 PUSH1 0x82 SHL PUSH1 0x44 DUP3 ADD MSTORE PUSH1 0x64 SWAP1 REVERT JUMPDEST ISZERO PUSH2 0x201B JUMPI JUMP JUMPDEST PUSH1 0x40 MLOAD PUSH3 0x461BCD PUSH1 0xE5 SHL DUP2 MSTORE PUSH1 0x20 PUSH1 0x4 DUP3 ADD MSTORE PUSH1 0xF PUSH1 0x24 DUP3 ADD MSTORE PUSH15 0x496E76616C6964206F7574636F6D65 PUSH1 0x88 SHL PUSH1 0x44 DUP3 ADD MSTORE PUSH1 0x64 SWAP1 REVERT JUMPDEST DUP2 DUP2 MUL SWAP3 SWAP2 DUP2 ISZERO SWAP2 DUP5 DIV EQ OR ISZERO PUSH2 0xBC8 JUMPI JUMP JUMPDEST DUP2 ISZERO PUSH2 0xBF3 JUMPI DIV SWAP1 JUMP JUMPDEST SWAP2 SWAP1 DUP3 ADD DUP1 SWAP3 GT PUSH2 0xBC8 JUMPI JUMP JUMPDEST PUSH1 0x1 PUSH1 0x1 PUSH1 0x40 SHL SUB DUP2 GT PUSH2 0x1443 JUMPI PUSH1 0x1F ADD PUSH1 0x1F NOT AND PUSH1 0x20 ADD SWAP1 JUMP JUMPDEST RETURNDATASIZE ISZERO PUSH2 0x20C2 JUMPI RETURNDATASIZE SWAP1 PUSH2 0x20A8 DUP3 PUSH2 0x207C JUMP JUMPDEST SWAP2 PUSH2 0x20B6 PUSH1 0x40 MLOAD SWAP4 DUP5 PUSH2 0x1F70 JUMP JUMPDEST DUP3 MSTORE RETURNDATASIZE PUSH1 0x0 PUSH1 0x20 DUP5 ADD RETURNDATACOPY JUMP JUMPDEST PUSH1 0x60 SWAP1 JUMP JUMPDEST SWAP1 PUSH1 0x1 DUP3 DUP2 SHR SWAP3 AND DUP1 ISZERO PUSH2 0x20F7 JUMPI JUMPDEST PUSH1 0x20 DUP4 LT EQ PUSH2 0x20E1 JUMPI JUMP JUMPDEST PUSH4 0x4E487B71 PUSH1 0xE0 SHL PUSH1 0x0 MSTORE PUSH1 0x22 PUSH1 0x4 MSTORE PUSH1 0x24 PUSH1 0x0 REVERT JUMPDEST SWAP2 PUSH1 0x7F AND SWAP2 PUSH2 0x20D6 JUMP JUMPDEST DUP1 SLOAD PUSH1 0x0 SWAP4 SWAP3 PUSH2 0x2110 DUP3 PUSH2 0x20C7 JUMP JUMPDEST SWAP2 DUP3 DUP3 MSTORE PUSH1 0x20 SWAP4 PUSH1 0x1 SWAP2 PUSH1 0x1 DUP2 AND SWAP1 DUP2 PUSH1 0x0 EQ PUSH2 0x2178 JUMPI POP PUSH1 0x1 EQ PUSH2 0x2137 JUMPI JUMPDEST POP POP POP POP POP JUMP JUMPDEST SWAP1 SWAP4 SWAP5 SWAP6 POP PUSH1 0x0 SWAP3 SWAP2 SWAP3 MSTORE DUP4 PUSH1 0x0 KECCAK256 SWAP3 DUP5 PUSH1 0x0 SWAP5 JUMPDEST DUP4 DUP7 LT PUSH2 0x2164 JUMPI POP POP POP POP ADD ADD SWAP1 CODESIZE DUP1 DUP1 DUP1 DUP1 PUSH2 0x2130 JUMP JUMPDEST DUP1 SLOAD DUP6 DUP8 ADD DUP4 ADD MSTORE SWAP5 ADD SWAP4 DUP6 SWAP1 DUP3 ADD PUSH2 0x214C JUMP JUMPDEST PUSH1 0xFF NOT AND DUP7 DUP6 ADD MSTORE POP POP POP SWAP1 ISZERO ISZERO PUSH1 0x5 SHL ADD ADD SWAP2 POP CODESIZE DUP1 DUP1 DUP1 DUP1 PUSH2 0x2130 JUMP JUMPDEST SWAP2 SWAP1 DUP3 SUB SWAP2 DUP3 GT PUSH2 0xBC8 JUMPI JUMP JUMPDEST PUSH1 0x1 PUSH1 0x1 PUSH1 0x40 SHL SUB DUP2 GT PUSH2 0x1443 JUMPI PUSH1 0x5 SHL PUSH1 0x20 ADD SWAP1 JUMP JUMPDEST SWAP1 PUSH2 0x21C5 DUP3 PUSH2 0x21A4 JUMP JUMPDEST PUSH2 0x21D2 PUSH1 0x40 MLOAD SWAP2 DUP3 PUSH2 0x1F70 JUMP JUMPDEST DUP3 DUP2 MSTORE DUP1 SWAP3 PUSH2 0x21E3 PUSH1 0x1F NOT SWAP2 PUSH2 0x21A4 JUMP JUMPDEST ADD SWAP1 PUSH1 0x20 CALLDATASIZE SWAP2 ADD CALLDATACOPY JUMP JUMPDEST SWAP2 SWAP1 DUP2 LT ISZERO PUSH2 0x1EFF JUMPI PUSH1 0x5 SHL DUP2 ADD CALLDATALOAD SWAP1 PUSH1 0x1E NOT DUP2 CALLDATASIZE SUB ADD DUP3 SLT ISZERO PUSH2 0x16B JUMPI ADD SWAP1 DUP2 CALLDATALOAD SWAP2 PUSH1 0x1 PUSH1 0x1 PUSH1 0x40 SHL SUB DUP4 GT PUSH2 0x16B JUMPI PUSH1 0x20 ADD DUP3 CALLDATASIZE SUB DUP2 SGT PUSH2 0x16B JUMPI SWAP2 SWAP1 JUMP JUMPDEST DUP1 MLOAD ISZERO PUSH2 0x1EFF JUMPI PUSH1 0x20 ADD SWAP1 JUMP JUMPDEST DUP1 MLOAD DUP3 LT ISZERO PUSH2 0x1EFF JUMPI PUSH1 0x20 SWAP2 PUSH1 0x5 SHL ADD ADD SWAP1 JUMP JUMPDEST SWAP1 PUSH1 0x1F DUP2 GT PUSH2 0x225D JUMPI POP POP POP JUMP JUMPDEST PUSH1 0x0 SWAP2 PUSH1 0x0 MSTORE PUSH1 0x20 PUSH1 0x0 KECCAK256 SWAP1 PUSH1 0x20 PUSH1 0x1F DUP6 ADD PUSH1 0x5 SHR DUP4 ADD SWAP5 LT PUSH2 0x229B JUMPI JUMPDEST PUSH1 0x1F ADD PUSH1 0x5 SHR ADD SWAP2 JUMPDEST DUP3 DUP2 LT PUSH2 0x2290 JUMPI POP POP POP JUMP JUMPDEST DUP2 DUP2 SSTORE PUSH1 0x1 ADD PUSH2 0x2284 JUMP JUMPDEST SWAP1 SWAP3 POP DUP3 SWAP1 PUSH2 0x227B JUMP JUMPDEST SWAP1 DUP2 SLOAD SWAP2 PUSH1 0x1 PUSH1 0x40 SHL DUP4 LT ISZERO PUSH2 0x1443 JUMPI DUP3 PUSH2 0x22C8 SWAP2 PUSH1 0x1 PUSH2 0x22E1 SWAP6 ADD DUP2 SSTORE PUSH2 0x1EE7 JUMP JUMPDEST SWAP1 SWAP2 SWAP1 DUP3 SLOAD SWAP1 PUSH1 0x3 SHL SWAP2 DUP3 SHL SWAP2 PUSH1 0x0 NOT SWAP1 SHL NOT AND OR SWAP1 SSTORE JUMP JUMPDEST JUMP JUMPDEST SWAP1 DUP1 PUSH1 0x20 SWAP4 SWAP3 DUP2 DUP5 MSTORE DUP5 DUP5 ADD CALLDATACOPY PUSH1 0x0 DUP3 DUP3 ADD DUP5 ADD MSTORE PUSH1 0x1F ADD PUSH1 0x1F NOT AND ADD ADD SWAP1 JUMP JUMPDEST SWAP1 PUSH1 0x40 MLOAD SWAP2 DUP3 DUP2 SLOAD SWAP2 DUP3 DUP3 MSTORE PUSH1 0x20 SWAP3 PUSH1 0x20 DUP4 ADD SWAP2 PUSH1 0x0 MSTORE PUSH1 0x20 PUSH1 0x0 KECCAK256 SWAP4 PUSH1 0x0 SWAP1 JUMPDEST DUP3 DUP3 LT PUSH2 0x233B JUMPI POP POP POP PUSH2 0x22E1 SWAP3 POP SUB DUP4 PUSH2 0x1F70 JUMP JUMPDEST DUP6 SLOAD DUP5 MSTORE PUSH1 0x1 SWAP6 DUP7 ADD SWAP6 DUP9 SWAP6 POP SWAP4 DUP2 ADD SWAP4 SWAP1 SWAP2 ADD SWAP1 PUSH2 0x2325 JUMP JUMPDEST ISZERO PUSH2 0x235C JUMPI JUMP JUMPDEST PUSH1 0x40 MLOAD PUSH3 0x461BCD PUSH1 0xE5 SHL DUP2 MSTORE PUSH1 0x20 PUSH1 0x4 DUP3 ADD MSTORE PUSH1 0x9 PUSH1 0x24 DUP3 ADD MSTORE PUSH9 0x2737BA1037BBB732B9 PUSH1 0xB9 SHL PUSH1 0x44 DUP3 ADD MSTORE PUSH1 0x64 SWAP1 REVERT INVALID LOG2 PUSH5 0x6970667358 0x22 SLT KECCAK256 0x2E DUP8 0xFB 0xF7 SWAP9 0xB9 ADDRESS 0xF7 0x2B 0xED RETURN JUMP 0xA5 0xCB 0x23 DUP8 CREATE2 CHAINID EQ DELEGATECALL 0xFC CODECOPY PUSH31 0xCCC0620A1FA0B1310A64736F6C634300081800330000000000000000000000 "
        },
        "methodIdentifiers": {
          "BPS_DENOM()": "6637e38c",
          "CREATOR_FEE_BPS()": "cc3cbd2a",
          "PLATFORM_FEE_BPS()": "539aa77f",
          "bets(uint256,address)": "f644b3bb",
          "claimWinnings(uint256)": "677bd9ff",
          "createMarket(string,string,string,string,string[],uint256,uint256,bool,string,uint8)": "bb34223a",
          "getBet(uint256,address)": "e0950ddf",
          "getMarket(uint256)": "eb44fdd3",
          "getMarketBettors(uint256)": "0b501ab8",
          "getOutcomeOdds(uint256)": "bc5c4eb3",
          "getUserMarkets(address)": "da4473d8",
          "marketBettors(uint256,uint256)": "e053bcec",
          "marketCount()": "ec979082",
          "owner()": "8da5cb5b",
          "placeBet(uint256,uint256,string)": "ed732ddb",
          "resolveMarket(uint256,uint256)": "60557333",
          "totalPlatformFees()": "d3631fa5",
          "transferOwnership(address)": "f2fde38b",
          "userMarkets(address,uint256)": "db0f871d",
          "withdrawPlatformFees(address)": "ec3889b5"
        }
      }
    }
  }
}